
week3taks2.elf:     file format elf32-littlearm

Sections:
Idx Name          Size      VMA       LMA       File off  Algn
  0 .isr_vector   00000188  08000000  08000000  00010000  2**0
                  CONTENTS, ALLOC, LOAD, READONLY, DATA
  1 .text         000035c8  08000188  08000188  00010188  2**2
                  CONTENTS, ALLOC, LOAD, READONLY, CODE
  2 .rodata       00000050  08003750  08003750  00013750  2**2
                  CONTENTS, ALLOC, LOAD, READONLY, DATA
  3 .ARM.extab    00000000  080037a0  080037a0  0002000c  2**0
                  CONTENTS
  4 .ARM          00000008  080037a0  080037a0  000137a0  2**2
                  CONTENTS, ALLOC, LOAD, READONLY, DATA
  5 .preinit_array 00000000  080037a8  080037a8  0002000c  2**0
                  CONTENTS, ALLOC, LOAD, DATA
  6 .init_array   00000004  080037a8  080037a8  000137a8  2**2
                  CONTENTS, ALLOC, LOAD, DATA
  7 .fini_array   00000004  080037ac  080037ac  000137ac  2**2
                  CONTENTS, ALLOC, LOAD, DATA
  8 .data         0000000c  20000000  080037b0  00020000  2**2
                  CONTENTS, ALLOC, LOAD, DATA
  9 .bss          00000174  2000000c  080037bc  0002000c  2**2
                  ALLOC
 10 ._user_heap_stack 00000600  20000180  080037bc  00020180  2**0
                  ALLOC
 11 .ARM.attributes 00000030  00000000  00000000  0002000c  2**0
                  CONTENTS, READONLY
 12 .debug_info   0000eb44  00000000  00000000  0002003c  2**0
                  CONTENTS, READONLY, DEBUGGING, OCTETS
 13 .debug_abbrev 00001c44  00000000  00000000  0002eb80  2**0
                  CONTENTS, READONLY, DEBUGGING, OCTETS
 14 .debug_aranges 00000e10  00000000  00000000  000307c8  2**3
                  CONTENTS, READONLY, DEBUGGING, OCTETS
 15 .debug_ranges 00000d68  00000000  00000000  000315d8  2**3
                  CONTENTS, READONLY, DEBUGGING, OCTETS
 16 .debug_macro  00025fff  00000000  00000000  00032340  2**0
                  CONTENTS, READONLY, DEBUGGING, OCTETS
 17 .debug_line   0000eb77  00000000  00000000  0005833f  2**0
                  CONTENTS, READONLY, DEBUGGING, OCTETS
 18 .debug_str    000efb78  00000000  00000000  00066eb6  2**0
                  CONTENTS, READONLY, DEBUGGING, OCTETS
 19 .comment      00000053  00000000  00000000  00156a2e  2**0
                  CONTENTS, READONLY
 20 .debug_frame  00003b54  00000000  00000000  00156a84  2**2
                  CONTENTS, READONLY, DEBUGGING, OCTETS

Disassembly of section .text:

08000188 <__do_global_dtors_aux>:
 8000188:	b510      	push	{r4, lr}
 800018a:	4c05      	ldr	r4, [pc, #20]	; (80001a0 <__do_global_dtors_aux+0x18>)
 800018c:	7823      	ldrb	r3, [r4, #0]
 800018e:	b933      	cbnz	r3, 800019e <__do_global_dtors_aux+0x16>
 8000190:	4b04      	ldr	r3, [pc, #16]	; (80001a4 <__do_global_dtors_aux+0x1c>)
 8000192:	b113      	cbz	r3, 800019a <__do_global_dtors_aux+0x12>
 8000194:	4804      	ldr	r0, [pc, #16]	; (80001a8 <__do_global_dtors_aux+0x20>)
 8000196:	f3af 8000 	nop.w
 800019a:	2301      	movs	r3, #1
 800019c:	7023      	strb	r3, [r4, #0]
 800019e:	bd10      	pop	{r4, pc}
 80001a0:	2000000c 	.word	0x2000000c
 80001a4:	00000000 	.word	0x00000000
 80001a8:	08003738 	.word	0x08003738

080001ac <frame_dummy>:
 80001ac:	b508      	push	{r3, lr}
 80001ae:	4b03      	ldr	r3, [pc, #12]	; (80001bc <frame_dummy+0x10>)
 80001b0:	b11b      	cbz	r3, 80001ba <frame_dummy+0xe>
 80001b2:	4903      	ldr	r1, [pc, #12]	; (80001c0 <frame_dummy+0x14>)
 80001b4:	4803      	ldr	r0, [pc, #12]	; (80001c4 <frame_dummy+0x18>)
 80001b6:	f3af 8000 	nop.w
 80001ba:	bd08      	pop	{r3, pc}
 80001bc:	00000000 	.word	0x00000000
 80001c0:	20000010 	.word	0x20000010
 80001c4:	08003738 	.word	0x08003738

080001c8 <__aeabi_uldivmod>:
 80001c8:	b953      	cbnz	r3, 80001e0 <__aeabi_uldivmod+0x18>
 80001ca:	b94a      	cbnz	r2, 80001e0 <__aeabi_uldivmod+0x18>
 80001cc:	2900      	cmp	r1, #0
 80001ce:	bf08      	it	eq
 80001d0:	2800      	cmpeq	r0, #0
 80001d2:	bf1c      	itt	ne
 80001d4:	f04f 31ff 	movne.w	r1, #4294967295
 80001d8:	f04f 30ff 	movne.w	r0, #4294967295
 80001dc:	f000 b96e 	b.w	80004bc <__aeabi_idiv0>
 80001e0:	f1ad 0c08 	sub.w	ip, sp, #8
 80001e4:	e96d ce04 	strd	ip, lr, [sp, #-16]!
 80001e8:	f000 f806 	bl	80001f8 <__udivmoddi4>
 80001ec:	f8dd e004 	ldr.w	lr, [sp, #4]
 80001f0:	e9dd 2302 	ldrd	r2, r3, [sp, #8]
 80001f4:	b004      	add	sp, #16
 80001f6:	4770      	bx	lr

080001f8 <__udivmoddi4>:
 80001f8:	e92d 47f0 	stmdb	sp!, {r4, r5, r6, r7, r8, r9, sl, lr}
 80001fc:	9d08      	ldr	r5, [sp, #32]
 80001fe:	4604      	mov	r4, r0
 8000200:	468c      	mov	ip, r1
 8000202:	2b00      	cmp	r3, #0
 8000204:	f040 8083 	bne.w	800030e <__udivmoddi4+0x116>
 8000208:	428a      	cmp	r2, r1
 800020a:	4617      	mov	r7, r2
 800020c:	d947      	bls.n	800029e <__udivmoddi4+0xa6>
 800020e:	fab2 f282 	clz	r2, r2
 8000212:	b142      	cbz	r2, 8000226 <__udivmoddi4+0x2e>
 8000214:	f1c2 0020 	rsb	r0, r2, #32
 8000218:	fa24 f000 	lsr.w	r0, r4, r0
 800021c:	4091      	lsls	r1, r2
 800021e:	4097      	lsls	r7, r2
 8000220:	ea40 0c01 	orr.w	ip, r0, r1
 8000224:	4094      	lsls	r4, r2
 8000226:	ea4f 4817 	mov.w	r8, r7, lsr #16
 800022a:	0c23      	lsrs	r3, r4, #16
 800022c:	fbbc f6f8 	udiv	r6, ip, r8
 8000230:	fa1f fe87 	uxth.w	lr, r7
 8000234:	fb08 c116 	mls	r1, r8, r6, ip
 8000238:	ea43 4301 	orr.w	r3, r3, r1, lsl #16
 800023c:	fb06 f10e 	mul.w	r1, r6, lr
 8000240:	4299      	cmp	r1, r3
 8000242:	d909      	bls.n	8000258 <__udivmoddi4+0x60>
 8000244:	18fb      	adds	r3, r7, r3
 8000246:	f106 30ff 	add.w	r0, r6, #4294967295
 800024a:	f080 8119 	bcs.w	8000480 <__udivmoddi4+0x288>
 800024e:	4299      	cmp	r1, r3
 8000250:	f240 8116 	bls.w	8000480 <__udivmoddi4+0x288>
 8000254:	3e02      	subs	r6, #2
 8000256:	443b      	add	r3, r7
 8000258:	1a5b      	subs	r3, r3, r1
 800025a:	b2a4      	uxth	r4, r4
 800025c:	fbb3 f0f8 	udiv	r0, r3, r8
 8000260:	fb08 3310 	mls	r3, r8, r0, r3
 8000264:	ea44 4403 	orr.w	r4, r4, r3, lsl #16
 8000268:	fb00 fe0e 	mul.w	lr, r0, lr
 800026c:	45a6      	cmp	lr, r4
 800026e:	d909      	bls.n	8000284 <__udivmoddi4+0x8c>
 8000270:	193c      	adds	r4, r7, r4
 8000272:	f100 33ff 	add.w	r3, r0, #4294967295
 8000276:	f080 8105 	bcs.w	8000484 <__udivmoddi4+0x28c>
 800027a:	45a6      	cmp	lr, r4
 800027c:	f240 8102 	bls.w	8000484 <__udivmoddi4+0x28c>
 8000280:	3802      	subs	r0, #2
 8000282:	443c      	add	r4, r7
 8000284:	ea40 4006 	orr.w	r0, r0, r6, lsl #16
 8000288:	eba4 040e 	sub.w	r4, r4, lr
 800028c:	2600      	movs	r6, #0
 800028e:	b11d      	cbz	r5, 8000298 <__udivmoddi4+0xa0>
 8000290:	40d4      	lsrs	r4, r2
 8000292:	2300      	movs	r3, #0
 8000294:	e9c5 4300 	strd	r4, r3, [r5]
 8000298:	4631      	mov	r1, r6
 800029a:	e8bd 87f0 	ldmia.w	sp!, {r4, r5, r6, r7, r8, r9, sl, pc}
 800029e:	b902      	cbnz	r2, 80002a2 <__udivmoddi4+0xaa>
 80002a0:	deff      	udf	#255	; 0xff
 80002a2:	fab2 f282 	clz	r2, r2
 80002a6:	2a00      	cmp	r2, #0
 80002a8:	d150      	bne.n	800034c <__udivmoddi4+0x154>
 80002aa:	1bcb      	subs	r3, r1, r7
 80002ac:	ea4f 4e17 	mov.w	lr, r7, lsr #16
 80002b0:	fa1f f887 	uxth.w	r8, r7
 80002b4:	2601      	movs	r6, #1
 80002b6:	fbb3 fcfe 	udiv	ip, r3, lr
 80002ba:	0c21      	lsrs	r1, r4, #16
 80002bc:	fb0e 331c 	mls	r3, lr, ip, r3
 80002c0:	ea41 4103 	orr.w	r1, r1, r3, lsl #16
 80002c4:	fb08 f30c 	mul.w	r3, r8, ip
 80002c8:	428b      	cmp	r3, r1
 80002ca:	d907      	bls.n	80002dc <__udivmoddi4+0xe4>
 80002cc:	1879      	adds	r1, r7, r1
 80002ce:	f10c 30ff 	add.w	r0, ip, #4294967295
 80002d2:	d202      	bcs.n	80002da <__udivmoddi4+0xe2>
 80002d4:	428b      	cmp	r3, r1
 80002d6:	f200 80e9 	bhi.w	80004ac <__udivmoddi4+0x2b4>
 80002da:	4684      	mov	ip, r0
 80002dc:	1ac9      	subs	r1, r1, r3
 80002de:	b2a3      	uxth	r3, r4
 80002e0:	fbb1 f0fe 	udiv	r0, r1, lr
 80002e4:	fb0e 1110 	mls	r1, lr, r0, r1
 80002e8:	ea43 4401 	orr.w	r4, r3, r1, lsl #16
 80002ec:	fb08 f800 	mul.w	r8, r8, r0
 80002f0:	45a0      	cmp	r8, r4
 80002f2:	d907      	bls.n	8000304 <__udivmoddi4+0x10c>
 80002f4:	193c      	adds	r4, r7, r4
 80002f6:	f100 33ff 	add.w	r3, r0, #4294967295
 80002fa:	d202      	bcs.n	8000302 <__udivmoddi4+0x10a>
 80002fc:	45a0      	cmp	r8, r4
 80002fe:	f200 80d9 	bhi.w	80004b4 <__udivmoddi4+0x2bc>
 8000302:	4618      	mov	r0, r3
 8000304:	eba4 0408 	sub.w	r4, r4, r8
 8000308:	ea40 400c 	orr.w	r0, r0, ip, lsl #16
 800030c:	e7bf      	b.n	800028e <__udivmoddi4+0x96>
 800030e:	428b      	cmp	r3, r1
 8000310:	d909      	bls.n	8000326 <__udivmoddi4+0x12e>
 8000312:	2d00      	cmp	r5, #0
 8000314:	f000 80b1 	beq.w	800047a <__udivmoddi4+0x282>
 8000318:	2600      	movs	r6, #0
 800031a:	e9c5 0100 	strd	r0, r1, [r5]
 800031e:	4630      	mov	r0, r6
 8000320:	4631      	mov	r1, r6
 8000322:	e8bd 87f0 	ldmia.w	sp!, {r4, r5, r6, r7, r8, r9, sl, pc}
 8000326:	fab3 f683 	clz	r6, r3
 800032a:	2e00      	cmp	r6, #0
 800032c:	d14a      	bne.n	80003c4 <__udivmoddi4+0x1cc>
 800032e:	428b      	cmp	r3, r1
 8000330:	d302      	bcc.n	8000338 <__udivmoddi4+0x140>
 8000332:	4282      	cmp	r2, r0
 8000334:	f200 80b8 	bhi.w	80004a8 <__udivmoddi4+0x2b0>
 8000338:	1a84      	subs	r4, r0, r2
 800033a:	eb61 0103 	sbc.w	r1, r1, r3
 800033e:	2001      	movs	r0, #1
 8000340:	468c      	mov	ip, r1
 8000342:	2d00      	cmp	r5, #0
 8000344:	d0a8      	beq.n	8000298 <__udivmoddi4+0xa0>
 8000346:	e9c5 4c00 	strd	r4, ip, [r5]
 800034a:	e7a5      	b.n	8000298 <__udivmoddi4+0xa0>
 800034c:	f1c2 0320 	rsb	r3, r2, #32
 8000350:	fa20 f603 	lsr.w	r6, r0, r3
 8000354:	4097      	lsls	r7, r2
 8000356:	fa01 f002 	lsl.w	r0, r1, r2
 800035a:	ea4f 4e17 	mov.w	lr, r7, lsr #16
 800035e:	40d9      	lsrs	r1, r3
 8000360:	4330      	orrs	r0, r6
 8000362:	0c03      	lsrs	r3, r0, #16
 8000364:	fbb1 f6fe 	udiv	r6, r1, lr
 8000368:	fa1f f887 	uxth.w	r8, r7
 800036c:	fb0e 1116 	mls	r1, lr, r6, r1
 8000370:	ea43 4301 	orr.w	r3, r3, r1, lsl #16
 8000374:	fb06 f108 	mul.w	r1, r6, r8
 8000378:	4299      	cmp	r1, r3
 800037a:	fa04 f402 	lsl.w	r4, r4, r2
 800037e:	d909      	bls.n	8000394 <__udivmoddi4+0x19c>
 8000380:	18fb      	adds	r3, r7, r3
 8000382:	f106 3cff 	add.w	ip, r6, #4294967295
 8000386:	f080 808d 	bcs.w	80004a4 <__udivmoddi4+0x2ac>
 800038a:	4299      	cmp	r1, r3
 800038c:	f240 808a 	bls.w	80004a4 <__udivmoddi4+0x2ac>
 8000390:	3e02      	subs	r6, #2
 8000392:	443b      	add	r3, r7
 8000394:	1a5b      	subs	r3, r3, r1
 8000396:	b281      	uxth	r1, r0
 8000398:	fbb3 f0fe 	udiv	r0, r3, lr
 800039c:	fb0e 3310 	mls	r3, lr, r0, r3
 80003a0:	ea41 4103 	orr.w	r1, r1, r3, lsl #16
 80003a4:	fb00 f308 	mul.w	r3, r0, r8
 80003a8:	428b      	cmp	r3, r1
 80003aa:	d907      	bls.n	80003bc <__udivmoddi4+0x1c4>
 80003ac:	1879      	adds	r1, r7, r1
 80003ae:	f100 3cff 	add.w	ip, r0, #4294967295
 80003b2:	d273      	bcs.n	800049c <__udivmoddi4+0x2a4>
 80003b4:	428b      	cmp	r3, r1
 80003b6:	d971      	bls.n	800049c <__udivmoddi4+0x2a4>
 80003b8:	3802      	subs	r0, #2
 80003ba:	4439      	add	r1, r7
 80003bc:	1acb      	subs	r3, r1, r3
 80003be:	ea40 4606 	orr.w	r6, r0, r6, lsl #16
 80003c2:	e778      	b.n	80002b6 <__udivmoddi4+0xbe>
 80003c4:	f1c6 0c20 	rsb	ip, r6, #32
 80003c8:	fa03 f406 	lsl.w	r4, r3, r6
 80003cc:	fa22 f30c 	lsr.w	r3, r2, ip
 80003d0:	431c      	orrs	r4, r3
 80003d2:	fa20 f70c 	lsr.w	r7, r0, ip
 80003d6:	fa01 f306 	lsl.w	r3, r1, r6
 80003da:	ea4f 4e14 	mov.w	lr, r4, lsr #16
 80003de:	fa21 f10c 	lsr.w	r1, r1, ip
 80003e2:	431f      	orrs	r7, r3
 80003e4:	0c3b      	lsrs	r3, r7, #16
 80003e6:	fbb1 f9fe 	udiv	r9, r1, lr
 80003ea:	fa1f f884 	uxth.w	r8, r4
 80003ee:	fb0e 1119 	mls	r1, lr, r9, r1
 80003f2:	ea43 4101 	orr.w	r1, r3, r1, lsl #16
 80003f6:	fb09 fa08 	mul.w	sl, r9, r8
 80003fa:	458a      	cmp	sl, r1
 80003fc:	fa02 f206 	lsl.w	r2, r2, r6
 8000400:	fa00 f306 	lsl.w	r3, r0, r6
 8000404:	d908      	bls.n	8000418 <__udivmoddi4+0x220>
 8000406:	1861      	adds	r1, r4, r1
 8000408:	f109 30ff 	add.w	r0, r9, #4294967295
 800040c:	d248      	bcs.n	80004a0 <__udivmoddi4+0x2a8>
 800040e:	458a      	cmp	sl, r1
 8000410:	d946      	bls.n	80004a0 <__udivmoddi4+0x2a8>
 8000412:	f1a9 0902 	sub.w	r9, r9, #2
 8000416:	4421      	add	r1, r4
 8000418:	eba1 010a 	sub.w	r1, r1, sl
 800041c:	b2bf      	uxth	r7, r7
 800041e:	fbb1 f0fe 	udiv	r0, r1, lr
 8000422:	fb0e 1110 	mls	r1, lr, r0, r1
 8000426:	ea47 4701 	orr.w	r7, r7, r1, lsl #16
 800042a:	fb00 f808 	mul.w	r8, r0, r8
 800042e:	45b8      	cmp	r8, r7
 8000430:	d907      	bls.n	8000442 <__udivmoddi4+0x24a>
 8000432:	19e7      	adds	r7, r4, r7
 8000434:	f100 31ff 	add.w	r1, r0, #4294967295
 8000438:	d22e      	bcs.n	8000498 <__udivmoddi4+0x2a0>
 800043a:	45b8      	cmp	r8, r7
 800043c:	d92c      	bls.n	8000498 <__udivmoddi4+0x2a0>
 800043e:	3802      	subs	r0, #2
 8000440:	4427      	add	r7, r4
 8000442:	ea40 4009 	orr.w	r0, r0, r9, lsl #16
 8000446:	eba7 0708 	sub.w	r7, r7, r8
 800044a:	fba0 8902 	umull	r8, r9, r0, r2
 800044e:	454f      	cmp	r7, r9
 8000450:	46c6      	mov	lr, r8
 8000452:	4649      	mov	r1, r9
 8000454:	d31a      	bcc.n	800048c <__udivmoddi4+0x294>
 8000456:	d017      	beq.n	8000488 <__udivmoddi4+0x290>
 8000458:	b15d      	cbz	r5, 8000472 <__udivmoddi4+0x27a>
 800045a:	ebb3 020e 	subs.w	r2, r3, lr
 800045e:	eb67 0701 	sbc.w	r7, r7, r1
 8000462:	fa07 fc0c 	lsl.w	ip, r7, ip
 8000466:	40f2      	lsrs	r2, r6
 8000468:	ea4c 0202 	orr.w	r2, ip, r2
 800046c:	40f7      	lsrs	r7, r6
 800046e:	e9c5 2700 	strd	r2, r7, [r5]
 8000472:	2600      	movs	r6, #0
 8000474:	4631      	mov	r1, r6
 8000476:	e8bd 87f0 	ldmia.w	sp!, {r4, r5, r6, r7, r8, r9, sl, pc}
 800047a:	462e      	mov	r6, r5
 800047c:	4628      	mov	r0, r5
 800047e:	e70b      	b.n	8000298 <__udivmoddi4+0xa0>
 8000480:	4606      	mov	r6, r0
 8000482:	e6e9      	b.n	8000258 <__udivmoddi4+0x60>
 8000484:	4618      	mov	r0, r3
 8000486:	e6fd      	b.n	8000284 <__udivmoddi4+0x8c>
 8000488:	4543      	cmp	r3, r8
 800048a:	d2e5      	bcs.n	8000458 <__udivmoddi4+0x260>
 800048c:	ebb8 0e02 	subs.w	lr, r8, r2
 8000490:	eb69 0104 	sbc.w	r1, r9, r4
 8000494:	3801      	subs	r0, #1
 8000496:	e7df      	b.n	8000458 <__udivmoddi4+0x260>
 8000498:	4608      	mov	r0, r1
 800049a:	e7d2      	b.n	8000442 <__udivmoddi4+0x24a>
 800049c:	4660      	mov	r0, ip
 800049e:	e78d      	b.n	80003bc <__udivmoddi4+0x1c4>
 80004a0:	4681      	mov	r9, r0
 80004a2:	e7b9      	b.n	8000418 <__udivmoddi4+0x220>
 80004a4:	4666      	mov	r6, ip
 80004a6:	e775      	b.n	8000394 <__udivmoddi4+0x19c>
 80004a8:	4630      	mov	r0, r6
 80004aa:	e74a      	b.n	8000342 <__udivmoddi4+0x14a>
 80004ac:	f1ac 0c02 	sub.w	ip, ip, #2
 80004b0:	4439      	add	r1, r7
 80004b2:	e713      	b.n	80002dc <__udivmoddi4+0xe4>
 80004b4:	3802      	subs	r0, #2
 80004b6:	443c      	add	r4, r7
 80004b8:	e724      	b.n	8000304 <__udivmoddi4+0x10c>
 80004ba:	bf00      	nop

080004bc <__aeabi_idiv0>:
 80004bc:	4770      	bx	lr
 80004be:	bf00      	nop

080004c0 <main>:
/**
  * @brief  The application entry point.
  * @retval int
  */
int main(void)
{
 80004c0:	b580      	push	{r7, lr}
 80004c2:	af00      	add	r7, sp, #0
  /* USER CODE END 1 */

  /* MCU Configuration--------------------------------------------------------*/

  /* Reset of all peripherals, Initializes the Flash interface and the Systick. */
  HAL_Init();
 80004c4:	f000 fafa 	bl	8000abc <HAL_Init>
  /* USER CODE BEGIN Init */

  /* USER CODE END Init */

  /* Configure the system clock */
  SystemClock_Config();
 80004c8:	f000 f80e 	bl	80004e8 <SystemClock_Config>
  /* USER CODE BEGIN SysInit */

  /* USER CODE END SysInit */

  /* Initialize all configured peripherals */
  MX_GPIO_Init();
 80004cc:	f000 f8e6 	bl	800069c <MX_GPIO_Init>
  MX_USART2_UART_Init();
 80004d0:	f000 f8b4 	bl	800063c <MX_USART2_UART_Init>
  MX_TIM16_Init();
 80004d4:	f000 f85a 	bl	800058c <MX_TIM16_Init>
  MX_USART1_UART_Init();
 80004d8:	f000 f880 	bl	80005dc <MX_USART1_UART_Init>
  /* USER CODE BEGIN 2 */

  HAL_TIM_Base_Start_IT(&htim16);
 80004dc:	4801      	ldr	r0, [pc, #4]	; (80004e4 <main+0x24>)
 80004de:	f002 f9bb 	bl	8002858 <HAL_TIM_Base_Start_IT>

  /* USER CODE END 2 */

  /* Infinite loop */
  /* USER CODE BEGIN WHILE */
  while (1)
 80004e2:	e7fe      	b.n	80004e2 <main+0x22>
 80004e4:	20000130 	.word	0x20000130

080004e8 <SystemClock_Config>:
/**
  * @brief System Clock Configuration
  * @retval None
  */
void SystemClock_Config(void)
{
 80004e8:	b580      	push	{r7, lr}
 80004ea:	b096      	sub	sp, #88	; 0x58
 80004ec:	af00      	add	r7, sp, #0
  RCC_OscInitTypeDef RCC_OscInitStruct = {0};
 80004ee:	f107 0314 	add.w	r3, r7, #20
 80004f2:	2244      	movs	r2, #68	; 0x44
 80004f4:	2100      	movs	r1, #0
 80004f6:	4618      	mov	r0, r3
 80004f8:	f003 f916 	bl	8003728 <memset>
  RCC_ClkInitTypeDef RCC_ClkInitStruct = {0};
 80004fc:	463b      	mov	r3, r7
 80004fe:	2200      	movs	r2, #0
 8000500:	601a      	str	r2, [r3, #0]
 8000502:	605a      	str	r2, [r3, #4]
 8000504:	609a      	str	r2, [r3, #8]
 8000506:	60da      	str	r2, [r3, #12]
 8000508:	611a      	str	r2, [r3, #16]

  /** Configure the main internal regulator output voltage
  */
  if (HAL_PWREx_ControlVoltageScaling(PWR_REGULATOR_VOLTAGE_SCALE1) != HAL_OK)
 800050a:	f44f 7000 	mov.w	r0, #512	; 0x200
 800050e:	f000 fe4d 	bl	80011ac <HAL_PWREx_ControlVoltageScaling>
 8000512:	4603      	mov	r3, r0
 8000514:	2b00      	cmp	r3, #0
 8000516:	d001      	beq.n	800051c <SystemClock_Config+0x34>
  {
    Error_Handler();
 8000518:	f000 f94e 	bl	80007b8 <Error_Handler>
  }
  /** Initializes the RCC Oscillators according to the specified parameters
  * in the RCC_OscInitTypeDef structure.
  */
  RCC_OscInitStruct.OscillatorType = RCC_OSCILLATORTYPE_HSI;
 800051c:	2302      	movs	r3, #2
 800051e:	617b      	str	r3, [r7, #20]
  RCC_OscInitStruct.HSIState = RCC_HSI_ON;
 8000520:	f44f 7380 	mov.w	r3, #256	; 0x100
 8000524:	623b      	str	r3, [r7, #32]
  RCC_OscInitStruct.HSICalibrationValue = RCC_HSICALIBRATION_DEFAULT;
 8000526:	2310      	movs	r3, #16
 8000528:	627b      	str	r3, [r7, #36]	; 0x24
  RCC_OscInitStruct.PLL.PLLState = RCC_PLL_ON;
 800052a:	2302      	movs	r3, #2
 800052c:	63fb      	str	r3, [r7, #60]	; 0x3c
  RCC_OscInitStruct.PLL.PLLSource = RCC_PLLSOURCE_HSI;
 800052e:	2302      	movs	r3, #2
 8000530:	643b      	str	r3, [r7, #64]	; 0x40
  RCC_OscInitStruct.PLL.PLLM = 1;
 8000532:	2301      	movs	r3, #1
 8000534:	647b      	str	r3, [r7, #68]	; 0x44
  RCC_OscInitStruct.PLL.PLLN = 10;
 8000536:	230a      	movs	r3, #10
 8000538:	64bb      	str	r3, [r7, #72]	; 0x48
  RCC_OscInitStruct.PLL.PLLP = RCC_PLLP_DIV7;
 800053a:	2307      	movs	r3, #7
 800053c:	64fb      	str	r3, [r7, #76]	; 0x4c
  RCC_OscInitStruct.PLL.PLLQ = RCC_PLLQ_DIV2;
 800053e:	2302      	movs	r3, #2
 8000540:	653b      	str	r3, [r7, #80]	; 0x50
  RCC_OscInitStruct.PLL.PLLR = RCC_PLLR_DIV2;
 8000542:	2302      	movs	r3, #2
 8000544:	657b      	str	r3, [r7, #84]	; 0x54
  if (HAL_RCC_OscConfig(&RCC_OscInitStruct) != HAL_OK)
 8000546:	f107 0314 	add.w	r3, r7, #20
 800054a:	4618      	mov	r0, r3
 800054c:	f000 fe84 	bl	8001258 <HAL_RCC_OscConfig>
 8000550:	4603      	mov	r3, r0
 8000552:	2b00      	cmp	r3, #0
 8000554:	d001      	beq.n	800055a <SystemClock_Config+0x72>
  {
    Error_Handler();
 8000556:	f000 f92f 	bl	80007b8 <Error_Handler>
  }
  /** Initializes the CPU, AHB and APB buses clocks
  */
  RCC_ClkInitStruct.ClockType = RCC_CLOCKTYPE_HCLK|RCC_CLOCKTYPE_SYSCLK
 800055a:	230f      	movs	r3, #15
 800055c:	603b      	str	r3, [r7, #0]
                              |RCC_CLOCKTYPE_PCLK1|RCC_CLOCKTYPE_PCLK2;
  RCC_ClkInitStruct.SYSCLKSource = RCC_SYSCLKSOURCE_PLLCLK;
 800055e:	2303      	movs	r3, #3
 8000560:	607b      	str	r3, [r7, #4]
  RCC_ClkInitStruct.AHBCLKDivider = RCC_SYSCLK_DIV1;
 8000562:	2300      	movs	r3, #0
 8000564:	60bb      	str	r3, [r7, #8]
  RCC_ClkInitStruct.APB1CLKDivider = RCC_HCLK_DIV1;
 8000566:	2300      	movs	r3, #0
 8000568:	60fb      	str	r3, [r7, #12]
  RCC_ClkInitStruct.APB2CLKDivider = RCC_HCLK_DIV1;
 800056a:	2300      	movs	r3, #0
 800056c:	613b      	str	r3, [r7, #16]

  if (HAL_RCC_ClockConfig(&RCC_ClkInitStruct, FLASH_LATENCY_4) != HAL_OK)
 800056e:	463b      	mov	r3, r7
 8000570:	2104      	movs	r1, #4
 8000572:	4618      	mov	r0, r3
 8000574:	f001 fa56 	bl	8001a24 <HAL_RCC_ClockConfig>
 8000578:	4603      	mov	r3, r0
 800057a:	2b00      	cmp	r3, #0
 800057c:	d001      	beq.n	8000582 <SystemClock_Config+0x9a>
  {
    Error_Handler();
 800057e:	f000 f91b 	bl	80007b8 <Error_Handler>
  }
}
 8000582:	bf00      	nop
 8000584:	3758      	adds	r7, #88	; 0x58
 8000586:	46bd      	mov	sp, r7
 8000588:	bd80      	pop	{r7, pc}
	...

0800058c <MX_TIM16_Init>:
  * @brief TIM16 Initialization Function
  * @param None
  * @retval None
  */
static void MX_TIM16_Init(void)
{
 800058c:	b580      	push	{r7, lr}
 800058e:	af00      	add	r7, sp, #0
  /* USER CODE END TIM16_Init 0 */

  /* USER CODE BEGIN TIM16_Init 1 */

  /* USER CODE END TIM16_Init 1 */
  htim16.Instance = TIM16;
 8000590:	4b10      	ldr	r3, [pc, #64]	; (80005d4 <MX_TIM16_Init+0x48>)
 8000592:	4a11      	ldr	r2, [pc, #68]	; (80005d8 <MX_TIM16_Init+0x4c>)
 8000594:	601a      	str	r2, [r3, #0]
  htim16.Init.Prescaler = 8000 - 1;
 8000596:	4b0f      	ldr	r3, [pc, #60]	; (80005d4 <MX_TIM16_Init+0x48>)
 8000598:	f641 723f 	movw	r2, #7999	; 0x1f3f
 800059c:	605a      	str	r2, [r3, #4]
  htim16.Init.CounterMode = TIM_COUNTERMODE_UP;
 800059e:	4b0d      	ldr	r3, [pc, #52]	; (80005d4 <MX_TIM16_Init+0x48>)
 80005a0:	2200      	movs	r2, #0
 80005a2:	609a      	str	r2, [r3, #8]
  htim16.Init.Period = 10000 - 1;
 80005a4:	4b0b      	ldr	r3, [pc, #44]	; (80005d4 <MX_TIM16_Init+0x48>)
 80005a6:	f242 720f 	movw	r2, #9999	; 0x270f
 80005aa:	60da      	str	r2, [r3, #12]
  htim16.Init.ClockDivision = TIM_CLOCKDIVISION_DIV1;
 80005ac:	4b09      	ldr	r3, [pc, #36]	; (80005d4 <MX_TIM16_Init+0x48>)
 80005ae:	2200      	movs	r2, #0
 80005b0:	611a      	str	r2, [r3, #16]
  htim16.Init.RepetitionCounter = 0;
 80005b2:	4b08      	ldr	r3, [pc, #32]	; (80005d4 <MX_TIM16_Init+0x48>)
 80005b4:	2200      	movs	r2, #0
 80005b6:	615a      	str	r2, [r3, #20]
  htim16.Init.AutoReloadPreload = TIM_AUTORELOAD_PRELOAD_DISABLE;
 80005b8:	4b06      	ldr	r3, [pc, #24]	; (80005d4 <MX_TIM16_Init+0x48>)
 80005ba:	2200      	movs	r2, #0
 80005bc:	619a      	str	r2, [r3, #24]
  if (HAL_TIM_Base_Init(&htim16) != HAL_OK)
 80005be:	4805      	ldr	r0, [pc, #20]	; (80005d4 <MX_TIM16_Init+0x48>)
 80005c0:	f002 f8f2 	bl	80027a8 <HAL_TIM_Base_Init>
 80005c4:	4603      	mov	r3, r0
 80005c6:	2b00      	cmp	r3, #0
 80005c8:	d001      	beq.n	80005ce <MX_TIM16_Init+0x42>
  {
    Error_Handler();
 80005ca:	f000 f8f5 	bl	80007b8 <Error_Handler>
  }
  /* USER CODE BEGIN TIM16_Init 2 */

  /* USER CODE END TIM16_Init 2 */

}
 80005ce:	bf00      	nop
 80005d0:	bd80      	pop	{r7, pc}
 80005d2:	bf00      	nop
 80005d4:	20000130 	.word	0x20000130
 80005d8:	40014400 	.word	0x40014400

080005dc <MX_USART1_UART_Init>:
  * @brief USART1 Initialization Function
  * @param None
  * @retval None
  */
static void MX_USART1_UART_Init(void)
{
 80005dc:	b580      	push	{r7, lr}
 80005de:	af00      	add	r7, sp, #0
  /* USER CODE END USART1_Init 0 */

  /* USER CODE BEGIN USART1_Init 1 */

  /* USER CODE END USART1_Init 1 */
  huart1.Instance = USART1;
 80005e0:	4b14      	ldr	r3, [pc, #80]	; (8000634 <MX_USART1_UART_Init+0x58>)
 80005e2:	4a15      	ldr	r2, [pc, #84]	; (8000638 <MX_USART1_UART_Init+0x5c>)
 80005e4:	601a      	str	r2, [r3, #0]
  huart1.Init.BaudRate = 115200;
 80005e6:	4b13      	ldr	r3, [pc, #76]	; (8000634 <MX_USART1_UART_Init+0x58>)
 80005e8:	f44f 32e1 	mov.w	r2, #115200	; 0x1c200
 80005ec:	605a      	str	r2, [r3, #4]
  huart1.Init.WordLength = UART_WORDLENGTH_8B;
 80005ee:	4b11      	ldr	r3, [pc, #68]	; (8000634 <MX_USART1_UART_Init+0x58>)
 80005f0:	2200      	movs	r2, #0
 80005f2:	609a      	str	r2, [r3, #8]
  huart1.Init.StopBits = UART_STOPBITS_1;
 80005f4:	4b0f      	ldr	r3, [pc, #60]	; (8000634 <MX_USART1_UART_Init+0x58>)
 80005f6:	2200      	movs	r2, #0
 80005f8:	60da      	str	r2, [r3, #12]
  huart1.Init.Parity = UART_PARITY_NONE;
 80005fa:	4b0e      	ldr	r3, [pc, #56]	; (8000634 <MX_USART1_UART_Init+0x58>)
 80005fc:	2200      	movs	r2, #0
 80005fe:	611a      	str	r2, [r3, #16]
  huart1.Init.Mode = UART_MODE_TX_RX;
 8000600:	4b0c      	ldr	r3, [pc, #48]	; (8000634 <MX_USART1_UART_Init+0x58>)
 8000602:	220c      	movs	r2, #12
 8000604:	615a      	str	r2, [r3, #20]
  huart1.Init.HwFlowCtl = UART_HWCONTROL_NONE;
 8000606:	4b0b      	ldr	r3, [pc, #44]	; (8000634 <MX_USART1_UART_Init+0x58>)
 8000608:	2200      	movs	r2, #0
 800060a:	619a      	str	r2, [r3, #24]
  huart1.Init.OverSampling = UART_OVERSAMPLING_16;
 800060c:	4b09      	ldr	r3, [pc, #36]	; (8000634 <MX_USART1_UART_Init+0x58>)
 800060e:	2200      	movs	r2, #0
 8000610:	61da      	str	r2, [r3, #28]
  huart1.Init.OneBitSampling = UART_ONE_BIT_SAMPLE_DISABLE;
 8000612:	4b08      	ldr	r3, [pc, #32]	; (8000634 <MX_USART1_UART_Init+0x58>)
 8000614:	2200      	movs	r2, #0
 8000616:	621a      	str	r2, [r3, #32]
  huart1.AdvancedInit.AdvFeatureInit = UART_ADVFEATURE_NO_INIT;
 8000618:	4b06      	ldr	r3, [pc, #24]	; (8000634 <MX_USART1_UART_Init+0x58>)
 800061a:	2200      	movs	r2, #0
 800061c:	625a      	str	r2, [r3, #36]	; 0x24
  if (HAL_UART_Init(&huart1) != HAL_OK)
 800061e:	4805      	ldr	r0, [pc, #20]	; (8000634 <MX_USART1_UART_Init+0x58>)
 8000620:	f002 fb8a 	bl	8002d38 <HAL_UART_Init>
 8000624:	4603      	mov	r3, r0
 8000626:	2b00      	cmp	r3, #0
 8000628:	d001      	beq.n	800062e <MX_USART1_UART_Init+0x52>
  {
    Error_Handler();
 800062a:	f000 f8c5 	bl	80007b8 <Error_Handler>
  }
  /* USER CODE BEGIN USART1_Init 2 */

  /* USER CODE END USART1_Init 2 */

}
 800062e:	bf00      	nop
 8000630:	bd80      	pop	{r7, pc}
 8000632:	bf00      	nop
 8000634:	20000028 	.word	0x20000028
 8000638:	40013800 	.word	0x40013800

0800063c <MX_USART2_UART_Init>:
  * @brief USART2 Initialization Function
  * @param None
  * @retval None
  */
static void MX_USART2_UART_Init(void)
{
 800063c:	b580      	push	{r7, lr}
 800063e:	af00      	add	r7, sp, #0
  /* USER CODE END USART2_Init 0 */

  /* USER CODE BEGIN USART2_Init 1 */

  /* USER CODE END USART2_Init 1 */
  huart2.Instance = USART2;
 8000640:	4b14      	ldr	r3, [pc, #80]	; (8000694 <MX_USART2_UART_Init+0x58>)
 8000642:	4a15      	ldr	r2, [pc, #84]	; (8000698 <MX_USART2_UART_Init+0x5c>)
 8000644:	601a      	str	r2, [r3, #0]
  huart2.Init.BaudRate = 115200;
 8000646:	4b13      	ldr	r3, [pc, #76]	; (8000694 <MX_USART2_UART_Init+0x58>)
 8000648:	f44f 32e1 	mov.w	r2, #115200	; 0x1c200
 800064c:	605a      	str	r2, [r3, #4]
  huart2.Init.WordLength = UART_WORDLENGTH_8B;
 800064e:	4b11      	ldr	r3, [pc, #68]	; (8000694 <MX_USART2_UART_Init+0x58>)
 8000650:	2200      	movs	r2, #0
 8000652:	609a      	str	r2, [r3, #8]
  huart2.Init.StopBits = UART_STOPBITS_1;
 8000654:	4b0f      	ldr	r3, [pc, #60]	; (8000694 <MX_USART2_UART_Init+0x58>)
 8000656:	2200      	movs	r2, #0
 8000658:	60da      	str	r2, [r3, #12]
  huart2.Init.Parity = UART_PARITY_NONE;
 800065a:	4b0e      	ldr	r3, [pc, #56]	; (8000694 <MX_USART2_UART_Init+0x58>)
 800065c:	2200      	movs	r2, #0
 800065e:	611a      	str	r2, [r3, #16]
  huart2.Init.Mode = UART_MODE_TX_RX;
 8000660:	4b0c      	ldr	r3, [pc, #48]	; (8000694 <MX_USART2_UART_Init+0x58>)
 8000662:	220c      	movs	r2, #12
 8000664:	615a      	str	r2, [r3, #20]
  huart2.Init.HwFlowCtl = UART_HWCONTROL_NONE;
 8000666:	4b0b      	ldr	r3, [pc, #44]	; (8000694 <MX_USART2_UART_Init+0x58>)
 8000668:	2200      	movs	r2, #0
 800066a:	619a      	str	r2, [r3, #24]
  huart2.Init.OverSampling = UART_OVERSAMPLING_16;
 800066c:	4b09      	ldr	r3, [pc, #36]	; (8000694 <MX_USART2_UART_Init+0x58>)
 800066e:	2200      	movs	r2, #0
 8000670:	61da      	str	r2, [r3, #28]
  huart2.Init.OneBitSampling = UART_ONE_BIT_SAMPLE_DISABLE;
 8000672:	4b08      	ldr	r3, [pc, #32]	; (8000694 <MX_USART2_UART_Init+0x58>)
 8000674:	2200      	movs	r2, #0
 8000676:	621a      	str	r2, [r3, #32]
  huart2.AdvancedInit.AdvFeatureInit = UART_ADVFEATURE_NO_INIT;
 8000678:	4b06      	ldr	r3, [pc, #24]	; (8000694 <MX_USART2_UART_Init+0x58>)
 800067a:	2200      	movs	r2, #0
 800067c:	625a      	str	r2, [r3, #36]	; 0x24
  if (HAL_UART_Init(&huart2) != HAL_OK)
 800067e:	4805      	ldr	r0, [pc, #20]	; (8000694 <MX_USART2_UART_Init+0x58>)
 8000680:	f002 fb5a 	bl	8002d38 <HAL_UART_Init>
 8000684:	4603      	mov	r3, r0
 8000686:	2b00      	cmp	r3, #0
 8000688:	d001      	beq.n	800068e <MX_USART2_UART_Init+0x52>
  {
    Error_Handler();
 800068a:	f000 f895 	bl	80007b8 <Error_Handler>
  }
  /* USER CODE BEGIN USART2_Init 2 */

  /* USER CODE END USART2_Init 2 */

}
 800068e:	bf00      	nop
 8000690:	bd80      	pop	{r7, pc}
 8000692:	bf00      	nop
 8000694:	200000ac 	.word	0x200000ac
 8000698:	40004400 	.word	0x40004400

0800069c <MX_GPIO_Init>:
  * @brief GPIO Initialization Function
  * @param None
  * @retval None
  */
static void MX_GPIO_Init(void)
{
 800069c:	b580      	push	{r7, lr}
 800069e:	b08a      	sub	sp, #40	; 0x28
 80006a0:	af00      	add	r7, sp, #0
  GPIO_InitTypeDef GPIO_InitStruct = {0};
 80006a2:	f107 0314 	add.w	r3, r7, #20
 80006a6:	2200      	movs	r2, #0
 80006a8:	601a      	str	r2, [r3, #0]
 80006aa:	605a      	str	r2, [r3, #4]
 80006ac:	609a      	str	r2, [r3, #8]
 80006ae:	60da      	str	r2, [r3, #12]
 80006b0:	611a      	str	r2, [r3, #16]

  /* GPIO Ports Clock Enable */
  __HAL_RCC_GPIOC_CLK_ENABLE();
 80006b2:	4b2b      	ldr	r3, [pc, #172]	; (8000760 <MX_GPIO_Init+0xc4>)
 80006b4:	6cdb      	ldr	r3, [r3, #76]	; 0x4c
 80006b6:	4a2a      	ldr	r2, [pc, #168]	; (8000760 <MX_GPIO_Init+0xc4>)
 80006b8:	f043 0304 	orr.w	r3, r3, #4
 80006bc:	64d3      	str	r3, [r2, #76]	; 0x4c
 80006be:	4b28      	ldr	r3, [pc, #160]	; (8000760 <MX_GPIO_Init+0xc4>)
 80006c0:	6cdb      	ldr	r3, [r3, #76]	; 0x4c
 80006c2:	f003 0304 	and.w	r3, r3, #4
 80006c6:	613b      	str	r3, [r7, #16]
 80006c8:	693b      	ldr	r3, [r7, #16]
  __HAL_RCC_GPIOH_CLK_ENABLE();
 80006ca:	4b25      	ldr	r3, [pc, #148]	; (8000760 <MX_GPIO_Init+0xc4>)
 80006cc:	6cdb      	ldr	r3, [r3, #76]	; 0x4c
 80006ce:	4a24      	ldr	r2, [pc, #144]	; (8000760 <MX_GPIO_Init+0xc4>)
 80006d0:	f043 0380 	orr.w	r3, r3, #128	; 0x80
 80006d4:	64d3      	str	r3, [r2, #76]	; 0x4c
 80006d6:	4b22      	ldr	r3, [pc, #136]	; (8000760 <MX_GPIO_Init+0xc4>)
 80006d8:	6cdb      	ldr	r3, [r3, #76]	; 0x4c
 80006da:	f003 0380 	and.w	r3, r3, #128	; 0x80
 80006de:	60fb      	str	r3, [r7, #12]
 80006e0:	68fb      	ldr	r3, [r7, #12]
  __HAL_RCC_GPIOA_CLK_ENABLE();
 80006e2:	4b1f      	ldr	r3, [pc, #124]	; (8000760 <MX_GPIO_Init+0xc4>)
 80006e4:	6cdb      	ldr	r3, [r3, #76]	; 0x4c
 80006e6:	4a1e      	ldr	r2, [pc, #120]	; (8000760 <MX_GPIO_Init+0xc4>)
 80006e8:	f043 0301 	orr.w	r3, r3, #1
 80006ec:	64d3      	str	r3, [r2, #76]	; 0x4c
 80006ee:	4b1c      	ldr	r3, [pc, #112]	; (8000760 <MX_GPIO_Init+0xc4>)
 80006f0:	6cdb      	ldr	r3, [r3, #76]	; 0x4c
 80006f2:	f003 0301 	and.w	r3, r3, #1
 80006f6:	60bb      	str	r3, [r7, #8]
 80006f8:	68bb      	ldr	r3, [r7, #8]
  __HAL_RCC_GPIOB_CLK_ENABLE();
 80006fa:	4b19      	ldr	r3, [pc, #100]	; (8000760 <MX_GPIO_Init+0xc4>)
 80006fc:	6cdb      	ldr	r3, [r3, #76]	; 0x4c
 80006fe:	4a18      	ldr	r2, [pc, #96]	; (8000760 <MX_GPIO_Init+0xc4>)
 8000700:	f043 0302 	orr.w	r3, r3, #2
 8000704:	64d3      	str	r3, [r2, #76]	; 0x4c
 8000706:	4b16      	ldr	r3, [pc, #88]	; (8000760 <MX_GPIO_Init+0xc4>)
 8000708:	6cdb      	ldr	r3, [r3, #76]	; 0x4c
 800070a:	f003 0302 	and.w	r3, r3, #2
 800070e:	607b      	str	r3, [r7, #4]
 8000710:	687b      	ldr	r3, [r7, #4]

  /*Configure GPIO pin Output Level */
  HAL_GPIO_WritePin(LD2_GPIO_Port, LD2_Pin, GPIO_PIN_RESET);
 8000712:	2200      	movs	r2, #0
 8000714:	2120      	movs	r1, #32
 8000716:	f04f 4090 	mov.w	r0, #1207959552	; 0x48000000
 800071a:	f000 fd07 	bl	800112c <HAL_GPIO_WritePin>

  /*Configure GPIO pin : B1_Pin */
  GPIO_InitStruct.Pin = B1_Pin;
 800071e:	f44f 5300 	mov.w	r3, #8192	; 0x2000
 8000722:	617b      	str	r3, [r7, #20]
  GPIO_InitStruct.Mode = GPIO_MODE_IT_FALLING;
 8000724:	4b0f      	ldr	r3, [pc, #60]	; (8000764 <MX_GPIO_Init+0xc8>)
 8000726:	61bb      	str	r3, [r7, #24]
  GPIO_InitStruct.Pull = GPIO_NOPULL;
 8000728:	2300      	movs	r3, #0
 800072a:	61fb      	str	r3, [r7, #28]
  HAL_GPIO_Init(B1_GPIO_Port, &GPIO_InitStruct);
 800072c:	f107 0314 	add.w	r3, r7, #20
 8000730:	4619      	mov	r1, r3
 8000732:	480d      	ldr	r0, [pc, #52]	; (8000768 <MX_GPIO_Init+0xcc>)
 8000734:	f000 fb50 	bl	8000dd8 <HAL_GPIO_Init>

  /*Configure GPIO pin : LD2_Pin */
  GPIO_InitStruct.Pin = LD2_Pin;
 8000738:	2320      	movs	r3, #32
 800073a:	617b      	str	r3, [r7, #20]
  GPIO_InitStruct.Mode = GPIO_MODE_OUTPUT_PP;
 800073c:	2301      	movs	r3, #1
 800073e:	61bb      	str	r3, [r7, #24]
  GPIO_InitStruct.Pull = GPIO_NOPULL;
 8000740:	2300      	movs	r3, #0
 8000742:	61fb      	str	r3, [r7, #28]
  GPIO_InitStruct.Speed = GPIO_SPEED_FREQ_LOW;
 8000744:	2300      	movs	r3, #0
 8000746:	623b      	str	r3, [r7, #32]
  HAL_GPIO_Init(LD2_GPIO_Port, &GPIO_InitStruct);
 8000748:	f107 0314 	add.w	r3, r7, #20
 800074c:	4619      	mov	r1, r3
 800074e:	f04f 4090 	mov.w	r0, #1207959552	; 0x48000000
 8000752:	f000 fb41 	bl	8000dd8 <HAL_GPIO_Init>

}
 8000756:	bf00      	nop
 8000758:	3728      	adds	r7, #40	; 0x28
 800075a:	46bd      	mov	sp, r7
 800075c:	bd80      	pop	{r7, pc}
 800075e:	bf00      	nop
 8000760:	40021000 	.word	0x40021000
 8000764:	10210000 	.word	0x10210000
 8000768:	48000800 	.word	0x48000800

0800076c <HAL_TIM_PeriodElapsedCallback>:

/* USER CODE BEGIN 4 */

void HAL_TIM_PeriodElapsedCallback(TIM_HandleTypeDef *htim)
{
 800076c:	b580      	push	{r7, lr}
 800076e:	b084      	sub	sp, #16
 8000770:	af00      	add	r7, sp, #0
 8000772:	6078      	str	r0, [r7, #4]
	uint8_t data[] = "test \r\n";
 8000774:	4a0d      	ldr	r2, [pc, #52]	; (80007ac <HAL_TIM_PeriodElapsedCallback+0x40>)
 8000776:	f107 0308 	add.w	r3, r7, #8
 800077a:	e892 0003 	ldmia.w	r2, {r0, r1}
 800077e:	e883 0003 	stmia.w	r3, {r0, r1}
  // Check which version of the timer triggered this callback and toggle LED
  if (htim == &htim16 )
 8000782:	687b      	ldr	r3, [r7, #4]
 8000784:	4a0a      	ldr	r2, [pc, #40]	; (80007b0 <HAL_TIM_PeriodElapsedCallback+0x44>)
 8000786:	4293      	cmp	r3, r2
 8000788:	d10b      	bne.n	80007a2 <HAL_TIM_PeriodElapsedCallback+0x36>
  {
    HAL_GPIO_TogglePin(GPIOA, GPIO_PIN_5); //ijungt LED
 800078a:	2120      	movs	r1, #32
 800078c:	f04f 4090 	mov.w	r0, #1207959552	; 0x48000000
 8000790:	f000 fce4 	bl	800115c <HAL_GPIO_TogglePin>
    HAL_UART_Transmit (&huart2, data, sizeof (data), 10);
 8000794:	f107 0108 	add.w	r1, r7, #8
 8000798:	230a      	movs	r3, #10
 800079a:	2208      	movs	r2, #8
 800079c:	4805      	ldr	r0, [pc, #20]	; (80007b4 <HAL_TIM_PeriodElapsedCallback+0x48>)
 800079e:	f002 fb19 	bl	8002dd4 <HAL_UART_Transmit>
  }
}
 80007a2:	bf00      	nop
 80007a4:	3710      	adds	r7, #16
 80007a6:	46bd      	mov	sp, r7
 80007a8:	bd80      	pop	{r7, pc}
 80007aa:	bf00      	nop
 80007ac:	08003750 	.word	0x08003750
 80007b0:	20000130 	.word	0x20000130
 80007b4:	200000ac 	.word	0x200000ac

080007b8 <Error_Handler>:
/**
  * @brief  This function is executed in case of error occurrence.
  * @retval None
  */
void Error_Handler(void)
{
 80007b8:	b480      	push	{r7}
 80007ba:	af00      	add	r7, sp, #0
  \details Disables IRQ interrupts by setting the I-bit in the CPSR.
           Can only be executed in Privileged modes.
 */
__STATIC_FORCEINLINE void __disable_irq(void)
{
  __ASM volatile ("cpsid i" : : : "memory");
 80007bc:	b672      	cpsid	i
}
 80007be:	bf00      	nop
  /* USER CODE BEGIN Error_Handler_Debug */
  /* User can add his own implementation to report the HAL error return state */
  __disable_irq();
  while (1)
 80007c0:	e7fe      	b.n	80007c0 <Error_Handler+0x8>
	...

080007c4 <HAL_MspInit>:
/* USER CODE END 0 */
/**
  * Initializes the Global MSP.
  */
void HAL_MspInit(void)
{
 80007c4:	b480      	push	{r7}
 80007c6:	b083      	sub	sp, #12
 80007c8:	af00      	add	r7, sp, #0
  /* USER CODE BEGIN MspInit 0 */

  /* USER CODE END MspInit 0 */

  __HAL_RCC_SYSCFG_CLK_ENABLE();
 80007ca:	4b0f      	ldr	r3, [pc, #60]	; (8000808 <HAL_MspInit+0x44>)
 80007cc:	6e1b      	ldr	r3, [r3, #96]	; 0x60
 80007ce:	4a0e      	ldr	r2, [pc, #56]	; (8000808 <HAL_MspInit+0x44>)
 80007d0:	f043 0301 	orr.w	r3, r3, #1
 80007d4:	6613      	str	r3, [r2, #96]	; 0x60
 80007d6:	4b0c      	ldr	r3, [pc, #48]	; (8000808 <HAL_MspInit+0x44>)
 80007d8:	6e1b      	ldr	r3, [r3, #96]	; 0x60
 80007da:	f003 0301 	and.w	r3, r3, #1
 80007de:	607b      	str	r3, [r7, #4]
 80007e0:	687b      	ldr	r3, [r7, #4]
  __HAL_RCC_PWR_CLK_ENABLE();
 80007e2:	4b09      	ldr	r3, [pc, #36]	; (8000808 <HAL_MspInit+0x44>)
 80007e4:	6d9b      	ldr	r3, [r3, #88]	; 0x58
 80007e6:	4a08      	ldr	r2, [pc, #32]	; (8000808 <HAL_MspInit+0x44>)
 80007e8:	f043 5380 	orr.w	r3, r3, #268435456	; 0x10000000
 80007ec:	6593      	str	r3, [r2, #88]	; 0x58
 80007ee:	4b06      	ldr	r3, [pc, #24]	; (8000808 <HAL_MspInit+0x44>)
 80007f0:	6d9b      	ldr	r3, [r3, #88]	; 0x58
 80007f2:	f003 5380 	and.w	r3, r3, #268435456	; 0x10000000
 80007f6:	603b      	str	r3, [r7, #0]
 80007f8:	683b      	ldr	r3, [r7, #0]
  /* System interrupt init*/

  /* USER CODE BEGIN MspInit 1 */

  /* USER CODE END MspInit 1 */
}
 80007fa:	bf00      	nop
 80007fc:	370c      	adds	r7, #12
 80007fe:	46bd      	mov	sp, r7
 8000800:	f85d 7b04 	ldr.w	r7, [sp], #4
 8000804:	4770      	bx	lr
 8000806:	bf00      	nop
 8000808:	40021000 	.word	0x40021000

0800080c <HAL_TIM_Base_MspInit>:
* This function configures the hardware resources used in this example
* @param htim_base: TIM_Base handle pointer
* @retval None
*/
void HAL_TIM_Base_MspInit(TIM_HandleTypeDef* htim_base)
{
 800080c:	b580      	push	{r7, lr}
 800080e:	b084      	sub	sp, #16
 8000810:	af00      	add	r7, sp, #0
 8000812:	6078      	str	r0, [r7, #4]
  if(htim_base->Instance==TIM16)
 8000814:	687b      	ldr	r3, [r7, #4]
 8000816:	681b      	ldr	r3, [r3, #0]
 8000818:	4a0d      	ldr	r2, [pc, #52]	; (8000850 <HAL_TIM_Base_MspInit+0x44>)
 800081a:	4293      	cmp	r3, r2
 800081c:	d113      	bne.n	8000846 <HAL_TIM_Base_MspInit+0x3a>
  {
  /* USER CODE BEGIN TIM16_MspInit 0 */

  /* USER CODE END TIM16_MspInit 0 */
    /* Peripheral clock enable */
    __HAL_RCC_TIM16_CLK_ENABLE();
 800081e:	4b0d      	ldr	r3, [pc, #52]	; (8000854 <HAL_TIM_Base_MspInit+0x48>)
 8000820:	6e1b      	ldr	r3, [r3, #96]	; 0x60
 8000822:	4a0c      	ldr	r2, [pc, #48]	; (8000854 <HAL_TIM_Base_MspInit+0x48>)
 8000824:	f443 3300 	orr.w	r3, r3, #131072	; 0x20000
 8000828:	6613      	str	r3, [r2, #96]	; 0x60
 800082a:	4b0a      	ldr	r3, [pc, #40]	; (8000854 <HAL_TIM_Base_MspInit+0x48>)
 800082c:	6e1b      	ldr	r3, [r3, #96]	; 0x60
 800082e:	f403 3300 	and.w	r3, r3, #131072	; 0x20000
 8000832:	60fb      	str	r3, [r7, #12]
 8000834:	68fb      	ldr	r3, [r7, #12]
    /* TIM16 interrupt Init */
    HAL_NVIC_SetPriority(TIM1_UP_TIM16_IRQn, 0, 0);
 8000836:	2200      	movs	r2, #0
 8000838:	2100      	movs	r1, #0
 800083a:	2019      	movs	r0, #25
 800083c:	f000 fa95 	bl	8000d6a <HAL_NVIC_SetPriority>
    HAL_NVIC_EnableIRQ(TIM1_UP_TIM16_IRQn);
 8000840:	2019      	movs	r0, #25
 8000842:	f000 faae 	bl	8000da2 <HAL_NVIC_EnableIRQ>
  /* USER CODE BEGIN TIM16_MspInit 1 */

  /* USER CODE END TIM16_MspInit 1 */
  }

}
 8000846:	bf00      	nop
 8000848:	3710      	adds	r7, #16
 800084a:	46bd      	mov	sp, r7
 800084c:	bd80      	pop	{r7, pc}
 800084e:	bf00      	nop
 8000850:	40014400 	.word	0x40014400
 8000854:	40021000 	.word	0x40021000

08000858 <HAL_UART_MspInit>:
* This function configures the hardware resources used in this example
* @param huart: UART handle pointer
* @retval None
*/
void HAL_UART_MspInit(UART_HandleTypeDef* huart)
{
 8000858:	b580      	push	{r7, lr}
 800085a:	b0ae      	sub	sp, #184	; 0xb8
 800085c:	af00      	add	r7, sp, #0
 800085e:	6078      	str	r0, [r7, #4]
  GPIO_InitTypeDef GPIO_InitStruct = {0};
 8000860:	f107 03a4 	add.w	r3, r7, #164	; 0xa4
 8000864:	2200      	movs	r2, #0
 8000866:	601a      	str	r2, [r3, #0]
 8000868:	605a      	str	r2, [r3, #4]
 800086a:	609a      	str	r2, [r3, #8]
 800086c:	60da      	str	r2, [r3, #12]
 800086e:	611a      	str	r2, [r3, #16]
  RCC_PeriphCLKInitTypeDef PeriphClkInit = {0};
 8000870:	f107 031c 	add.w	r3, r7, #28
 8000874:	2288      	movs	r2, #136	; 0x88
 8000876:	2100      	movs	r1, #0
 8000878:	4618      	mov	r0, r3
 800087a:	f002 ff55 	bl	8003728 <memset>
  if(huart->Instance==USART1)
 800087e:	687b      	ldr	r3, [r7, #4]
 8000880:	681b      	ldr	r3, [r3, #0]
 8000882:	4a43      	ldr	r2, [pc, #268]	; (8000990 <HAL_UART_MspInit+0x138>)
 8000884:	4293      	cmp	r3, r2
 8000886:	d13d      	bne.n	8000904 <HAL_UART_MspInit+0xac>
  /* USER CODE BEGIN USART1_MspInit 0 */

  /* USER CODE END USART1_MspInit 0 */
  /** Initializes the peripherals clock
  */
    PeriphClkInit.PeriphClockSelection = RCC_PERIPHCLK_USART1;
 8000888:	2301      	movs	r3, #1
 800088a:	61fb      	str	r3, [r7, #28]
    PeriphClkInit.Usart1ClockSelection = RCC_USART1CLKSOURCE_PCLK2;
 800088c:	2300      	movs	r3, #0
 800088e:	657b      	str	r3, [r7, #84]	; 0x54
    if (HAL_RCCEx_PeriphCLKConfig(&PeriphClkInit) != HAL_OK)
 8000890:	f107 031c 	add.w	r3, r7, #28
 8000894:	4618      	mov	r0, r3
 8000896:	f001 facb 	bl	8001e30 <HAL_RCCEx_PeriphCLKConfig>
 800089a:	4603      	mov	r3, r0
 800089c:	2b00      	cmp	r3, #0
 800089e:	d001      	beq.n	80008a4 <HAL_UART_MspInit+0x4c>
    {
      Error_Handler();
 80008a0:	f7ff ff8a 	bl	80007b8 <Error_Handler>
    }

    /* Peripheral clock enable */
    __HAL_RCC_USART1_CLK_ENABLE();
 80008a4:	4b3b      	ldr	r3, [pc, #236]	; (8000994 <HAL_UART_MspInit+0x13c>)
 80008a6:	6e1b      	ldr	r3, [r3, #96]	; 0x60
 80008a8:	4a3a      	ldr	r2, [pc, #232]	; (8000994 <HAL_UART_MspInit+0x13c>)
 80008aa:	f443 4380 	orr.w	r3, r3, #16384	; 0x4000
 80008ae:	6613      	str	r3, [r2, #96]	; 0x60
 80008b0:	4b38      	ldr	r3, [pc, #224]	; (8000994 <HAL_UART_MspInit+0x13c>)
 80008b2:	6e1b      	ldr	r3, [r3, #96]	; 0x60
 80008b4:	f403 4380 	and.w	r3, r3, #16384	; 0x4000
 80008b8:	61bb      	str	r3, [r7, #24]
 80008ba:	69bb      	ldr	r3, [r7, #24]

    __HAL_RCC_GPIOA_CLK_ENABLE();
 80008bc:	4b35      	ldr	r3, [pc, #212]	; (8000994 <HAL_UART_MspInit+0x13c>)
 80008be:	6cdb      	ldr	r3, [r3, #76]	; 0x4c
 80008c0:	4a34      	ldr	r2, [pc, #208]	; (8000994 <HAL_UART_MspInit+0x13c>)
 80008c2:	f043 0301 	orr.w	r3, r3, #1
 80008c6:	64d3      	str	r3, [r2, #76]	; 0x4c
 80008c8:	4b32      	ldr	r3, [pc, #200]	; (8000994 <HAL_UART_MspInit+0x13c>)
 80008ca:	6cdb      	ldr	r3, [r3, #76]	; 0x4c
 80008cc:	f003 0301 	and.w	r3, r3, #1
 80008d0:	617b      	str	r3, [r7, #20]
 80008d2:	697b      	ldr	r3, [r7, #20]
    /**USART1 GPIO Configuration
    PA9     ------> USART1_TX
    PA10     ------> USART1_RX
    */
    GPIO_InitStruct.Pin = GPIO_PIN_9|GPIO_PIN_10;
 80008d4:	f44f 63c0 	mov.w	r3, #1536	; 0x600
 80008d8:	f8c7 30a4 	str.w	r3, [r7, #164]	; 0xa4
    GPIO_InitStruct.Mode = GPIO_MODE_AF_PP;
 80008dc:	2302      	movs	r3, #2
 80008de:	f8c7 30a8 	str.w	r3, [r7, #168]	; 0xa8
    GPIO_InitStruct.Pull = GPIO_NOPULL;
 80008e2:	2300      	movs	r3, #0
 80008e4:	f8c7 30ac 	str.w	r3, [r7, #172]	; 0xac
    GPIO_InitStruct.Speed = GPIO_SPEED_FREQ_VERY_HIGH;
 80008e8:	2303      	movs	r3, #3
 80008ea:	f8c7 30b0 	str.w	r3, [r7, #176]	; 0xb0
    GPIO_InitStruct.Alternate = GPIO_AF7_USART1;
 80008ee:	2307      	movs	r3, #7
 80008f0:	f8c7 30b4 	str.w	r3, [r7, #180]	; 0xb4
    HAL_GPIO_Init(GPIOA, &GPIO_InitStruct);
 80008f4:	f107 03a4 	add.w	r3, r7, #164	; 0xa4
 80008f8:	4619      	mov	r1, r3
 80008fa:	f04f 4090 	mov.w	r0, #1207959552	; 0x48000000
 80008fe:	f000 fa6b 	bl	8000dd8 <HAL_GPIO_Init>
  /* USER CODE BEGIN USART2_MspInit 1 */

  /* USER CODE END USART2_MspInit 1 */
  }

}
 8000902:	e040      	b.n	8000986 <HAL_UART_MspInit+0x12e>
  else if(huart->Instance==USART2)
 8000904:	687b      	ldr	r3, [r7, #4]
 8000906:	681b      	ldr	r3, [r3, #0]
 8000908:	4a23      	ldr	r2, [pc, #140]	; (8000998 <HAL_UART_MspInit+0x140>)
 800090a:	4293      	cmp	r3, r2
 800090c:	d13b      	bne.n	8000986 <HAL_UART_MspInit+0x12e>
    PeriphClkInit.PeriphClockSelection = RCC_PERIPHCLK_USART2;
 800090e:	2302      	movs	r3, #2
 8000910:	61fb      	str	r3, [r7, #28]
    PeriphClkInit.Usart2ClockSelection = RCC_USART2CLKSOURCE_PCLK1;
 8000912:	2300      	movs	r3, #0
 8000914:	65bb      	str	r3, [r7, #88]	; 0x58
    if (HAL_RCCEx_PeriphCLKConfig(&PeriphClkInit) != HAL_OK)
 8000916:	f107 031c 	add.w	r3, r7, #28
 800091a:	4618      	mov	r0, r3
 800091c:	f001 fa88 	bl	8001e30 <HAL_RCCEx_PeriphCLKConfig>
 8000920:	4603      	mov	r3, r0
 8000922:	2b00      	cmp	r3, #0
 8000924:	d001      	beq.n	800092a <HAL_UART_MspInit+0xd2>
      Error_Handler();
 8000926:	f7ff ff47 	bl	80007b8 <Error_Handler>
    __HAL_RCC_USART2_CLK_ENABLE();
 800092a:	4b1a      	ldr	r3, [pc, #104]	; (8000994 <HAL_UART_MspInit+0x13c>)
 800092c:	6d9b      	ldr	r3, [r3, #88]	; 0x58
 800092e:	4a19      	ldr	r2, [pc, #100]	; (8000994 <HAL_UART_MspInit+0x13c>)
 8000930:	f443 3300 	orr.w	r3, r3, #131072	; 0x20000
 8000934:	6593      	str	r3, [r2, #88]	; 0x58
 8000936:	4b17      	ldr	r3, [pc, #92]	; (8000994 <HAL_UART_MspInit+0x13c>)
 8000938:	6d9b      	ldr	r3, [r3, #88]	; 0x58
 800093a:	f403 3300 	and.w	r3, r3, #131072	; 0x20000
 800093e:	613b      	str	r3, [r7, #16]
 8000940:	693b      	ldr	r3, [r7, #16]
    __HAL_RCC_GPIOA_CLK_ENABLE();
 8000942:	4b14      	ldr	r3, [pc, #80]	; (8000994 <HAL_UART_MspInit+0x13c>)
 8000944:	6cdb      	ldr	r3, [r3, #76]	; 0x4c
 8000946:	4a13      	ldr	r2, [pc, #76]	; (8000994 <HAL_UART_MspInit+0x13c>)
 8000948:	f043 0301 	orr.w	r3, r3, #1
 800094c:	64d3      	str	r3, [r2, #76]	; 0x4c
 800094e:	4b11      	ldr	r3, [pc, #68]	; (8000994 <HAL_UART_MspInit+0x13c>)
 8000950:	6cdb      	ldr	r3, [r3, #76]	; 0x4c
 8000952:	f003 0301 	and.w	r3, r3, #1
 8000956:	60fb      	str	r3, [r7, #12]
 8000958:	68fb      	ldr	r3, [r7, #12]
    GPIO_InitStruct.Pin = USART_TX_Pin|USART_RX_Pin;
 800095a:	230c      	movs	r3, #12
 800095c:	f8c7 30a4 	str.w	r3, [r7, #164]	; 0xa4
    GPIO_InitStruct.Mode = GPIO_MODE_AF_PP;
 8000960:	2302      	movs	r3, #2
 8000962:	f8c7 30a8 	str.w	r3, [r7, #168]	; 0xa8
    GPIO_InitStruct.Pull = GPIO_NOPULL;
 8000966:	2300      	movs	r3, #0
 8000968:	f8c7 30ac 	str.w	r3, [r7, #172]	; 0xac
    GPIO_InitStruct.Speed = GPIO_SPEED_FREQ_VERY_HIGH;
 800096c:	2303      	movs	r3, #3
 800096e:	f8c7 30b0 	str.w	r3, [r7, #176]	; 0xb0
    GPIO_InitStruct.Alternate = GPIO_AF7_USART2;
 8000972:	2307      	movs	r3, #7
 8000974:	f8c7 30b4 	str.w	r3, [r7, #180]	; 0xb4
    HAL_GPIO_Init(GPIOA, &GPIO_InitStruct);
 8000978:	f107 03a4 	add.w	r3, r7, #164	; 0xa4
 800097c:	4619      	mov	r1, r3
 800097e:	f04f 4090 	mov.w	r0, #1207959552	; 0x48000000
 8000982:	f000 fa29 	bl	8000dd8 <HAL_GPIO_Init>
}
 8000986:	bf00      	nop
 8000988:	37b8      	adds	r7, #184	; 0xb8
 800098a:	46bd      	mov	sp, r7
 800098c:	bd80      	pop	{r7, pc}
 800098e:	bf00      	nop
 8000990:	40013800 	.word	0x40013800
 8000994:	40021000 	.word	0x40021000
 8000998:	40004400 	.word	0x40004400

0800099c <NMI_Handler>:
/******************************************************************************/
/**
  * @brief This function handles Non maskable interrupt.
  */
void NMI_Handler(void)
{
 800099c:	b480      	push	{r7}
 800099e:	af00      	add	r7, sp, #0
  /* USER CODE BEGIN NonMaskableInt_IRQn 0 */

  /* USER CODE END NonMaskableInt_IRQn 0 */
  /* USER CODE BEGIN NonMaskableInt_IRQn 1 */
  while (1)
 80009a0:	e7fe      	b.n	80009a0 <NMI_Handler+0x4>

080009a2 <HardFault_Handler>:

/**
  * @brief This function handles Hard fault interrupt.
  */
void HardFault_Handler(void)
{
 80009a2:	b480      	push	{r7}
 80009a4:	af00      	add	r7, sp, #0
  /* USER CODE BEGIN HardFault_IRQn 0 */

  /* USER CODE END HardFault_IRQn 0 */
  while (1)
 80009a6:	e7fe      	b.n	80009a6 <HardFault_Handler+0x4>

080009a8 <MemManage_Handler>:

/**
  * @brief This function handles Memory management fault.
  */
void MemManage_Handler(void)
{
 80009a8:	b480      	push	{r7}
 80009aa:	af00      	add	r7, sp, #0
  /* USER CODE BEGIN MemoryManagement_IRQn 0 */

  /* USER CODE END MemoryManagement_IRQn 0 */
  while (1)
 80009ac:	e7fe      	b.n	80009ac <MemManage_Handler+0x4>

080009ae <BusFault_Handler>:

/**
  * @brief This function handles Prefetch fault, memory access fault.
  */
void BusFault_Handler(void)
{
 80009ae:	b480      	push	{r7}
 80009b0:	af00      	add	r7, sp, #0
  /* USER CODE BEGIN BusFault_IRQn 0 */

  /* USER CODE END BusFault_IRQn 0 */
  while (1)
 80009b2:	e7fe      	b.n	80009b2 <BusFault_Handler+0x4>

080009b4 <UsageFault_Handler>:

/**
  * @brief This function handles Undefined instruction or illegal state.
  */
void UsageFault_Handler(void)
{
 80009b4:	b480      	push	{r7}
 80009b6:	af00      	add	r7, sp, #0
  /* USER CODE BEGIN UsageFault_IRQn 0 */

  /* USER CODE END UsageFault_IRQn 0 */
  while (1)
 80009b8:	e7fe      	b.n	80009b8 <UsageFault_Handler+0x4>

080009ba <SVC_Handler>:

/**
  * @brief This function handles System service call via SWI instruction.
  */
void SVC_Handler(void)
{
 80009ba:	b480      	push	{r7}
 80009bc:	af00      	add	r7, sp, #0

  /* USER CODE END SVCall_IRQn 0 */
  /* USER CODE BEGIN SVCall_IRQn 1 */

  /* USER CODE END SVCall_IRQn 1 */
}
 80009be:	bf00      	nop
 80009c0:	46bd      	mov	sp, r7
 80009c2:	f85d 7b04 	ldr.w	r7, [sp], #4
 80009c6:	4770      	bx	lr

080009c8 <DebugMon_Handler>:

/**
  * @brief This function handles Debug monitor.
  */
void DebugMon_Handler(void)
{
 80009c8:	b480      	push	{r7}
 80009ca:	af00      	add	r7, sp, #0

  /* USER CODE END DebugMonitor_IRQn 0 */
  /* USER CODE BEGIN DebugMonitor_IRQn 1 */

  /* USER CODE END DebugMonitor_IRQn 1 */
}
 80009cc:	bf00      	nop
 80009ce:	46bd      	mov	sp, r7
 80009d0:	f85d 7b04 	ldr.w	r7, [sp], #4
 80009d4:	4770      	bx	lr

080009d6 <PendSV_Handler>:

/**
  * @brief This function handles Pendable request for system service.
  */
void PendSV_Handler(void)
{
 80009d6:	b480      	push	{r7}
 80009d8:	af00      	add	r7, sp, #0

  /* USER CODE END PendSV_IRQn 0 */
  /* USER CODE BEGIN PendSV_IRQn 1 */

  /* USER CODE END PendSV_IRQn 1 */
}
 80009da:	bf00      	nop
 80009dc:	46bd      	mov	sp, r7
 80009de:	f85d 7b04 	ldr.w	r7, [sp], #4
 80009e2:	4770      	bx	lr

080009e4 <SysTick_Handler>:

/**
  * @brief This function handles System tick timer.
  */
void SysTick_Handler(void)
{
 80009e4:	b580      	push	{r7, lr}
 80009e6:	af00      	add	r7, sp, #0
  /* USER CODE BEGIN SysTick_IRQn 0 */

  /* USER CODE END SysTick_IRQn 0 */
  HAL_IncTick();
 80009e8:	f000 f8c4 	bl	8000b74 <HAL_IncTick>
  /* USER CODE BEGIN SysTick_IRQn 1 */

  /* USER CODE END SysTick_IRQn 1 */
}
 80009ec:	bf00      	nop
 80009ee:	bd80      	pop	{r7, pc}

080009f0 <TIM1_UP_TIM16_IRQHandler>:

/**
  * @brief This function handles TIM1 update interrupt and TIM16 global interrupt.
  */
void TIM1_UP_TIM16_IRQHandler(void)
{
 80009f0:	b580      	push	{r7, lr}
 80009f2:	af00      	add	r7, sp, #0
  /* USER CODE BEGIN TIM1_UP_TIM16_IRQn 0 */

  /* USER CODE END TIM1_UP_TIM16_IRQn 0 */
  HAL_TIM_IRQHandler(&htim16);
 80009f4:	4802      	ldr	r0, [pc, #8]	; (8000a00 <TIM1_UP_TIM16_IRQHandler+0x10>)
 80009f6:	f001 ff9f 	bl	8002938 <HAL_TIM_IRQHandler>
  /* USER CODE BEGIN TIM1_UP_TIM16_IRQn 1 */

  /* USER CODE END TIM1_UP_TIM16_IRQn 1 */
}
 80009fa:	bf00      	nop
 80009fc:	bd80      	pop	{r7, pc}
 80009fe:	bf00      	nop
 8000a00:	20000130 	.word	0x20000130

08000a04 <SystemInit>:
  * @brief  Setup the microcontroller system.
  * @retval None
  */

void SystemInit(void)
{
 8000a04:	b480      	push	{r7}
 8000a06:	af00      	add	r7, sp, #0
  SCB->VTOR = VECT_TAB_BASE_ADDRESS | VECT_TAB_OFFSET;
#endif

  /* FPU settings ------------------------------------------------------------*/
#if (__FPU_PRESENT == 1) && (__FPU_USED == 1)
  SCB->CPACR |= ((3UL << 20U)|(3UL << 22U));  /* set CP10 and CP11 Full Access */
 8000a08:	4b15      	ldr	r3, [pc, #84]	; (8000a60 <SystemInit+0x5c>)
 8000a0a:	f8d3 3088 	ldr.w	r3, [r3, #136]	; 0x88
 8000a0e:	4a14      	ldr	r2, [pc, #80]	; (8000a60 <SystemInit+0x5c>)
 8000a10:	f443 0370 	orr.w	r3, r3, #15728640	; 0xf00000
 8000a14:	f8c2 3088 	str.w	r3, [r2, #136]	; 0x88
#endif

  /* Reset the RCC clock configuration to the default reset state ------------*/
  /* Set MSION bit */
  RCC->CR |= RCC_CR_MSION;
 8000a18:	4b12      	ldr	r3, [pc, #72]	; (8000a64 <SystemInit+0x60>)
 8000a1a:	681b      	ldr	r3, [r3, #0]
 8000a1c:	4a11      	ldr	r2, [pc, #68]	; (8000a64 <SystemInit+0x60>)
 8000a1e:	f043 0301 	orr.w	r3, r3, #1
 8000a22:	6013      	str	r3, [r2, #0]

  /* Reset CFGR register */
  RCC->CFGR = 0x00000000U;
 8000a24:	4b0f      	ldr	r3, [pc, #60]	; (8000a64 <SystemInit+0x60>)
 8000a26:	2200      	movs	r2, #0
 8000a28:	609a      	str	r2, [r3, #8]

  /* Reset HSEON, CSSON , HSION, and PLLON bits */
  RCC->CR &= 0xEAF6FFFFU;
 8000a2a:	4b0e      	ldr	r3, [pc, #56]	; (8000a64 <SystemInit+0x60>)
 8000a2c:	681b      	ldr	r3, [r3, #0]
 8000a2e:	4a0d      	ldr	r2, [pc, #52]	; (8000a64 <SystemInit+0x60>)
 8000a30:	f023 53a8 	bic.w	r3, r3, #352321536	; 0x15000000
 8000a34:	f423 2310 	bic.w	r3, r3, #589824	; 0x90000
 8000a38:	6013      	str	r3, [r2, #0]

  /* Reset PLLCFGR register */
  RCC->PLLCFGR = 0x00001000U;
 8000a3a:	4b0a      	ldr	r3, [pc, #40]	; (8000a64 <SystemInit+0x60>)
 8000a3c:	f44f 5280 	mov.w	r2, #4096	; 0x1000
 8000a40:	60da      	str	r2, [r3, #12]

  /* Reset HSEBYP bit */
  RCC->CR &= 0xFFFBFFFFU;
 8000a42:	4b08      	ldr	r3, [pc, #32]	; (8000a64 <SystemInit+0x60>)
 8000a44:	681b      	ldr	r3, [r3, #0]
 8000a46:	4a07      	ldr	r2, [pc, #28]	; (8000a64 <SystemInit+0x60>)
 8000a48:	f423 2380 	bic.w	r3, r3, #262144	; 0x40000
 8000a4c:	6013      	str	r3, [r2, #0]

  /* Disable all interrupts */
  RCC->CIER = 0x00000000U;
 8000a4e:	4b05      	ldr	r3, [pc, #20]	; (8000a64 <SystemInit+0x60>)
 8000a50:	2200      	movs	r2, #0
 8000a52:	619a      	str	r2, [r3, #24]
}
 8000a54:	bf00      	nop
 8000a56:	46bd      	mov	sp, r7
 8000a58:	f85d 7b04 	ldr.w	r7, [sp], #4
 8000a5c:	4770      	bx	lr
 8000a5e:	bf00      	nop
 8000a60:	e000ed00 	.word	0xe000ed00
 8000a64:	40021000 	.word	0x40021000

08000a68 <Reset_Handler>:

    .section	.text.Reset_Handler
	.weak	Reset_Handler
	.type	Reset_Handler, %function
Reset_Handler:
  ldr   sp, =_estack    /* Set stack pointer */
 8000a68:	f8df d034 	ldr.w	sp, [pc, #52]	; 8000aa0 <LoopForever+0x2>

/* Call the clock system initialization function.*/
    bl  SystemInit
 8000a6c:	f7ff ffca 	bl	8000a04 <SystemInit>

/* Copy the data segment initializers from flash to SRAM */
  movs	r1, #0
 8000a70:	2100      	movs	r1, #0
  b	LoopCopyDataInit
 8000a72:	e003      	b.n	8000a7c <LoopCopyDataInit>

08000a74 <CopyDataInit>:

CopyDataInit:
	ldr	r3, =_sidata
 8000a74:	4b0b      	ldr	r3, [pc, #44]	; (8000aa4 <LoopForever+0x6>)
	ldr	r3, [r3, r1]
 8000a76:	585b      	ldr	r3, [r3, r1]
	str	r3, [r0, r1]
 8000a78:	5043      	str	r3, [r0, r1]
	adds	r1, r1, #4
 8000a7a:	3104      	adds	r1, #4

08000a7c <LoopCopyDataInit>:

LoopCopyDataInit:
	ldr	r0, =_sdata
 8000a7c:	480a      	ldr	r0, [pc, #40]	; (8000aa8 <LoopForever+0xa>)
	ldr	r3, =_edata
 8000a7e:	4b0b      	ldr	r3, [pc, #44]	; (8000aac <LoopForever+0xe>)
	adds	r2, r0, r1
 8000a80:	1842      	adds	r2, r0, r1
	cmp	r2, r3
 8000a82:	429a      	cmp	r2, r3
	bcc	CopyDataInit
 8000a84:	d3f6      	bcc.n	8000a74 <CopyDataInit>
	ldr	r2, =_sbss
 8000a86:	4a0a      	ldr	r2, [pc, #40]	; (8000ab0 <LoopForever+0x12>)
	b	LoopFillZerobss
 8000a88:	e002      	b.n	8000a90 <LoopFillZerobss>

08000a8a <FillZerobss>:
/* Zero fill the bss segment. */
FillZerobss:
	movs	r3, #0
 8000a8a:	2300      	movs	r3, #0
	str	r3, [r2], #4
 8000a8c:	f842 3b04 	str.w	r3, [r2], #4

08000a90 <LoopFillZerobss>:

LoopFillZerobss:
	ldr	r3, = _ebss
 8000a90:	4b08      	ldr	r3, [pc, #32]	; (8000ab4 <LoopForever+0x16>)
	cmp	r2, r3
 8000a92:	429a      	cmp	r2, r3
	bcc	FillZerobss
 8000a94:	d3f9      	bcc.n	8000a8a <FillZerobss>

/* Call static constructors */
    bl __libc_init_array
 8000a96:	f002 fe23 	bl	80036e0 <__libc_init_array>
/* Call the application's entry point.*/
	bl	main
 8000a9a:	f7ff fd11 	bl	80004c0 <main>

08000a9e <LoopForever>:

LoopForever:
    b LoopForever
 8000a9e:	e7fe      	b.n	8000a9e <LoopForever>
  ldr   sp, =_estack    /* Set stack pointer */
 8000aa0:	20018000 	.word	0x20018000
	ldr	r3, =_sidata
 8000aa4:	080037b0 	.word	0x080037b0
	ldr	r0, =_sdata
 8000aa8:	20000000 	.word	0x20000000
	ldr	r3, =_edata
 8000aac:	2000000c 	.word	0x2000000c
	ldr	r2, =_sbss
 8000ab0:	2000000c 	.word	0x2000000c
	ldr	r3, = _ebss
 8000ab4:	20000180 	.word	0x20000180

08000ab8 <ADC1_2_IRQHandler>:
 * @retval : None
*/
    .section	.text.Default_Handler,"ax",%progbits
Default_Handler:
Infinite_Loop:
	b	Infinite_Loop
 8000ab8:	e7fe      	b.n	8000ab8 <ADC1_2_IRQHandler>
	...

08000abc <HAL_Init>:
  *         each 1ms in the SysTick_Handler() interrupt handler.
  *
  * @retval HAL status
  */
HAL_StatusTypeDef HAL_Init(void)
{
 8000abc:	b580      	push	{r7, lr}
 8000abe:	b082      	sub	sp, #8
 8000ac0:	af00      	add	r7, sp, #0
  HAL_StatusTypeDef  status = HAL_OK;
 8000ac2:	2300      	movs	r3, #0
 8000ac4:	71fb      	strb	r3, [r7, #7]
#if (DATA_CACHE_ENABLE == 0)
   __HAL_FLASH_DATA_CACHE_DISABLE();
#endif /* DATA_CACHE_ENABLE */

#if (PREFETCH_ENABLE != 0)
  __HAL_FLASH_PREFETCH_BUFFER_ENABLE();
 8000ac6:	4b0c      	ldr	r3, [pc, #48]	; (8000af8 <HAL_Init+0x3c>)
 8000ac8:	681b      	ldr	r3, [r3, #0]
 8000aca:	4a0b      	ldr	r2, [pc, #44]	; (8000af8 <HAL_Init+0x3c>)
 8000acc:	f443 7380 	orr.w	r3, r3, #256	; 0x100
 8000ad0:	6013      	str	r3, [r2, #0]
#endif /* PREFETCH_ENABLE */

  /* Set Interrupt Group Priority */
  HAL_NVIC_SetPriorityGrouping(NVIC_PRIORITYGROUP_4);
 8000ad2:	2003      	movs	r0, #3
 8000ad4:	f000 f93e 	bl	8000d54 <HAL_NVIC_SetPriorityGrouping>

  /* Use SysTick as time base source and configure 1ms tick (default clock after Reset is MSI) */
  if (HAL_InitTick(TICK_INT_PRIORITY) != HAL_OK)
 8000ad8:	2000      	movs	r0, #0
 8000ada:	f000 f80f 	bl	8000afc <HAL_InitTick>
 8000ade:	4603      	mov	r3, r0
 8000ae0:	2b00      	cmp	r3, #0
 8000ae2:	d002      	beq.n	8000aea <HAL_Init+0x2e>
  {
    status = HAL_ERROR;
 8000ae4:	2301      	movs	r3, #1
 8000ae6:	71fb      	strb	r3, [r7, #7]
 8000ae8:	e001      	b.n	8000aee <HAL_Init+0x32>
  }
  else
  {
    /* Init the low level hardware */
    HAL_MspInit();
 8000aea:	f7ff fe6b 	bl	80007c4 <HAL_MspInit>
  }

  /* Return function status */
  return status;
 8000aee:	79fb      	ldrb	r3, [r7, #7]
}
 8000af0:	4618      	mov	r0, r3
 8000af2:	3708      	adds	r7, #8
 8000af4:	46bd      	mov	sp, r7
 8000af6:	bd80      	pop	{r7, pc}
 8000af8:	40022000 	.word	0x40022000

08000afc <HAL_InitTick>:
  *       implementation  in user file.
  * @param TickPriority  Tick interrupt priority.
  * @retval HAL status
  */
__weak HAL_StatusTypeDef HAL_InitTick(uint32_t TickPriority)
{
 8000afc:	b580      	push	{r7, lr}
 8000afe:	b084      	sub	sp, #16
 8000b00:	af00      	add	r7, sp, #0
 8000b02:	6078      	str	r0, [r7, #4]
  HAL_StatusTypeDef  status = HAL_OK;
 8000b04:	2300      	movs	r3, #0
 8000b06:	73fb      	strb	r3, [r7, #15]

  /* Check uwTickFreq for MisraC 2012 (even if uwTickFreq is a enum type that doesn't take the value zero)*/
  if ((uint32_t)uwTickFreq != 0U)
 8000b08:	4b17      	ldr	r3, [pc, #92]	; (8000b68 <HAL_InitTick+0x6c>)
 8000b0a:	781b      	ldrb	r3, [r3, #0]
 8000b0c:	2b00      	cmp	r3, #0
 8000b0e:	d023      	beq.n	8000b58 <HAL_InitTick+0x5c>
  {
    /*Configure the SysTick to have interrupt in 1ms time basis*/
    if (HAL_SYSTICK_Config(SystemCoreClock / (1000U / (uint32_t)uwTickFreq)) == 0U)
 8000b10:	4b16      	ldr	r3, [pc, #88]	; (8000b6c <HAL_InitTick+0x70>)
 8000b12:	681a      	ldr	r2, [r3, #0]
 8000b14:	4b14      	ldr	r3, [pc, #80]	; (8000b68 <HAL_InitTick+0x6c>)
 8000b16:	781b      	ldrb	r3, [r3, #0]
 8000b18:	4619      	mov	r1, r3
 8000b1a:	f44f 737a 	mov.w	r3, #1000	; 0x3e8
 8000b1e:	fbb3 f3f1 	udiv	r3, r3, r1
 8000b22:	fbb2 f3f3 	udiv	r3, r2, r3
 8000b26:	4618      	mov	r0, r3
 8000b28:	f000 f949 	bl	8000dbe <HAL_SYSTICK_Config>
 8000b2c:	4603      	mov	r3, r0
 8000b2e:	2b00      	cmp	r3, #0
 8000b30:	d10f      	bne.n	8000b52 <HAL_InitTick+0x56>
    {
      /* Configure the SysTick IRQ priority */
      if (TickPriority < (1UL << __NVIC_PRIO_BITS))
 8000b32:	687b      	ldr	r3, [r7, #4]
 8000b34:	2b0f      	cmp	r3, #15
 8000b36:	d809      	bhi.n	8000b4c <HAL_InitTick+0x50>
      {
        HAL_NVIC_SetPriority(SysTick_IRQn, TickPriority, 0U);
 8000b38:	2200      	movs	r2, #0
 8000b3a:	6879      	ldr	r1, [r7, #4]
 8000b3c:	f04f 30ff 	mov.w	r0, #4294967295
 8000b40:	f000 f913 	bl	8000d6a <HAL_NVIC_SetPriority>
        uwTickPrio = TickPriority;
 8000b44:	4a0a      	ldr	r2, [pc, #40]	; (8000b70 <HAL_InitTick+0x74>)
 8000b46:	687b      	ldr	r3, [r7, #4]
 8000b48:	6013      	str	r3, [r2, #0]
 8000b4a:	e007      	b.n	8000b5c <HAL_InitTick+0x60>
      }
      else
      {
        status = HAL_ERROR;
 8000b4c:	2301      	movs	r3, #1
 8000b4e:	73fb      	strb	r3, [r7, #15]
 8000b50:	e004      	b.n	8000b5c <HAL_InitTick+0x60>
      }
    }
    else
    {
      status = HAL_ERROR;
 8000b52:	2301      	movs	r3, #1
 8000b54:	73fb      	strb	r3, [r7, #15]
 8000b56:	e001      	b.n	8000b5c <HAL_InitTick+0x60>
    }
  }
  else
  {
    status = HAL_ERROR;
 8000b58:	2301      	movs	r3, #1
 8000b5a:	73fb      	strb	r3, [r7, #15]
  }

  /* Return function status */
  return status;
 8000b5c:	7bfb      	ldrb	r3, [r7, #15]
}
 8000b5e:	4618      	mov	r0, r3
 8000b60:	3710      	adds	r7, #16
 8000b62:	46bd      	mov	sp, r7
 8000b64:	bd80      	pop	{r7, pc}
 8000b66:	bf00      	nop
 8000b68:	20000008 	.word	0x20000008
 8000b6c:	20000000 	.word	0x20000000
 8000b70:	20000004 	.word	0x20000004

08000b74 <HAL_IncTick>:
 * @note This function is declared as __weak to be overwritten in case of other
  *      implementations in user file.
  * @retval None
  */
__weak void HAL_IncTick(void)
{
 8000b74:	b480      	push	{r7}
 8000b76:	af00      	add	r7, sp, #0
  uwTick += (uint32_t)uwTickFreq;
 8000b78:	4b06      	ldr	r3, [pc, #24]	; (8000b94 <HAL_IncTick+0x20>)
 8000b7a:	781b      	ldrb	r3, [r3, #0]
 8000b7c:	461a      	mov	r2, r3
 8000b7e:	4b06      	ldr	r3, [pc, #24]	; (8000b98 <HAL_IncTick+0x24>)
 8000b80:	681b      	ldr	r3, [r3, #0]
 8000b82:	4413      	add	r3, r2
 8000b84:	4a04      	ldr	r2, [pc, #16]	; (8000b98 <HAL_IncTick+0x24>)
 8000b86:	6013      	str	r3, [r2, #0]
}
 8000b88:	bf00      	nop
 8000b8a:	46bd      	mov	sp, r7
 8000b8c:	f85d 7b04 	ldr.w	r7, [sp], #4
 8000b90:	4770      	bx	lr
 8000b92:	bf00      	nop
 8000b94:	20000008 	.word	0x20000008
 8000b98:	2000017c 	.word	0x2000017c

08000b9c <HAL_GetTick>:
  * @note This function is declared as __weak to be overwritten in case of other
  *       implementations in user file.
  * @retval tick value
  */
__weak uint32_t HAL_GetTick(void)
{
 8000b9c:	b480      	push	{r7}
 8000b9e:	af00      	add	r7, sp, #0
  return uwTick;
 8000ba0:	4b03      	ldr	r3, [pc, #12]	; (8000bb0 <HAL_GetTick+0x14>)
 8000ba2:	681b      	ldr	r3, [r3, #0]
}
 8000ba4:	4618      	mov	r0, r3
 8000ba6:	46bd      	mov	sp, r7
 8000ba8:	f85d 7b04 	ldr.w	r7, [sp], #4
 8000bac:	4770      	bx	lr
 8000bae:	bf00      	nop
 8000bb0:	2000017c 	.word	0x2000017c

08000bb4 <__NVIC_SetPriorityGrouping>:
           In case of a conflict between priority grouping and available
           priority bits (__NVIC_PRIO_BITS), the smallest possible priority group is set.
  \param [in]      PriorityGroup  Priority grouping field.
 */
__STATIC_INLINE void __NVIC_SetPriorityGrouping(uint32_t PriorityGroup)
{
 8000bb4:	b480      	push	{r7}
 8000bb6:	b085      	sub	sp, #20
 8000bb8:	af00      	add	r7, sp, #0
 8000bba:	6078      	str	r0, [r7, #4]
  uint32_t reg_value;
  uint32_t PriorityGroupTmp = (PriorityGroup & (uint32_t)0x07UL);             /* only values 0..7 are used          */
 8000bbc:	687b      	ldr	r3, [r7, #4]
 8000bbe:	f003 0307 	and.w	r3, r3, #7
 8000bc2:	60fb      	str	r3, [r7, #12]

  reg_value  =  SCB->AIRCR;                                                   /* read old register configuration    */
 8000bc4:	4b0c      	ldr	r3, [pc, #48]	; (8000bf8 <__NVIC_SetPriorityGrouping+0x44>)
 8000bc6:	68db      	ldr	r3, [r3, #12]
 8000bc8:	60bb      	str	r3, [r7, #8]
  reg_value &= ~((uint32_t)(SCB_AIRCR_VECTKEY_Msk | SCB_AIRCR_PRIGROUP_Msk)); /* clear bits to change               */
 8000bca:	68ba      	ldr	r2, [r7, #8]
 8000bcc:	f64f 03ff 	movw	r3, #63743	; 0xf8ff
 8000bd0:	4013      	ands	r3, r2
 8000bd2:	60bb      	str	r3, [r7, #8]
  reg_value  =  (reg_value                                   |
                ((uint32_t)0x5FAUL << SCB_AIRCR_VECTKEY_Pos) |
                (PriorityGroupTmp << SCB_AIRCR_PRIGROUP_Pos)  );              /* Insert write key and priority group */
 8000bd4:	68fb      	ldr	r3, [r7, #12]
 8000bd6:	021a      	lsls	r2, r3, #8
                ((uint32_t)0x5FAUL << SCB_AIRCR_VECTKEY_Pos) |
 8000bd8:	68bb      	ldr	r3, [r7, #8]
 8000bda:	4313      	orrs	r3, r2
  reg_value  =  (reg_value                                   |
 8000bdc:	f043 63bf 	orr.w	r3, r3, #100139008	; 0x5f80000
 8000be0:	f443 3300 	orr.w	r3, r3, #131072	; 0x20000
 8000be4:	60bb      	str	r3, [r7, #8]
  SCB->AIRCR =  reg_value;
 8000be6:	4a04      	ldr	r2, [pc, #16]	; (8000bf8 <__NVIC_SetPriorityGrouping+0x44>)
 8000be8:	68bb      	ldr	r3, [r7, #8]
 8000bea:	60d3      	str	r3, [r2, #12]
}
 8000bec:	bf00      	nop
 8000bee:	3714      	adds	r7, #20
 8000bf0:	46bd      	mov	sp, r7
 8000bf2:	f85d 7b04 	ldr.w	r7, [sp], #4
 8000bf6:	4770      	bx	lr
 8000bf8:	e000ed00 	.word	0xe000ed00

08000bfc <__NVIC_GetPriorityGrouping>:
  \brief   Get Priority Grouping
  \details Reads the priority grouping field from the NVIC Interrupt Controller.
  \return                Priority grouping field (SCB->AIRCR [10:8] PRIGROUP field).
 */
__STATIC_INLINE uint32_t __NVIC_GetPriorityGrouping(void)
{
 8000bfc:	b480      	push	{r7}
 8000bfe:	af00      	add	r7, sp, #0
  return ((uint32_t)((SCB->AIRCR & SCB_AIRCR_PRIGROUP_Msk) >> SCB_AIRCR_PRIGROUP_Pos));
 8000c00:	4b04      	ldr	r3, [pc, #16]	; (8000c14 <__NVIC_GetPriorityGrouping+0x18>)
 8000c02:	68db      	ldr	r3, [r3, #12]
 8000c04:	0a1b      	lsrs	r3, r3, #8
 8000c06:	f003 0307 	and.w	r3, r3, #7
}
 8000c0a:	4618      	mov	r0, r3
 8000c0c:	46bd      	mov	sp, r7
 8000c0e:	f85d 7b04 	ldr.w	r7, [sp], #4
 8000c12:	4770      	bx	lr
 8000c14:	e000ed00 	.word	0xe000ed00

08000c18 <__NVIC_EnableIRQ>:
  \details Enables a device specific interrupt in the NVIC interrupt controller.
  \param [in]      IRQn  Device specific interrupt number.
  \note    IRQn must not be negative.
 */
__STATIC_INLINE void __NVIC_EnableIRQ(IRQn_Type IRQn)
{
 8000c18:	b480      	push	{r7}
 8000c1a:	b083      	sub	sp, #12
 8000c1c:	af00      	add	r7, sp, #0
 8000c1e:	4603      	mov	r3, r0
 8000c20:	71fb      	strb	r3, [r7, #7]
  if ((int32_t)(IRQn) >= 0)
 8000c22:	f997 3007 	ldrsb.w	r3, [r7, #7]
 8000c26:	2b00      	cmp	r3, #0
 8000c28:	db0b      	blt.n	8000c42 <__NVIC_EnableIRQ+0x2a>
  {
    __COMPILER_BARRIER();
    NVIC->ISER[(((uint32_t)IRQn) >> 5UL)] = (uint32_t)(1UL << (((uint32_t)IRQn) & 0x1FUL));
 8000c2a:	79fb      	ldrb	r3, [r7, #7]
 8000c2c:	f003 021f 	and.w	r2, r3, #31
 8000c30:	4907      	ldr	r1, [pc, #28]	; (8000c50 <__NVIC_EnableIRQ+0x38>)
 8000c32:	f997 3007 	ldrsb.w	r3, [r7, #7]
 8000c36:	095b      	lsrs	r3, r3, #5
 8000c38:	2001      	movs	r0, #1
 8000c3a:	fa00 f202 	lsl.w	r2, r0, r2
 8000c3e:	f841 2023 	str.w	r2, [r1, r3, lsl #2]
    __COMPILER_BARRIER();
  }
}
 8000c42:	bf00      	nop
 8000c44:	370c      	adds	r7, #12
 8000c46:	46bd      	mov	sp, r7
 8000c48:	f85d 7b04 	ldr.w	r7, [sp], #4
 8000c4c:	4770      	bx	lr
 8000c4e:	bf00      	nop
 8000c50:	e000e100 	.word	0xe000e100

08000c54 <__NVIC_SetPriority>:
  \param [in]      IRQn  Interrupt number.
  \param [in]  priority  Priority to set.
  \note    The priority cannot be set for every processor exception.
 */
__STATIC_INLINE void __NVIC_SetPriority(IRQn_Type IRQn, uint32_t priority)
{
 8000c54:	b480      	push	{r7}
 8000c56:	b083      	sub	sp, #12
 8000c58:	af00      	add	r7, sp, #0
 8000c5a:	4603      	mov	r3, r0
 8000c5c:	6039      	str	r1, [r7, #0]
 8000c5e:	71fb      	strb	r3, [r7, #7]
  if ((int32_t)(IRQn) >= 0)
 8000c60:	f997 3007 	ldrsb.w	r3, [r7, #7]
 8000c64:	2b00      	cmp	r3, #0
 8000c66:	db0a      	blt.n	8000c7e <__NVIC_SetPriority+0x2a>
  {
    NVIC->IP[((uint32_t)IRQn)]               = (uint8_t)((priority << (8U - __NVIC_PRIO_BITS)) & (uint32_t)0xFFUL);
 8000c68:	683b      	ldr	r3, [r7, #0]
 8000c6a:	b2da      	uxtb	r2, r3
 8000c6c:	490c      	ldr	r1, [pc, #48]	; (8000ca0 <__NVIC_SetPriority+0x4c>)
 8000c6e:	f997 3007 	ldrsb.w	r3, [r7, #7]
 8000c72:	0112      	lsls	r2, r2, #4
 8000c74:	b2d2      	uxtb	r2, r2
 8000c76:	440b      	add	r3, r1
 8000c78:	f883 2300 	strb.w	r2, [r3, #768]	; 0x300
  }
  else
  {
    SCB->SHP[(((uint32_t)IRQn) & 0xFUL)-4UL] = (uint8_t)((priority << (8U - __NVIC_PRIO_BITS)) & (uint32_t)0xFFUL);
  }
}
 8000c7c:	e00a      	b.n	8000c94 <__NVIC_SetPriority+0x40>
    SCB->SHP[(((uint32_t)IRQn) & 0xFUL)-4UL] = (uint8_t)((priority << (8U - __NVIC_PRIO_BITS)) & (uint32_t)0xFFUL);
 8000c7e:	683b      	ldr	r3, [r7, #0]
 8000c80:	b2da      	uxtb	r2, r3
 8000c82:	4908      	ldr	r1, [pc, #32]	; (8000ca4 <__NVIC_SetPriority+0x50>)
 8000c84:	79fb      	ldrb	r3, [r7, #7]
 8000c86:	f003 030f 	and.w	r3, r3, #15
 8000c8a:	3b04      	subs	r3, #4
 8000c8c:	0112      	lsls	r2, r2, #4
 8000c8e:	b2d2      	uxtb	r2, r2
 8000c90:	440b      	add	r3, r1
 8000c92:	761a      	strb	r2, [r3, #24]
}
 8000c94:	bf00      	nop
 8000c96:	370c      	adds	r7, #12
 8000c98:	46bd      	mov	sp, r7
 8000c9a:	f85d 7b04 	ldr.w	r7, [sp], #4
 8000c9e:	4770      	bx	lr
 8000ca0:	e000e100 	.word	0xe000e100
 8000ca4:	e000ed00 	.word	0xe000ed00

08000ca8 <NVIC_EncodePriority>:
  \param [in]   PreemptPriority  Preemptive priority value (starting from 0).
  \param [in]       SubPriority  Subpriority value (starting from 0).
  \return                        Encoded priority. Value can be used in the function \ref NVIC_SetPriority().
 */
__STATIC_INLINE uint32_t NVIC_EncodePriority (uint32_t PriorityGroup, uint32_t PreemptPriority, uint32_t SubPriority)
{
 8000ca8:	b480      	push	{r7}
 8000caa:	b089      	sub	sp, #36	; 0x24
 8000cac:	af00      	add	r7, sp, #0
 8000cae:	60f8      	str	r0, [r7, #12]
 8000cb0:	60b9      	str	r1, [r7, #8]
 8000cb2:	607a      	str	r2, [r7, #4]
  uint32_t PriorityGroupTmp = (PriorityGroup & (uint32_t)0x07UL);   /* only values 0..7 are used          */
 8000cb4:	68fb      	ldr	r3, [r7, #12]
 8000cb6:	f003 0307 	and.w	r3, r3, #7
 8000cba:	61fb      	str	r3, [r7, #28]
  uint32_t PreemptPriorityBits;
  uint32_t SubPriorityBits;

  PreemptPriorityBits = ((7UL - PriorityGroupTmp) > (uint32_t)(__NVIC_PRIO_BITS)) ? (uint32_t)(__NVIC_PRIO_BITS) : (uint32_t)(7UL - PriorityGroupTmp);
 8000cbc:	69fb      	ldr	r3, [r7, #28]
 8000cbe:	f1c3 0307 	rsb	r3, r3, #7
 8000cc2:	2b04      	cmp	r3, #4
 8000cc4:	bf28      	it	cs
 8000cc6:	2304      	movcs	r3, #4
 8000cc8:	61bb      	str	r3, [r7, #24]
  SubPriorityBits     = ((PriorityGroupTmp + (uint32_t)(__NVIC_PRIO_BITS)) < (uint32_t)7UL) ? (uint32_t)0UL : (uint32_t)((PriorityGroupTmp - 7UL) + (uint32_t)(__NVIC_PRIO_BITS));
 8000cca:	69fb      	ldr	r3, [r7, #28]
 8000ccc:	3304      	adds	r3, #4
 8000cce:	2b06      	cmp	r3, #6
 8000cd0:	d902      	bls.n	8000cd8 <NVIC_EncodePriority+0x30>
 8000cd2:	69fb      	ldr	r3, [r7, #28]
 8000cd4:	3b03      	subs	r3, #3
 8000cd6:	e000      	b.n	8000cda <NVIC_EncodePriority+0x32>
 8000cd8:	2300      	movs	r3, #0
 8000cda:	617b      	str	r3, [r7, #20]

  return (
           ((PreemptPriority & (uint32_t)((1UL << (PreemptPriorityBits)) - 1UL)) << SubPriorityBits) |
 8000cdc:	f04f 32ff 	mov.w	r2, #4294967295
 8000ce0:	69bb      	ldr	r3, [r7, #24]
 8000ce2:	fa02 f303 	lsl.w	r3, r2, r3
 8000ce6:	43da      	mvns	r2, r3
 8000ce8:	68bb      	ldr	r3, [r7, #8]
 8000cea:	401a      	ands	r2, r3
 8000cec:	697b      	ldr	r3, [r7, #20]
 8000cee:	409a      	lsls	r2, r3
           ((SubPriority     & (uint32_t)((1UL << (SubPriorityBits    )) - 1UL)))
 8000cf0:	f04f 31ff 	mov.w	r1, #4294967295
 8000cf4:	697b      	ldr	r3, [r7, #20]
 8000cf6:	fa01 f303 	lsl.w	r3, r1, r3
 8000cfa:	43d9      	mvns	r1, r3
 8000cfc:	687b      	ldr	r3, [r7, #4]
 8000cfe:	400b      	ands	r3, r1
           ((PreemptPriority & (uint32_t)((1UL << (PreemptPriorityBits)) - 1UL)) << SubPriorityBits) |
 8000d00:	4313      	orrs	r3, r2
         );
}
 8000d02:	4618      	mov	r0, r3
 8000d04:	3724      	adds	r7, #36	; 0x24
 8000d06:	46bd      	mov	sp, r7
 8000d08:	f85d 7b04 	ldr.w	r7, [sp], #4
 8000d0c:	4770      	bx	lr
	...

08000d10 <SysTick_Config>:
  \note    When the variable <b>__Vendor_SysTickConfig</b> is set to 1, then the
           function <b>SysTick_Config</b> is not included. In this case, the file <b><i>device</i>.h</b>
           must contain a vendor-specific implementation of this function.
 */
__STATIC_INLINE uint32_t SysTick_Config(uint32_t ticks)
{
 8000d10:	b580      	push	{r7, lr}
 8000d12:	b082      	sub	sp, #8
 8000d14:	af00      	add	r7, sp, #0
 8000d16:	6078      	str	r0, [r7, #4]
  if ((ticks - 1UL) > SysTick_LOAD_RELOAD_Msk)
 8000d18:	687b      	ldr	r3, [r7, #4]
 8000d1a:	3b01      	subs	r3, #1
 8000d1c:	f1b3 7f80 	cmp.w	r3, #16777216	; 0x1000000
 8000d20:	d301      	bcc.n	8000d26 <SysTick_Config+0x16>
  {
    return (1UL);                                                   /* Reload value impossible */
 8000d22:	2301      	movs	r3, #1
 8000d24:	e00f      	b.n	8000d46 <SysTick_Config+0x36>
  }

  SysTick->LOAD  = (uint32_t)(ticks - 1UL);                         /* set reload register */
 8000d26:	4a0a      	ldr	r2, [pc, #40]	; (8000d50 <SysTick_Config+0x40>)
 8000d28:	687b      	ldr	r3, [r7, #4]
 8000d2a:	3b01      	subs	r3, #1
 8000d2c:	6053      	str	r3, [r2, #4]
  NVIC_SetPriority (SysTick_IRQn, (1UL << __NVIC_PRIO_BITS) - 1UL); /* set Priority for Systick Interrupt */
 8000d2e:	210f      	movs	r1, #15
 8000d30:	f04f 30ff 	mov.w	r0, #4294967295
 8000d34:	f7ff ff8e 	bl	8000c54 <__NVIC_SetPriority>
  SysTick->VAL   = 0UL;                                             /* Load the SysTick Counter Value */
 8000d38:	4b05      	ldr	r3, [pc, #20]	; (8000d50 <SysTick_Config+0x40>)
 8000d3a:	2200      	movs	r2, #0
 8000d3c:	609a      	str	r2, [r3, #8]
  SysTick->CTRL  = SysTick_CTRL_CLKSOURCE_Msk |
 8000d3e:	4b04      	ldr	r3, [pc, #16]	; (8000d50 <SysTick_Config+0x40>)
 8000d40:	2207      	movs	r2, #7
 8000d42:	601a      	str	r2, [r3, #0]
                   SysTick_CTRL_TICKINT_Msk   |
                   SysTick_CTRL_ENABLE_Msk;                         /* Enable SysTick IRQ and SysTick Timer */
  return (0UL);                                                     /* Function successful */
 8000d44:	2300      	movs	r3, #0
}
 8000d46:	4618      	mov	r0, r3
 8000d48:	3708      	adds	r7, #8
 8000d4a:	46bd      	mov	sp, r7
 8000d4c:	bd80      	pop	{r7, pc}
 8000d4e:	bf00      	nop
 8000d50:	e000e010 	.word	0xe000e010

08000d54 <HAL_NVIC_SetPriorityGrouping>:
  * @note   When the NVIC_PriorityGroup_0 is selected, IRQ pre-emption is no more possible.
  *         The pending IRQ priority will be managed only by the subpriority.
  * @retval None
  */
void HAL_NVIC_SetPriorityGrouping(uint32_t PriorityGroup)
{
 8000d54:	b580      	push	{r7, lr}
 8000d56:	b082      	sub	sp, #8
 8000d58:	af00      	add	r7, sp, #0
 8000d5a:	6078      	str	r0, [r7, #4]
  /* Check the parameters */
  assert_param(IS_NVIC_PRIORITY_GROUP(PriorityGroup));

  /* Set the PRIGROUP[10:8] bits according to the PriorityGroup parameter value */
  NVIC_SetPriorityGrouping(PriorityGroup);
 8000d5c:	6878      	ldr	r0, [r7, #4]
 8000d5e:	f7ff ff29 	bl	8000bb4 <__NVIC_SetPriorityGrouping>
}
 8000d62:	bf00      	nop
 8000d64:	3708      	adds	r7, #8
 8000d66:	46bd      	mov	sp, r7
 8000d68:	bd80      	pop	{r7, pc}

08000d6a <HAL_NVIC_SetPriority>:
  *         This parameter can be a value between 0 and 15
  *         A lower priority value indicates a higher priority.
  * @retval None
  */
void HAL_NVIC_SetPriority(IRQn_Type IRQn, uint32_t PreemptPriority, uint32_t SubPriority)
{
 8000d6a:	b580      	push	{r7, lr}
 8000d6c:	b086      	sub	sp, #24
 8000d6e:	af00      	add	r7, sp, #0
 8000d70:	4603      	mov	r3, r0
 8000d72:	60b9      	str	r1, [r7, #8]
 8000d74:	607a      	str	r2, [r7, #4]
 8000d76:	73fb      	strb	r3, [r7, #15]
  uint32_t prioritygroup = 0x00;
 8000d78:	2300      	movs	r3, #0
 8000d7a:	617b      	str	r3, [r7, #20]

  /* Check the parameters */
  assert_param(IS_NVIC_SUB_PRIORITY(SubPriority));
  assert_param(IS_NVIC_PREEMPTION_PRIORITY(PreemptPriority));

  prioritygroup = NVIC_GetPriorityGrouping();
 8000d7c:	f7ff ff3e 	bl	8000bfc <__NVIC_GetPriorityGrouping>
 8000d80:	6178      	str	r0, [r7, #20]

  NVIC_SetPriority(IRQn, NVIC_EncodePriority(prioritygroup, PreemptPriority, SubPriority));
 8000d82:	687a      	ldr	r2, [r7, #4]
 8000d84:	68b9      	ldr	r1, [r7, #8]
 8000d86:	6978      	ldr	r0, [r7, #20]
 8000d88:	f7ff ff8e 	bl	8000ca8 <NVIC_EncodePriority>
 8000d8c:	4602      	mov	r2, r0
 8000d8e:	f997 300f 	ldrsb.w	r3, [r7, #15]
 8000d92:	4611      	mov	r1, r2
 8000d94:	4618      	mov	r0, r3
 8000d96:	f7ff ff5d 	bl	8000c54 <__NVIC_SetPriority>
}
 8000d9a:	bf00      	nop
 8000d9c:	3718      	adds	r7, #24
 8000d9e:	46bd      	mov	sp, r7
 8000da0:	bd80      	pop	{r7, pc}

08000da2 <HAL_NVIC_EnableIRQ>:
  *         This parameter can be an enumerator of IRQn_Type enumeration
  *         (For the complete STM32 Devices IRQ Channels list, please refer to the appropriate CMSIS device file (stm32l4xxxx.h))
  * @retval None
  */
void HAL_NVIC_EnableIRQ(IRQn_Type IRQn)
{
 8000da2:	b580      	push	{r7, lr}
 8000da4:	b082      	sub	sp, #8
 8000da6:	af00      	add	r7, sp, #0
 8000da8:	4603      	mov	r3, r0
 8000daa:	71fb      	strb	r3, [r7, #7]
  /* Check the parameters */
  assert_param(IS_NVIC_DEVICE_IRQ(IRQn));
  
  /* Enable interrupt */
  NVIC_EnableIRQ(IRQn);
 8000dac:	f997 3007 	ldrsb.w	r3, [r7, #7]
 8000db0:	4618      	mov	r0, r3
 8000db2:	f7ff ff31 	bl	8000c18 <__NVIC_EnableIRQ>
}
 8000db6:	bf00      	nop
 8000db8:	3708      	adds	r7, #8
 8000dba:	46bd      	mov	sp, r7
 8000dbc:	bd80      	pop	{r7, pc}

08000dbe <HAL_SYSTICK_Config>:
  * @param  TicksNumb: Specifies the ticks Number of ticks between two interrupts.
  * @retval status:  - 0  Function succeeded.
  *                  - 1  Function failed.
  */
uint32_t HAL_SYSTICK_Config(uint32_t TicksNumb)
{
 8000dbe:	b580      	push	{r7, lr}
 8000dc0:	b082      	sub	sp, #8
 8000dc2:	af00      	add	r7, sp, #0
 8000dc4:	6078      	str	r0, [r7, #4]
   return SysTick_Config(TicksNumb);
 8000dc6:	6878      	ldr	r0, [r7, #4]
 8000dc8:	f7ff ffa2 	bl	8000d10 <SysTick_Config>
 8000dcc:	4603      	mov	r3, r0
}
 8000dce:	4618      	mov	r0, r3
 8000dd0:	3708      	adds	r7, #8
 8000dd2:	46bd      	mov	sp, r7
 8000dd4:	bd80      	pop	{r7, pc}
	...

08000dd8 <HAL_GPIO_Init>:
  * @param  GPIO_Init pointer to a GPIO_InitTypeDef structure that contains
  *         the configuration information for the specified GPIO peripheral.
  * @retval None
  */
void HAL_GPIO_Init(GPIO_TypeDef  *GPIOx, GPIO_InitTypeDef *GPIO_Init)
{
 8000dd8:	b480      	push	{r7}
 8000dda:	b087      	sub	sp, #28
 8000ddc:	af00      	add	r7, sp, #0
 8000dde:	6078      	str	r0, [r7, #4]
 8000de0:	6039      	str	r1, [r7, #0]
  uint32_t position = 0x00u;
 8000de2:	2300      	movs	r3, #0
 8000de4:	617b      	str	r3, [r7, #20]
  assert_param(IS_GPIO_PIN(GPIO_Init->Pin));
  assert_param(IS_GPIO_MODE(GPIO_Init->Mode));
  assert_param(IS_GPIO_PULL(GPIO_Init->Pull));

  /* Configure the port pins */
  while (((GPIO_Init->Pin) >> position) != 0x00u)
 8000de6:	e17f      	b.n	80010e8 <HAL_GPIO_Init+0x310>
  {
    /* Get current io position */
    iocurrent = (GPIO_Init->Pin) & (1uL << position);
 8000de8:	683b      	ldr	r3, [r7, #0]
 8000dea:	681a      	ldr	r2, [r3, #0]
 8000dec:	2101      	movs	r1, #1
 8000dee:	697b      	ldr	r3, [r7, #20]
 8000df0:	fa01 f303 	lsl.w	r3, r1, r3
 8000df4:	4013      	ands	r3, r2
 8000df6:	60fb      	str	r3, [r7, #12]

    if (iocurrent != 0x00u)
 8000df8:	68fb      	ldr	r3, [r7, #12]
 8000dfa:	2b00      	cmp	r3, #0
 8000dfc:	f000 8171 	beq.w	80010e2 <HAL_GPIO_Init+0x30a>
    {
      /*--------------------- GPIO Mode Configuration ------------------------*/
      /* In case of Output or Alternate function mode selection */
      if((GPIO_Init->Mode == GPIO_MODE_OUTPUT_PP) || (GPIO_Init->Mode == GPIO_MODE_AF_PP) ||
 8000e00:	683b      	ldr	r3, [r7, #0]
 8000e02:	685b      	ldr	r3, [r3, #4]
 8000e04:	2b01      	cmp	r3, #1
 8000e06:	d00b      	beq.n	8000e20 <HAL_GPIO_Init+0x48>
 8000e08:	683b      	ldr	r3, [r7, #0]
 8000e0a:	685b      	ldr	r3, [r3, #4]
 8000e0c:	2b02      	cmp	r3, #2
 8000e0e:	d007      	beq.n	8000e20 <HAL_GPIO_Init+0x48>
         (GPIO_Init->Mode == GPIO_MODE_OUTPUT_OD) || (GPIO_Init->Mode == GPIO_MODE_AF_OD))
 8000e10:	683b      	ldr	r3, [r7, #0]
 8000e12:	685b      	ldr	r3, [r3, #4]
      if((GPIO_Init->Mode == GPIO_MODE_OUTPUT_PP) || (GPIO_Init->Mode == GPIO_MODE_AF_PP) ||
 8000e14:	2b11      	cmp	r3, #17
 8000e16:	d003      	beq.n	8000e20 <HAL_GPIO_Init+0x48>
         (GPIO_Init->Mode == GPIO_MODE_OUTPUT_OD) || (GPIO_Init->Mode == GPIO_MODE_AF_OD))
 8000e18:	683b      	ldr	r3, [r7, #0]
 8000e1a:	685b      	ldr	r3, [r3, #4]
 8000e1c:	2b12      	cmp	r3, #18
 8000e1e:	d130      	bne.n	8000e82 <HAL_GPIO_Init+0xaa>
      {
        /* Check the Speed parameter */
        assert_param(IS_GPIO_SPEED(GPIO_Init->Speed));
        /* Configure the IO Speed */
        temp = GPIOx->OSPEEDR;
 8000e20:	687b      	ldr	r3, [r7, #4]
 8000e22:	689b      	ldr	r3, [r3, #8]
 8000e24:	613b      	str	r3, [r7, #16]
        temp &= ~(GPIO_OSPEEDR_OSPEED0 << (position * 2u));
 8000e26:	697b      	ldr	r3, [r7, #20]
 8000e28:	005b      	lsls	r3, r3, #1
 8000e2a:	2203      	movs	r2, #3
 8000e2c:	fa02 f303 	lsl.w	r3, r2, r3
 8000e30:	43db      	mvns	r3, r3
 8000e32:	693a      	ldr	r2, [r7, #16]
 8000e34:	4013      	ands	r3, r2
 8000e36:	613b      	str	r3, [r7, #16]
        temp |= (GPIO_Init->Speed << (position * 2u));
 8000e38:	683b      	ldr	r3, [r7, #0]
 8000e3a:	68da      	ldr	r2, [r3, #12]
 8000e3c:	697b      	ldr	r3, [r7, #20]
 8000e3e:	005b      	lsls	r3, r3, #1
 8000e40:	fa02 f303 	lsl.w	r3, r2, r3
 8000e44:	693a      	ldr	r2, [r7, #16]
 8000e46:	4313      	orrs	r3, r2
 8000e48:	613b      	str	r3, [r7, #16]
        GPIOx->OSPEEDR = temp;
 8000e4a:	687b      	ldr	r3, [r7, #4]
 8000e4c:	693a      	ldr	r2, [r7, #16]
 8000e4e:	609a      	str	r2, [r3, #8]

        /* Configure the IO Output Type */
        temp = GPIOx->OTYPER;
 8000e50:	687b      	ldr	r3, [r7, #4]
 8000e52:	685b      	ldr	r3, [r3, #4]
 8000e54:	613b      	str	r3, [r7, #16]
        temp &= ~(GPIO_OTYPER_OT0 << position) ;
 8000e56:	2201      	movs	r2, #1
 8000e58:	697b      	ldr	r3, [r7, #20]
 8000e5a:	fa02 f303 	lsl.w	r3, r2, r3
 8000e5e:	43db      	mvns	r3, r3
 8000e60:	693a      	ldr	r2, [r7, #16]
 8000e62:	4013      	ands	r3, r2
 8000e64:	613b      	str	r3, [r7, #16]
        temp |= (((GPIO_Init->Mode & GPIO_OUTPUT_TYPE) >> 4u) << position);
 8000e66:	683b      	ldr	r3, [r7, #0]
 8000e68:	685b      	ldr	r3, [r3, #4]
 8000e6a:	091b      	lsrs	r3, r3, #4
 8000e6c:	f003 0201 	and.w	r2, r3, #1
 8000e70:	697b      	ldr	r3, [r7, #20]
 8000e72:	fa02 f303 	lsl.w	r3, r2, r3
 8000e76:	693a      	ldr	r2, [r7, #16]
 8000e78:	4313      	orrs	r3, r2
 8000e7a:	613b      	str	r3, [r7, #16]
        GPIOx->OTYPER = temp;
 8000e7c:	687b      	ldr	r3, [r7, #4]
 8000e7e:	693a      	ldr	r2, [r7, #16]
 8000e80:	605a      	str	r2, [r3, #4]
      }

#if defined(STM32L471xx) || defined(STM32L475xx) || defined(STM32L476xx) || defined(STM32L485xx) || defined(STM32L486xx)

      /* In case of Analog mode, check if ADC control mode is selected */
      if((GPIO_Init->Mode & GPIO_MODE_ANALOG) == GPIO_MODE_ANALOG)
 8000e82:	683b      	ldr	r3, [r7, #0]
 8000e84:	685b      	ldr	r3, [r3, #4]
 8000e86:	f003 0303 	and.w	r3, r3, #3
 8000e8a:	2b03      	cmp	r3, #3
 8000e8c:	d118      	bne.n	8000ec0 <HAL_GPIO_Init+0xe8>
      {
        /* Configure the IO Output Type */
        temp = GPIOx->ASCR;
 8000e8e:	687b      	ldr	r3, [r7, #4]
 8000e90:	6adb      	ldr	r3, [r3, #44]	; 0x2c
 8000e92:	613b      	str	r3, [r7, #16]
        temp &= ~(GPIO_ASCR_ASC0 << position) ;
 8000e94:	2201      	movs	r2, #1
 8000e96:	697b      	ldr	r3, [r7, #20]
 8000e98:	fa02 f303 	lsl.w	r3, r2, r3
 8000e9c:	43db      	mvns	r3, r3
 8000e9e:	693a      	ldr	r2, [r7, #16]
 8000ea0:	4013      	ands	r3, r2
 8000ea2:	613b      	str	r3, [r7, #16]
        temp |= (((GPIO_Init->Mode & ANALOG_MODE) >> 3) << position);
 8000ea4:	683b      	ldr	r3, [r7, #0]
 8000ea6:	685b      	ldr	r3, [r3, #4]
 8000ea8:	08db      	lsrs	r3, r3, #3
 8000eaa:	f003 0201 	and.w	r2, r3, #1
 8000eae:	697b      	ldr	r3, [r7, #20]
 8000eb0:	fa02 f303 	lsl.w	r3, r2, r3
 8000eb4:	693a      	ldr	r2, [r7, #16]
 8000eb6:	4313      	orrs	r3, r2
 8000eb8:	613b      	str	r3, [r7, #16]
        GPIOx->ASCR = temp;
 8000eba:	687b      	ldr	r3, [r7, #4]
 8000ebc:	693a      	ldr	r2, [r7, #16]
 8000ebe:	62da      	str	r2, [r3, #44]	; 0x2c
      }

#endif /* STM32L471xx || STM32L475xx || STM32L476xx || STM32L485xx || STM32L486xx */

      /* Activate the Pull-up or Pull down resistor for the current IO */
      temp = GPIOx->PUPDR;
 8000ec0:	687b      	ldr	r3, [r7, #4]
 8000ec2:	68db      	ldr	r3, [r3, #12]
 8000ec4:	613b      	str	r3, [r7, #16]
      temp &= ~(GPIO_PUPDR_PUPD0 << (position * 2u));
 8000ec6:	697b      	ldr	r3, [r7, #20]
 8000ec8:	005b      	lsls	r3, r3, #1
 8000eca:	2203      	movs	r2, #3
 8000ecc:	fa02 f303 	lsl.w	r3, r2, r3
 8000ed0:	43db      	mvns	r3, r3
 8000ed2:	693a      	ldr	r2, [r7, #16]
 8000ed4:	4013      	ands	r3, r2
 8000ed6:	613b      	str	r3, [r7, #16]
      temp |= ((GPIO_Init->Pull) << (position * 2u));
 8000ed8:	683b      	ldr	r3, [r7, #0]
 8000eda:	689a      	ldr	r2, [r3, #8]
 8000edc:	697b      	ldr	r3, [r7, #20]
 8000ede:	005b      	lsls	r3, r3, #1
 8000ee0:	fa02 f303 	lsl.w	r3, r2, r3
 8000ee4:	693a      	ldr	r2, [r7, #16]
 8000ee6:	4313      	orrs	r3, r2
 8000ee8:	613b      	str	r3, [r7, #16]
      GPIOx->PUPDR = temp;
 8000eea:	687b      	ldr	r3, [r7, #4]
 8000eec:	693a      	ldr	r2, [r7, #16]
 8000eee:	60da      	str	r2, [r3, #12]

      /* In case of Alternate function mode selection */
      if((GPIO_Init->Mode == GPIO_MODE_AF_PP) || (GPIO_Init->Mode == GPIO_MODE_AF_OD))
 8000ef0:	683b      	ldr	r3, [r7, #0]
 8000ef2:	685b      	ldr	r3, [r3, #4]
 8000ef4:	2b02      	cmp	r3, #2
 8000ef6:	d003      	beq.n	8000f00 <HAL_GPIO_Init+0x128>
 8000ef8:	683b      	ldr	r3, [r7, #0]
 8000efa:	685b      	ldr	r3, [r3, #4]
 8000efc:	2b12      	cmp	r3, #18
 8000efe:	d123      	bne.n	8000f48 <HAL_GPIO_Init+0x170>
        /* Check the Alternate function parameters */
        assert_param(IS_GPIO_AF_INSTANCE(GPIOx));
        assert_param(IS_GPIO_AF(GPIO_Init->Alternate));

        /* Configure Alternate function mapped with the current IO */
        temp = GPIOx->AFR[position >> 3u];
 8000f00:	697b      	ldr	r3, [r7, #20]
 8000f02:	08da      	lsrs	r2, r3, #3
 8000f04:	687b      	ldr	r3, [r7, #4]
 8000f06:	3208      	adds	r2, #8
 8000f08:	f853 3022 	ldr.w	r3, [r3, r2, lsl #2]
 8000f0c:	613b      	str	r3, [r7, #16]
        temp &= ~(0xFu << ((position & 0x07u) * 4u));
 8000f0e:	697b      	ldr	r3, [r7, #20]
 8000f10:	f003 0307 	and.w	r3, r3, #7
 8000f14:	009b      	lsls	r3, r3, #2
 8000f16:	220f      	movs	r2, #15
 8000f18:	fa02 f303 	lsl.w	r3, r2, r3
 8000f1c:	43db      	mvns	r3, r3
 8000f1e:	693a      	ldr	r2, [r7, #16]
 8000f20:	4013      	ands	r3, r2
 8000f22:	613b      	str	r3, [r7, #16]
        temp |= ((GPIO_Init->Alternate) << ((position & 0x07u) * 4u));
 8000f24:	683b      	ldr	r3, [r7, #0]
 8000f26:	691a      	ldr	r2, [r3, #16]
 8000f28:	697b      	ldr	r3, [r7, #20]
 8000f2a:	f003 0307 	and.w	r3, r3, #7
 8000f2e:	009b      	lsls	r3, r3, #2
 8000f30:	fa02 f303 	lsl.w	r3, r2, r3
 8000f34:	693a      	ldr	r2, [r7, #16]
 8000f36:	4313      	orrs	r3, r2
 8000f38:	613b      	str	r3, [r7, #16]
        GPIOx->AFR[position >> 3u] = temp;
 8000f3a:	697b      	ldr	r3, [r7, #20]
 8000f3c:	08da      	lsrs	r2, r3, #3
 8000f3e:	687b      	ldr	r3, [r7, #4]
 8000f40:	3208      	adds	r2, #8
 8000f42:	6939      	ldr	r1, [r7, #16]
 8000f44:	f843 1022 	str.w	r1, [r3, r2, lsl #2]
      }

      /* Configure IO Direction mode (Input, Output, Alternate or Analog) */
      temp = GPIOx->MODER;
 8000f48:	687b      	ldr	r3, [r7, #4]
 8000f4a:	681b      	ldr	r3, [r3, #0]
 8000f4c:	613b      	str	r3, [r7, #16]
      temp &= ~(GPIO_MODER_MODE0 << (position * 2u));
 8000f4e:	697b      	ldr	r3, [r7, #20]
 8000f50:	005b      	lsls	r3, r3, #1
 8000f52:	2203      	movs	r2, #3
 8000f54:	fa02 f303 	lsl.w	r3, r2, r3
 8000f58:	43db      	mvns	r3, r3
 8000f5a:	693a      	ldr	r2, [r7, #16]
 8000f5c:	4013      	ands	r3, r2
 8000f5e:	613b      	str	r3, [r7, #16]
      temp |= ((GPIO_Init->Mode & GPIO_MODE) << (position * 2u));
 8000f60:	683b      	ldr	r3, [r7, #0]
 8000f62:	685b      	ldr	r3, [r3, #4]
 8000f64:	f003 0203 	and.w	r2, r3, #3
 8000f68:	697b      	ldr	r3, [r7, #20]
 8000f6a:	005b      	lsls	r3, r3, #1
 8000f6c:	fa02 f303 	lsl.w	r3, r2, r3
 8000f70:	693a      	ldr	r2, [r7, #16]
 8000f72:	4313      	orrs	r3, r2
 8000f74:	613b      	str	r3, [r7, #16]
      GPIOx->MODER = temp;
 8000f76:	687b      	ldr	r3, [r7, #4]
 8000f78:	693a      	ldr	r2, [r7, #16]
 8000f7a:	601a      	str	r2, [r3, #0]

      /*--------------------- EXTI Mode Configuration ------------------------*/
      /* Configure the External Interrupt or event for the current IO */
      if((GPIO_Init->Mode & EXTI_MODE) == EXTI_MODE)
 8000f7c:	683b      	ldr	r3, [r7, #0]
 8000f7e:	685b      	ldr	r3, [r3, #4]
 8000f80:	f003 5380 	and.w	r3, r3, #268435456	; 0x10000000
 8000f84:	2b00      	cmp	r3, #0
 8000f86:	f000 80ac 	beq.w	80010e2 <HAL_GPIO_Init+0x30a>
      {
        /* Enable SYSCFG Clock */
        __HAL_RCC_SYSCFG_CLK_ENABLE();
 8000f8a:	4b5f      	ldr	r3, [pc, #380]	; (8001108 <HAL_GPIO_Init+0x330>)
 8000f8c:	6e1b      	ldr	r3, [r3, #96]	; 0x60
 8000f8e:	4a5e      	ldr	r2, [pc, #376]	; (8001108 <HAL_GPIO_Init+0x330>)
 8000f90:	f043 0301 	orr.w	r3, r3, #1
 8000f94:	6613      	str	r3, [r2, #96]	; 0x60
 8000f96:	4b5c      	ldr	r3, [pc, #368]	; (8001108 <HAL_GPIO_Init+0x330>)
 8000f98:	6e1b      	ldr	r3, [r3, #96]	; 0x60
 8000f9a:	f003 0301 	and.w	r3, r3, #1
 8000f9e:	60bb      	str	r3, [r7, #8]
 8000fa0:	68bb      	ldr	r3, [r7, #8]

        temp = SYSCFG->EXTICR[position >> 2u];
 8000fa2:	4a5a      	ldr	r2, [pc, #360]	; (800110c <HAL_GPIO_Init+0x334>)
 8000fa4:	697b      	ldr	r3, [r7, #20]
 8000fa6:	089b      	lsrs	r3, r3, #2
 8000fa8:	3302      	adds	r3, #2
 8000faa:	f852 3023 	ldr.w	r3, [r2, r3, lsl #2]
 8000fae:	613b      	str	r3, [r7, #16]
        temp &= ~(0x0FuL << (4u * (position & 0x03u)));
 8000fb0:	697b      	ldr	r3, [r7, #20]
 8000fb2:	f003 0303 	and.w	r3, r3, #3
 8000fb6:	009b      	lsls	r3, r3, #2
 8000fb8:	220f      	movs	r2, #15
 8000fba:	fa02 f303 	lsl.w	r3, r2, r3
 8000fbe:	43db      	mvns	r3, r3
 8000fc0:	693a      	ldr	r2, [r7, #16]
 8000fc2:	4013      	ands	r3, r2
 8000fc4:	613b      	str	r3, [r7, #16]
        temp |= (GPIO_GET_INDEX(GPIOx) << (4u * (position & 0x03u)));
 8000fc6:	687b      	ldr	r3, [r7, #4]
 8000fc8:	f1b3 4f90 	cmp.w	r3, #1207959552	; 0x48000000
 8000fcc:	d025      	beq.n	800101a <HAL_GPIO_Init+0x242>
 8000fce:	687b      	ldr	r3, [r7, #4]
 8000fd0:	4a4f      	ldr	r2, [pc, #316]	; (8001110 <HAL_GPIO_Init+0x338>)
 8000fd2:	4293      	cmp	r3, r2
 8000fd4:	d01f      	beq.n	8001016 <HAL_GPIO_Init+0x23e>
 8000fd6:	687b      	ldr	r3, [r7, #4]
 8000fd8:	4a4e      	ldr	r2, [pc, #312]	; (8001114 <HAL_GPIO_Init+0x33c>)
 8000fda:	4293      	cmp	r3, r2
 8000fdc:	d019      	beq.n	8001012 <HAL_GPIO_Init+0x23a>
 8000fde:	687b      	ldr	r3, [r7, #4]
 8000fe0:	4a4d      	ldr	r2, [pc, #308]	; (8001118 <HAL_GPIO_Init+0x340>)
 8000fe2:	4293      	cmp	r3, r2
 8000fe4:	d013      	beq.n	800100e <HAL_GPIO_Init+0x236>
 8000fe6:	687b      	ldr	r3, [r7, #4]
 8000fe8:	4a4c      	ldr	r2, [pc, #304]	; (800111c <HAL_GPIO_Init+0x344>)
 8000fea:	4293      	cmp	r3, r2
 8000fec:	d00d      	beq.n	800100a <HAL_GPIO_Init+0x232>
 8000fee:	687b      	ldr	r3, [r7, #4]
 8000ff0:	4a4b      	ldr	r2, [pc, #300]	; (8001120 <HAL_GPIO_Init+0x348>)
 8000ff2:	4293      	cmp	r3, r2
 8000ff4:	d007      	beq.n	8001006 <HAL_GPIO_Init+0x22e>
 8000ff6:	687b      	ldr	r3, [r7, #4]
 8000ff8:	4a4a      	ldr	r2, [pc, #296]	; (8001124 <HAL_GPIO_Init+0x34c>)
 8000ffa:	4293      	cmp	r3, r2
 8000ffc:	d101      	bne.n	8001002 <HAL_GPIO_Init+0x22a>
 8000ffe:	2306      	movs	r3, #6
 8001000:	e00c      	b.n	800101c <HAL_GPIO_Init+0x244>
 8001002:	2307      	movs	r3, #7
 8001004:	e00a      	b.n	800101c <HAL_GPIO_Init+0x244>
 8001006:	2305      	movs	r3, #5
 8001008:	e008      	b.n	800101c <HAL_GPIO_Init+0x244>
 800100a:	2304      	movs	r3, #4
 800100c:	e006      	b.n	800101c <HAL_GPIO_Init+0x244>
 800100e:	2303      	movs	r3, #3
 8001010:	e004      	b.n	800101c <HAL_GPIO_Init+0x244>
 8001012:	2302      	movs	r3, #2
 8001014:	e002      	b.n	800101c <HAL_GPIO_Init+0x244>
 8001016:	2301      	movs	r3, #1
 8001018:	e000      	b.n	800101c <HAL_GPIO_Init+0x244>
 800101a:	2300      	movs	r3, #0
 800101c:	697a      	ldr	r2, [r7, #20]
 800101e:	f002 0203 	and.w	r2, r2, #3
 8001022:	0092      	lsls	r2, r2, #2
 8001024:	4093      	lsls	r3, r2
 8001026:	693a      	ldr	r2, [r7, #16]
 8001028:	4313      	orrs	r3, r2
 800102a:	613b      	str	r3, [r7, #16]
        SYSCFG->EXTICR[position >> 2u] = temp;
 800102c:	4937      	ldr	r1, [pc, #220]	; (800110c <HAL_GPIO_Init+0x334>)
 800102e:	697b      	ldr	r3, [r7, #20]
 8001030:	089b      	lsrs	r3, r3, #2
 8001032:	3302      	adds	r3, #2
 8001034:	693a      	ldr	r2, [r7, #16]
 8001036:	f841 2023 	str.w	r2, [r1, r3, lsl #2]

        /* Clear EXTI line configuration */
        temp = EXTI->IMR1;
 800103a:	4b3b      	ldr	r3, [pc, #236]	; (8001128 <HAL_GPIO_Init+0x350>)
 800103c:	681b      	ldr	r3, [r3, #0]
 800103e:	613b      	str	r3, [r7, #16]
        temp &= ~(iocurrent);
 8001040:	68fb      	ldr	r3, [r7, #12]
 8001042:	43db      	mvns	r3, r3
 8001044:	693a      	ldr	r2, [r7, #16]
 8001046:	4013      	ands	r3, r2
 8001048:	613b      	str	r3, [r7, #16]
        if((GPIO_Init->Mode & GPIO_MODE_IT) == GPIO_MODE_IT)
 800104a:	683b      	ldr	r3, [r7, #0]
 800104c:	685b      	ldr	r3, [r3, #4]
 800104e:	f403 3380 	and.w	r3, r3, #65536	; 0x10000
 8001052:	2b00      	cmp	r3, #0
 8001054:	d003      	beq.n	800105e <HAL_GPIO_Init+0x286>
        {
          temp |= iocurrent;
 8001056:	693a      	ldr	r2, [r7, #16]
 8001058:	68fb      	ldr	r3, [r7, #12]
 800105a:	4313      	orrs	r3, r2
 800105c:	613b      	str	r3, [r7, #16]
        }
        EXTI->IMR1 = temp;
 800105e:	4a32      	ldr	r2, [pc, #200]	; (8001128 <HAL_GPIO_Init+0x350>)
 8001060:	693b      	ldr	r3, [r7, #16]
 8001062:	6013      	str	r3, [r2, #0]

        temp = EXTI->EMR1;
 8001064:	4b30      	ldr	r3, [pc, #192]	; (8001128 <HAL_GPIO_Init+0x350>)
 8001066:	685b      	ldr	r3, [r3, #4]
 8001068:	613b      	str	r3, [r7, #16]
        temp &= ~(iocurrent);
 800106a:	68fb      	ldr	r3, [r7, #12]
 800106c:	43db      	mvns	r3, r3
 800106e:	693a      	ldr	r2, [r7, #16]
 8001070:	4013      	ands	r3, r2
 8001072:	613b      	str	r3, [r7, #16]
        if((GPIO_Init->Mode & GPIO_MODE_EVT) == GPIO_MODE_EVT)
 8001074:	683b      	ldr	r3, [r7, #0]
 8001076:	685b      	ldr	r3, [r3, #4]
 8001078:	f403 3300 	and.w	r3, r3, #131072	; 0x20000
 800107c:	2b00      	cmp	r3, #0
 800107e:	d003      	beq.n	8001088 <HAL_GPIO_Init+0x2b0>
        {
          temp |= iocurrent;
 8001080:	693a      	ldr	r2, [r7, #16]
 8001082:	68fb      	ldr	r3, [r7, #12]
 8001084:	4313      	orrs	r3, r2
 8001086:	613b      	str	r3, [r7, #16]
        }
        EXTI->EMR1 = temp;
 8001088:	4a27      	ldr	r2, [pc, #156]	; (8001128 <HAL_GPIO_Init+0x350>)
 800108a:	693b      	ldr	r3, [r7, #16]
 800108c:	6053      	str	r3, [r2, #4]

        /* Clear Rising Falling edge configuration */
        temp = EXTI->RTSR1;
 800108e:	4b26      	ldr	r3, [pc, #152]	; (8001128 <HAL_GPIO_Init+0x350>)
 8001090:	689b      	ldr	r3, [r3, #8]
 8001092:	613b      	str	r3, [r7, #16]
        temp &= ~(iocurrent);
 8001094:	68fb      	ldr	r3, [r7, #12]
 8001096:	43db      	mvns	r3, r3
 8001098:	693a      	ldr	r2, [r7, #16]
 800109a:	4013      	ands	r3, r2
 800109c:	613b      	str	r3, [r7, #16]
        if((GPIO_Init->Mode & RISING_EDGE) == RISING_EDGE)
 800109e:	683b      	ldr	r3, [r7, #0]
 80010a0:	685b      	ldr	r3, [r3, #4]
 80010a2:	f403 1380 	and.w	r3, r3, #1048576	; 0x100000
 80010a6:	2b00      	cmp	r3, #0
 80010a8:	d003      	beq.n	80010b2 <HAL_GPIO_Init+0x2da>
        {
          temp |= iocurrent;
 80010aa:	693a      	ldr	r2, [r7, #16]
 80010ac:	68fb      	ldr	r3, [r7, #12]
 80010ae:	4313      	orrs	r3, r2
 80010b0:	613b      	str	r3, [r7, #16]
        }
        EXTI->RTSR1 = temp;
 80010b2:	4a1d      	ldr	r2, [pc, #116]	; (8001128 <HAL_GPIO_Init+0x350>)
 80010b4:	693b      	ldr	r3, [r7, #16]
 80010b6:	6093      	str	r3, [r2, #8]

        temp = EXTI->FTSR1;
 80010b8:	4b1b      	ldr	r3, [pc, #108]	; (8001128 <HAL_GPIO_Init+0x350>)
 80010ba:	68db      	ldr	r3, [r3, #12]
 80010bc:	613b      	str	r3, [r7, #16]
        temp &= ~(iocurrent);
 80010be:	68fb      	ldr	r3, [r7, #12]
 80010c0:	43db      	mvns	r3, r3
 80010c2:	693a      	ldr	r2, [r7, #16]
 80010c4:	4013      	ands	r3, r2
 80010c6:	613b      	str	r3, [r7, #16]
        if((GPIO_Init->Mode & FALLING_EDGE) == FALLING_EDGE)
 80010c8:	683b      	ldr	r3, [r7, #0]
 80010ca:	685b      	ldr	r3, [r3, #4]
 80010cc:	f403 1300 	and.w	r3, r3, #2097152	; 0x200000
 80010d0:	2b00      	cmp	r3, #0
 80010d2:	d003      	beq.n	80010dc <HAL_GPIO_Init+0x304>
        {
          temp |= iocurrent;
 80010d4:	693a      	ldr	r2, [r7, #16]
 80010d6:	68fb      	ldr	r3, [r7, #12]
 80010d8:	4313      	orrs	r3, r2
 80010da:	613b      	str	r3, [r7, #16]
        }
        EXTI->FTSR1 = temp;
 80010dc:	4a12      	ldr	r2, [pc, #72]	; (8001128 <HAL_GPIO_Init+0x350>)
 80010de:	693b      	ldr	r3, [r7, #16]
 80010e0:	60d3      	str	r3, [r2, #12]
      }
    }

    position++;
 80010e2:	697b      	ldr	r3, [r7, #20]
 80010e4:	3301      	adds	r3, #1
 80010e6:	617b      	str	r3, [r7, #20]
  while (((GPIO_Init->Pin) >> position) != 0x00u)
 80010e8:	683b      	ldr	r3, [r7, #0]
 80010ea:	681a      	ldr	r2, [r3, #0]
 80010ec:	697b      	ldr	r3, [r7, #20]
 80010ee:	fa22 f303 	lsr.w	r3, r2, r3
 80010f2:	2b00      	cmp	r3, #0
 80010f4:	f47f ae78 	bne.w	8000de8 <HAL_GPIO_Init+0x10>
  }
}
 80010f8:	bf00      	nop
 80010fa:	bf00      	nop
 80010fc:	371c      	adds	r7, #28
 80010fe:	46bd      	mov	sp, r7
 8001100:	f85d 7b04 	ldr.w	r7, [sp], #4
 8001104:	4770      	bx	lr
 8001106:	bf00      	nop
 8001108:	40021000 	.word	0x40021000
 800110c:	40010000 	.word	0x40010000
 8001110:	48000400 	.word	0x48000400
 8001114:	48000800 	.word	0x48000800
 8001118:	48000c00 	.word	0x48000c00
 800111c:	48001000 	.word	0x48001000
 8001120:	48001400 	.word	0x48001400
 8001124:	48001800 	.word	0x48001800
 8001128:	40010400 	.word	0x40010400

0800112c <HAL_GPIO_WritePin>:
  *            @arg GPIO_PIN_RESET: to clear the port pin
  *            @arg GPIO_PIN_SET: to set the port pin
  * @retval None
  */
void HAL_GPIO_WritePin(GPIO_TypeDef* GPIOx, uint16_t GPIO_Pin, GPIO_PinState PinState)
{
 800112c:	b480      	push	{r7}
 800112e:	b083      	sub	sp, #12
 8001130:	af00      	add	r7, sp, #0
 8001132:	6078      	str	r0, [r7, #4]
 8001134:	460b      	mov	r3, r1
 8001136:	807b      	strh	r3, [r7, #2]
 8001138:	4613      	mov	r3, r2
 800113a:	707b      	strb	r3, [r7, #1]
  /* Check the parameters */
  assert_param(IS_GPIO_PIN(GPIO_Pin));
  assert_param(IS_GPIO_PIN_ACTION(PinState));

  if(PinState != GPIO_PIN_RESET)
 800113c:	787b      	ldrb	r3, [r7, #1]
 800113e:	2b00      	cmp	r3, #0
 8001140:	d003      	beq.n	800114a <HAL_GPIO_WritePin+0x1e>
  {
    GPIOx->BSRR = (uint32_t)GPIO_Pin;
 8001142:	887a      	ldrh	r2, [r7, #2]
 8001144:	687b      	ldr	r3, [r7, #4]
 8001146:	619a      	str	r2, [r3, #24]
  }
  else
  {
    GPIOx->BRR = (uint32_t)GPIO_Pin;
  }
}
 8001148:	e002      	b.n	8001150 <HAL_GPIO_WritePin+0x24>
    GPIOx->BRR = (uint32_t)GPIO_Pin;
 800114a:	887a      	ldrh	r2, [r7, #2]
 800114c:	687b      	ldr	r3, [r7, #4]
 800114e:	629a      	str	r2, [r3, #40]	; 0x28
}
 8001150:	bf00      	nop
 8001152:	370c      	adds	r7, #12
 8001154:	46bd      	mov	sp, r7
 8001156:	f85d 7b04 	ldr.w	r7, [sp], #4
 800115a:	4770      	bx	lr

0800115c <HAL_GPIO_TogglePin>:
  * @param  GPIOx where x can be (A..H) to select the GPIO peripheral for STM32L4 family
  * @param  GPIO_Pin specifies the pin to be toggled.
  * @retval None
  */
void HAL_GPIO_TogglePin(GPIO_TypeDef* GPIOx, uint16_t GPIO_Pin)
{
 800115c:	b480      	push	{r7}
 800115e:	b085      	sub	sp, #20
 8001160:	af00      	add	r7, sp, #0
 8001162:	6078      	str	r0, [r7, #4]
 8001164:	460b      	mov	r3, r1
 8001166:	807b      	strh	r3, [r7, #2]

  /* Check the parameters */
  assert_param(IS_GPIO_PIN(GPIO_Pin));

  /* get current Ouput Data Register value */
  odr = GPIOx->ODR;
 8001168:	687b      	ldr	r3, [r7, #4]
 800116a:	695b      	ldr	r3, [r3, #20]
 800116c:	60fb      	str	r3, [r7, #12]

  /* Set selected pins that were at low level, and reset ones that were high */
  GPIOx->BSRR = ((odr & GPIO_Pin) << GPIO_NUMBER) | (~odr & GPIO_Pin);
 800116e:	887a      	ldrh	r2, [r7, #2]
 8001170:	68fb      	ldr	r3, [r7, #12]
 8001172:	4013      	ands	r3, r2
 8001174:	041a      	lsls	r2, r3, #16
 8001176:	68fb      	ldr	r3, [r7, #12]
 8001178:	43d9      	mvns	r1, r3
 800117a:	887b      	ldrh	r3, [r7, #2]
 800117c:	400b      	ands	r3, r1
 800117e:	431a      	orrs	r2, r3
 8001180:	687b      	ldr	r3, [r7, #4]
 8001182:	619a      	str	r2, [r3, #24]
}
 8001184:	bf00      	nop
 8001186:	3714      	adds	r7, #20
 8001188:	46bd      	mov	sp, r7
 800118a:	f85d 7b04 	ldr.w	r7, [sp], #4
 800118e:	4770      	bx	lr

08001190 <HAL_PWREx_GetVoltageRange>:
  * @brief Return Voltage Scaling Range.
  * @retval VOS bit field (PWR_REGULATOR_VOLTAGE_SCALE1 or PWR_REGULATOR_VOLTAGE_SCALE2
  *         or PWR_REGULATOR_VOLTAGE_SCALE1_BOOST when applicable)
  */
uint32_t HAL_PWREx_GetVoltageRange(void)
{
 8001190:	b480      	push	{r7}
 8001192:	af00      	add	r7, sp, #0
    else
    {
      return PWR_REGULATOR_VOLTAGE_SCALE1_BOOST;
    }
#else
  return  (PWR->CR1 & PWR_CR1_VOS);
 8001194:	4b04      	ldr	r3, [pc, #16]	; (80011a8 <HAL_PWREx_GetVoltageRange+0x18>)
 8001196:	681b      	ldr	r3, [r3, #0]
 8001198:	f403 63c0 	and.w	r3, r3, #1536	; 0x600
#endif
}
 800119c:	4618      	mov	r0, r3
 800119e:	46bd      	mov	sp, r7
 80011a0:	f85d 7b04 	ldr.w	r7, [sp], #4
 80011a4:	4770      	bx	lr
 80011a6:	bf00      	nop
 80011a8:	40007000 	.word	0x40007000

080011ac <HAL_PWREx_ControlVoltageScaling>:
  *        cleared before returning the status. If the flag is not cleared within
  *        50 microseconds, HAL_TIMEOUT status is reported.
  * @retval HAL Status
  */
HAL_StatusTypeDef HAL_PWREx_ControlVoltageScaling(uint32_t VoltageScaling)
{
 80011ac:	b480      	push	{r7}
 80011ae:	b085      	sub	sp, #20
 80011b0:	af00      	add	r7, sp, #0
 80011b2:	6078      	str	r0, [r7, #4]
  }

#else

  /* If Set Range 1 */
  if (VoltageScaling == PWR_REGULATOR_VOLTAGE_SCALE1)
 80011b4:	687b      	ldr	r3, [r7, #4]
 80011b6:	f5b3 7f00 	cmp.w	r3, #512	; 0x200
 80011ba:	d130      	bne.n	800121e <HAL_PWREx_ControlVoltageScaling+0x72>
  {
    if (READ_BIT(PWR->CR1, PWR_CR1_VOS) != PWR_REGULATOR_VOLTAGE_SCALE1)
 80011bc:	4b23      	ldr	r3, [pc, #140]	; (800124c <HAL_PWREx_ControlVoltageScaling+0xa0>)
 80011be:	681b      	ldr	r3, [r3, #0]
 80011c0:	f403 63c0 	and.w	r3, r3, #1536	; 0x600
 80011c4:	f5b3 7f00 	cmp.w	r3, #512	; 0x200
 80011c8:	d038      	beq.n	800123c <HAL_PWREx_ControlVoltageScaling+0x90>
    {
      /* Set Range 1 */
      MODIFY_REG(PWR->CR1, PWR_CR1_VOS, PWR_REGULATOR_VOLTAGE_SCALE1);
 80011ca:	4b20      	ldr	r3, [pc, #128]	; (800124c <HAL_PWREx_ControlVoltageScaling+0xa0>)
 80011cc:	681b      	ldr	r3, [r3, #0]
 80011ce:	f423 63c0 	bic.w	r3, r3, #1536	; 0x600
 80011d2:	4a1e      	ldr	r2, [pc, #120]	; (800124c <HAL_PWREx_ControlVoltageScaling+0xa0>)
 80011d4:	f443 7300 	orr.w	r3, r3, #512	; 0x200
 80011d8:	6013      	str	r3, [r2, #0]

      /* Wait until VOSF is cleared */
      wait_loop_index = ((PWR_FLAG_SETTING_DELAY_US * SystemCoreClock) / 1000000U) + 1U;
 80011da:	4b1d      	ldr	r3, [pc, #116]	; (8001250 <HAL_PWREx_ControlVoltageScaling+0xa4>)
 80011dc:	681b      	ldr	r3, [r3, #0]
 80011de:	2232      	movs	r2, #50	; 0x32
 80011e0:	fb02 f303 	mul.w	r3, r2, r3
 80011e4:	4a1b      	ldr	r2, [pc, #108]	; (8001254 <HAL_PWREx_ControlVoltageScaling+0xa8>)
 80011e6:	fba2 2303 	umull	r2, r3, r2, r3
 80011ea:	0c9b      	lsrs	r3, r3, #18
 80011ec:	3301      	adds	r3, #1
 80011ee:	60fb      	str	r3, [r7, #12]
      while ((HAL_IS_BIT_SET(PWR->SR2, PWR_SR2_VOSF)) && (wait_loop_index != 0U))
 80011f0:	e002      	b.n	80011f8 <HAL_PWREx_ControlVoltageScaling+0x4c>
      {
        wait_loop_index--;
 80011f2:	68fb      	ldr	r3, [r7, #12]
 80011f4:	3b01      	subs	r3, #1
 80011f6:	60fb      	str	r3, [r7, #12]
      while ((HAL_IS_BIT_SET(PWR->SR2, PWR_SR2_VOSF)) && (wait_loop_index != 0U))
 80011f8:	4b14      	ldr	r3, [pc, #80]	; (800124c <HAL_PWREx_ControlVoltageScaling+0xa0>)
 80011fa:	695b      	ldr	r3, [r3, #20]
 80011fc:	f403 6380 	and.w	r3, r3, #1024	; 0x400
 8001200:	f5b3 6f80 	cmp.w	r3, #1024	; 0x400
 8001204:	d102      	bne.n	800120c <HAL_PWREx_ControlVoltageScaling+0x60>
 8001206:	68fb      	ldr	r3, [r7, #12]
 8001208:	2b00      	cmp	r3, #0
 800120a:	d1f2      	bne.n	80011f2 <HAL_PWREx_ControlVoltageScaling+0x46>
      }
      if (HAL_IS_BIT_SET(PWR->SR2, PWR_SR2_VOSF))
 800120c:	4b0f      	ldr	r3, [pc, #60]	; (800124c <HAL_PWREx_ControlVoltageScaling+0xa0>)
 800120e:	695b      	ldr	r3, [r3, #20]
 8001210:	f403 6380 	and.w	r3, r3, #1024	; 0x400
 8001214:	f5b3 6f80 	cmp.w	r3, #1024	; 0x400
 8001218:	d110      	bne.n	800123c <HAL_PWREx_ControlVoltageScaling+0x90>
      {
        return HAL_TIMEOUT;
 800121a:	2303      	movs	r3, #3
 800121c:	e00f      	b.n	800123e <HAL_PWREx_ControlVoltageScaling+0x92>
      }
    }
  }
  else
  {
    if (READ_BIT(PWR->CR1, PWR_CR1_VOS) != PWR_REGULATOR_VOLTAGE_SCALE2)
 800121e:	4b0b      	ldr	r3, [pc, #44]	; (800124c <HAL_PWREx_ControlVoltageScaling+0xa0>)
 8001220:	681b      	ldr	r3, [r3, #0]
 8001222:	f403 63c0 	and.w	r3, r3, #1536	; 0x600
 8001226:	f5b3 6f80 	cmp.w	r3, #1024	; 0x400
 800122a:	d007      	beq.n	800123c <HAL_PWREx_ControlVoltageScaling+0x90>
    {
      /* Set Range 2 */
      MODIFY_REG(PWR->CR1, PWR_CR1_VOS, PWR_REGULATOR_VOLTAGE_SCALE2);
 800122c:	4b07      	ldr	r3, [pc, #28]	; (800124c <HAL_PWREx_ControlVoltageScaling+0xa0>)
 800122e:	681b      	ldr	r3, [r3, #0]
 8001230:	f423 63c0 	bic.w	r3, r3, #1536	; 0x600
 8001234:	4a05      	ldr	r2, [pc, #20]	; (800124c <HAL_PWREx_ControlVoltageScaling+0xa0>)
 8001236:	f443 6380 	orr.w	r3, r3, #1024	; 0x400
 800123a:	6013      	str	r3, [r2, #0]
      /* No need to wait for VOSF to be cleared for this transition */
    }
  }
#endif

  return HAL_OK;
 800123c:	2300      	movs	r3, #0
}
 800123e:	4618      	mov	r0, r3
 8001240:	3714      	adds	r7, #20
 8001242:	46bd      	mov	sp, r7
 8001244:	f85d 7b04 	ldr.w	r7, [sp], #4
 8001248:	4770      	bx	lr
 800124a:	bf00      	nop
 800124c:	40007000 	.word	0x40007000
 8001250:	20000000 	.word	0x20000000
 8001254:	431bde83 	.word	0x431bde83

08001258 <HAL_RCC_OscConfig>:
  *         supported by this macro. User should request a transition to HSE Off
  *         first and then HSE On or HSE Bypass.
  * @retval HAL status
  */
HAL_StatusTypeDef HAL_RCC_OscConfig(RCC_OscInitTypeDef  *RCC_OscInitStruct)
{
 8001258:	b580      	push	{r7, lr}
 800125a:	b088      	sub	sp, #32
 800125c:	af00      	add	r7, sp, #0
 800125e:	6078      	str	r0, [r7, #4]
  uint32_t tickstart;
  HAL_StatusTypeDef status;
  uint32_t sysclk_source, pll_config;

  /* Check Null pointer */
  if(RCC_OscInitStruct == NULL)
 8001260:	687b      	ldr	r3, [r7, #4]
 8001262:	2b00      	cmp	r3, #0
 8001264:	d101      	bne.n	800126a <HAL_RCC_OscConfig+0x12>
  {
    return HAL_ERROR;
 8001266:	2301      	movs	r3, #1
 8001268:	e3d4      	b.n	8001a14 <HAL_RCC_OscConfig+0x7bc>
  }

  /* Check the parameters */
  assert_param(IS_RCC_OSCILLATORTYPE(RCC_OscInitStruct->OscillatorType));

  sysclk_source = __HAL_RCC_GET_SYSCLK_SOURCE();
 800126a:	4ba1      	ldr	r3, [pc, #644]	; (80014f0 <HAL_RCC_OscConfig+0x298>)
 800126c:	689b      	ldr	r3, [r3, #8]
 800126e:	f003 030c 	and.w	r3, r3, #12
 8001272:	61bb      	str	r3, [r7, #24]
  pll_config = __HAL_RCC_GET_PLL_OSCSOURCE();
 8001274:	4b9e      	ldr	r3, [pc, #632]	; (80014f0 <HAL_RCC_OscConfig+0x298>)
 8001276:	68db      	ldr	r3, [r3, #12]
 8001278:	f003 0303 	and.w	r3, r3, #3
 800127c:	617b      	str	r3, [r7, #20]

  /*----------------------------- MSI Configuration --------------------------*/
  if(((RCC_OscInitStruct->OscillatorType) & RCC_OSCILLATORTYPE_MSI) == RCC_OSCILLATORTYPE_MSI)
 800127e:	687b      	ldr	r3, [r7, #4]
 8001280:	681b      	ldr	r3, [r3, #0]
 8001282:	f003 0310 	and.w	r3, r3, #16
 8001286:	2b00      	cmp	r3, #0
 8001288:	f000 80e4 	beq.w	8001454 <HAL_RCC_OscConfig+0x1fc>
    assert_param(IS_RCC_MSI(RCC_OscInitStruct->MSIState));
    assert_param(IS_RCC_MSICALIBRATION_VALUE(RCC_OscInitStruct->MSICalibrationValue));
    assert_param(IS_RCC_MSI_CLOCK_RANGE(RCC_OscInitStruct->MSIClockRange));

    /* Check if MSI is used as system clock or as PLL source when PLL is selected as system clock */
    if((sysclk_source == RCC_CFGR_SWS_MSI) ||
 800128c:	69bb      	ldr	r3, [r7, #24]
 800128e:	2b00      	cmp	r3, #0
 8001290:	d007      	beq.n	80012a2 <HAL_RCC_OscConfig+0x4a>
 8001292:	69bb      	ldr	r3, [r7, #24]
 8001294:	2b0c      	cmp	r3, #12
 8001296:	f040 808b 	bne.w	80013b0 <HAL_RCC_OscConfig+0x158>
       ((sysclk_source == RCC_CFGR_SWS_PLL) && (pll_config == RCC_PLLSOURCE_MSI)))
 800129a:	697b      	ldr	r3, [r7, #20]
 800129c:	2b01      	cmp	r3, #1
 800129e:	f040 8087 	bne.w	80013b0 <HAL_RCC_OscConfig+0x158>
    {
      if((READ_BIT(RCC->CR, RCC_CR_MSIRDY) != 0U) && (RCC_OscInitStruct->MSIState == RCC_MSI_OFF))
 80012a2:	4b93      	ldr	r3, [pc, #588]	; (80014f0 <HAL_RCC_OscConfig+0x298>)
 80012a4:	681b      	ldr	r3, [r3, #0]
 80012a6:	f003 0302 	and.w	r3, r3, #2
 80012aa:	2b00      	cmp	r3, #0
 80012ac:	d005      	beq.n	80012ba <HAL_RCC_OscConfig+0x62>
 80012ae:	687b      	ldr	r3, [r7, #4]
 80012b0:	699b      	ldr	r3, [r3, #24]
 80012b2:	2b00      	cmp	r3, #0
 80012b4:	d101      	bne.n	80012ba <HAL_RCC_OscConfig+0x62>
      {
        return HAL_ERROR;
 80012b6:	2301      	movs	r3, #1
 80012b8:	e3ac      	b.n	8001a14 <HAL_RCC_OscConfig+0x7bc>
      else
      {
        /* To correctly read data from FLASH memory, the number of wait states (LATENCY)
           must be correctly programmed according to the frequency of the CPU clock
           (HCLK) and the supply voltage of the device. */
        if(RCC_OscInitStruct->MSIClockRange > __HAL_RCC_GET_MSI_RANGE())
 80012ba:	687b      	ldr	r3, [r7, #4]
 80012bc:	6a1a      	ldr	r2, [r3, #32]
 80012be:	4b8c      	ldr	r3, [pc, #560]	; (80014f0 <HAL_RCC_OscConfig+0x298>)
 80012c0:	681b      	ldr	r3, [r3, #0]
 80012c2:	f003 0308 	and.w	r3, r3, #8
 80012c6:	2b00      	cmp	r3, #0
 80012c8:	d004      	beq.n	80012d4 <HAL_RCC_OscConfig+0x7c>
 80012ca:	4b89      	ldr	r3, [pc, #548]	; (80014f0 <HAL_RCC_OscConfig+0x298>)
 80012cc:	681b      	ldr	r3, [r3, #0]
 80012ce:	f003 03f0 	and.w	r3, r3, #240	; 0xf0
 80012d2:	e005      	b.n	80012e0 <HAL_RCC_OscConfig+0x88>
 80012d4:	4b86      	ldr	r3, [pc, #536]	; (80014f0 <HAL_RCC_OscConfig+0x298>)
 80012d6:	f8d3 3094 	ldr.w	r3, [r3, #148]	; 0x94
 80012da:	091b      	lsrs	r3, r3, #4
 80012dc:	f003 03f0 	and.w	r3, r3, #240	; 0xf0
 80012e0:	4293      	cmp	r3, r2
 80012e2:	d223      	bcs.n	800132c <HAL_RCC_OscConfig+0xd4>
        {
          /* First increase number of wait states update if necessary */
          if(RCC_SetFlashLatencyFromMSIRange(RCC_OscInitStruct->MSIClockRange) != HAL_OK)
 80012e4:	687b      	ldr	r3, [r7, #4]
 80012e6:	6a1b      	ldr	r3, [r3, #32]
 80012e8:	4618      	mov	r0, r3
 80012ea:	f000 fd41 	bl	8001d70 <RCC_SetFlashLatencyFromMSIRange>
 80012ee:	4603      	mov	r3, r0
 80012f0:	2b00      	cmp	r3, #0
 80012f2:	d001      	beq.n	80012f8 <HAL_RCC_OscConfig+0xa0>
          {
            return HAL_ERROR;
 80012f4:	2301      	movs	r3, #1
 80012f6:	e38d      	b.n	8001a14 <HAL_RCC_OscConfig+0x7bc>
          }

          /* Selects the Multiple Speed oscillator (MSI) clock range .*/
          __HAL_RCC_MSI_RANGE_CONFIG(RCC_OscInitStruct->MSIClockRange);
 80012f8:	4b7d      	ldr	r3, [pc, #500]	; (80014f0 <HAL_RCC_OscConfig+0x298>)
 80012fa:	681b      	ldr	r3, [r3, #0]
 80012fc:	4a7c      	ldr	r2, [pc, #496]	; (80014f0 <HAL_RCC_OscConfig+0x298>)
 80012fe:	f043 0308 	orr.w	r3, r3, #8
 8001302:	6013      	str	r3, [r2, #0]
 8001304:	4b7a      	ldr	r3, [pc, #488]	; (80014f0 <HAL_RCC_OscConfig+0x298>)
 8001306:	681b      	ldr	r3, [r3, #0]
 8001308:	f023 02f0 	bic.w	r2, r3, #240	; 0xf0
 800130c:	687b      	ldr	r3, [r7, #4]
 800130e:	6a1b      	ldr	r3, [r3, #32]
 8001310:	4977      	ldr	r1, [pc, #476]	; (80014f0 <HAL_RCC_OscConfig+0x298>)
 8001312:	4313      	orrs	r3, r2
 8001314:	600b      	str	r3, [r1, #0]
          /* Adjusts the Multiple Speed oscillator (MSI) calibration value.*/
          __HAL_RCC_MSI_CALIBRATIONVALUE_ADJUST(RCC_OscInitStruct->MSICalibrationValue);
 8001316:	4b76      	ldr	r3, [pc, #472]	; (80014f0 <HAL_RCC_OscConfig+0x298>)
 8001318:	685b      	ldr	r3, [r3, #4]
 800131a:	f423 427f 	bic.w	r2, r3, #65280	; 0xff00
 800131e:	687b      	ldr	r3, [r7, #4]
 8001320:	69db      	ldr	r3, [r3, #28]
 8001322:	021b      	lsls	r3, r3, #8
 8001324:	4972      	ldr	r1, [pc, #456]	; (80014f0 <HAL_RCC_OscConfig+0x298>)
 8001326:	4313      	orrs	r3, r2
 8001328:	604b      	str	r3, [r1, #4]
 800132a:	e025      	b.n	8001378 <HAL_RCC_OscConfig+0x120>
        }
        else
        {
          /* Else, keep current flash latency while decreasing applies */
          /* Selects the Multiple Speed oscillator (MSI) clock range .*/
          __HAL_RCC_MSI_RANGE_CONFIG(RCC_OscInitStruct->MSIClockRange);
 800132c:	4b70      	ldr	r3, [pc, #448]	; (80014f0 <HAL_RCC_OscConfig+0x298>)
 800132e:	681b      	ldr	r3, [r3, #0]
 8001330:	4a6f      	ldr	r2, [pc, #444]	; (80014f0 <HAL_RCC_OscConfig+0x298>)
 8001332:	f043 0308 	orr.w	r3, r3, #8
 8001336:	6013      	str	r3, [r2, #0]
 8001338:	4b6d      	ldr	r3, [pc, #436]	; (80014f0 <HAL_RCC_OscConfig+0x298>)
 800133a:	681b      	ldr	r3, [r3, #0]
 800133c:	f023 02f0 	bic.w	r2, r3, #240	; 0xf0
 8001340:	687b      	ldr	r3, [r7, #4]
 8001342:	6a1b      	ldr	r3, [r3, #32]
 8001344:	496a      	ldr	r1, [pc, #424]	; (80014f0 <HAL_RCC_OscConfig+0x298>)
 8001346:	4313      	orrs	r3, r2
 8001348:	600b      	str	r3, [r1, #0]
          /* Adjusts the Multiple Speed oscillator (MSI) calibration value.*/
          __HAL_RCC_MSI_CALIBRATIONVALUE_ADJUST(RCC_OscInitStruct->MSICalibrationValue);
 800134a:	4b69      	ldr	r3, [pc, #420]	; (80014f0 <HAL_RCC_OscConfig+0x298>)
 800134c:	685b      	ldr	r3, [r3, #4]
 800134e:	f423 427f 	bic.w	r2, r3, #65280	; 0xff00
 8001352:	687b      	ldr	r3, [r7, #4]
 8001354:	69db      	ldr	r3, [r3, #28]
 8001356:	021b      	lsls	r3, r3, #8
 8001358:	4965      	ldr	r1, [pc, #404]	; (80014f0 <HAL_RCC_OscConfig+0x298>)
 800135a:	4313      	orrs	r3, r2
 800135c:	604b      	str	r3, [r1, #4]

          /* Decrease number of wait states update if necessary */
          /* Only possible when MSI is the System clock source  */
          if(sysclk_source == RCC_CFGR_SWS_MSI)
 800135e:	69bb      	ldr	r3, [r7, #24]
 8001360:	2b00      	cmp	r3, #0
 8001362:	d109      	bne.n	8001378 <HAL_RCC_OscConfig+0x120>
          {
            if(RCC_SetFlashLatencyFromMSIRange(RCC_OscInitStruct->MSIClockRange) != HAL_OK)
 8001364:	687b      	ldr	r3, [r7, #4]
 8001366:	6a1b      	ldr	r3, [r3, #32]
 8001368:	4618      	mov	r0, r3
 800136a:	f000 fd01 	bl	8001d70 <RCC_SetFlashLatencyFromMSIRange>
 800136e:	4603      	mov	r3, r0
 8001370:	2b00      	cmp	r3, #0
 8001372:	d001      	beq.n	8001378 <HAL_RCC_OscConfig+0x120>
            {
              return HAL_ERROR;
 8001374:	2301      	movs	r3, #1
 8001376:	e34d      	b.n	8001a14 <HAL_RCC_OscConfig+0x7bc>
            }
          }
        }

        /* Update the SystemCoreClock global variable */
        SystemCoreClock = HAL_RCC_GetSysClockFreq() >> (AHBPrescTable[READ_BIT(RCC->CFGR, RCC_CFGR_HPRE) >> RCC_CFGR_HPRE_Pos] & 0x1FU);
 8001378:	f000 fc36 	bl	8001be8 <HAL_RCC_GetSysClockFreq>
 800137c:	4602      	mov	r2, r0
 800137e:	4b5c      	ldr	r3, [pc, #368]	; (80014f0 <HAL_RCC_OscConfig+0x298>)
 8001380:	689b      	ldr	r3, [r3, #8]
 8001382:	091b      	lsrs	r3, r3, #4
 8001384:	f003 030f 	and.w	r3, r3, #15
 8001388:	495a      	ldr	r1, [pc, #360]	; (80014f4 <HAL_RCC_OscConfig+0x29c>)
 800138a:	5ccb      	ldrb	r3, [r1, r3]
 800138c:	f003 031f 	and.w	r3, r3, #31
 8001390:	fa22 f303 	lsr.w	r3, r2, r3
 8001394:	4a58      	ldr	r2, [pc, #352]	; (80014f8 <HAL_RCC_OscConfig+0x2a0>)
 8001396:	6013      	str	r3, [r2, #0]

        /* Configure the source of time base considering new system clocks settings*/
        status = HAL_InitTick(uwTickPrio);
 8001398:	4b58      	ldr	r3, [pc, #352]	; (80014fc <HAL_RCC_OscConfig+0x2a4>)
 800139a:	681b      	ldr	r3, [r3, #0]
 800139c:	4618      	mov	r0, r3
 800139e:	f7ff fbad 	bl	8000afc <HAL_InitTick>
 80013a2:	4603      	mov	r3, r0
 80013a4:	73fb      	strb	r3, [r7, #15]
        if(status != HAL_OK)
 80013a6:	7bfb      	ldrb	r3, [r7, #15]
 80013a8:	2b00      	cmp	r3, #0
 80013aa:	d052      	beq.n	8001452 <HAL_RCC_OscConfig+0x1fa>
        {
          return status;
 80013ac:	7bfb      	ldrb	r3, [r7, #15]
 80013ae:	e331      	b.n	8001a14 <HAL_RCC_OscConfig+0x7bc>
      }
    }
    else
    {
      /* Check the MSI State */
      if(RCC_OscInitStruct->MSIState != RCC_MSI_OFF)
 80013b0:	687b      	ldr	r3, [r7, #4]
 80013b2:	699b      	ldr	r3, [r3, #24]
 80013b4:	2b00      	cmp	r3, #0
 80013b6:	d032      	beq.n	800141e <HAL_RCC_OscConfig+0x1c6>
      {
        /* Enable the Internal High Speed oscillator (MSI). */
        __HAL_RCC_MSI_ENABLE();
 80013b8:	4b4d      	ldr	r3, [pc, #308]	; (80014f0 <HAL_RCC_OscConfig+0x298>)
 80013ba:	681b      	ldr	r3, [r3, #0]
 80013bc:	4a4c      	ldr	r2, [pc, #304]	; (80014f0 <HAL_RCC_OscConfig+0x298>)
 80013be:	f043 0301 	orr.w	r3, r3, #1
 80013c2:	6013      	str	r3, [r2, #0]

        /* Get timeout */
        tickstart = HAL_GetTick();
 80013c4:	f7ff fbea 	bl	8000b9c <HAL_GetTick>
 80013c8:	6138      	str	r0, [r7, #16]

        /* Wait till MSI is ready */
        while(READ_BIT(RCC->CR, RCC_CR_MSIRDY) == 0U)
 80013ca:	e008      	b.n	80013de <HAL_RCC_OscConfig+0x186>
        {
          if((HAL_GetTick() - tickstart) > MSI_TIMEOUT_VALUE)
 80013cc:	f7ff fbe6 	bl	8000b9c <HAL_GetTick>
 80013d0:	4602      	mov	r2, r0
 80013d2:	693b      	ldr	r3, [r7, #16]
 80013d4:	1ad3      	subs	r3, r2, r3
 80013d6:	2b02      	cmp	r3, #2
 80013d8:	d901      	bls.n	80013de <HAL_RCC_OscConfig+0x186>
          {
            return HAL_TIMEOUT;
 80013da:	2303      	movs	r3, #3
 80013dc:	e31a      	b.n	8001a14 <HAL_RCC_OscConfig+0x7bc>
        while(READ_BIT(RCC->CR, RCC_CR_MSIRDY) == 0U)
 80013de:	4b44      	ldr	r3, [pc, #272]	; (80014f0 <HAL_RCC_OscConfig+0x298>)
 80013e0:	681b      	ldr	r3, [r3, #0]
 80013e2:	f003 0302 	and.w	r3, r3, #2
 80013e6:	2b00      	cmp	r3, #0
 80013e8:	d0f0      	beq.n	80013cc <HAL_RCC_OscConfig+0x174>
          }
        }
         /* Selects the Multiple Speed oscillator (MSI) clock range .*/
        __HAL_RCC_MSI_RANGE_CONFIG(RCC_OscInitStruct->MSIClockRange);
 80013ea:	4b41      	ldr	r3, [pc, #260]	; (80014f0 <HAL_RCC_OscConfig+0x298>)
 80013ec:	681b      	ldr	r3, [r3, #0]
 80013ee:	4a40      	ldr	r2, [pc, #256]	; (80014f0 <HAL_RCC_OscConfig+0x298>)
 80013f0:	f043 0308 	orr.w	r3, r3, #8
 80013f4:	6013      	str	r3, [r2, #0]
 80013f6:	4b3e      	ldr	r3, [pc, #248]	; (80014f0 <HAL_RCC_OscConfig+0x298>)
 80013f8:	681b      	ldr	r3, [r3, #0]
 80013fa:	f023 02f0 	bic.w	r2, r3, #240	; 0xf0
 80013fe:	687b      	ldr	r3, [r7, #4]
 8001400:	6a1b      	ldr	r3, [r3, #32]
 8001402:	493b      	ldr	r1, [pc, #236]	; (80014f0 <HAL_RCC_OscConfig+0x298>)
 8001404:	4313      	orrs	r3, r2
 8001406:	600b      	str	r3, [r1, #0]
         /* Adjusts the Multiple Speed oscillator (MSI) calibration value.*/
        __HAL_RCC_MSI_CALIBRATIONVALUE_ADJUST(RCC_OscInitStruct->MSICalibrationValue);
 8001408:	4b39      	ldr	r3, [pc, #228]	; (80014f0 <HAL_RCC_OscConfig+0x298>)
 800140a:	685b      	ldr	r3, [r3, #4]
 800140c:	f423 427f 	bic.w	r2, r3, #65280	; 0xff00
 8001410:	687b      	ldr	r3, [r7, #4]
 8001412:	69db      	ldr	r3, [r3, #28]
 8001414:	021b      	lsls	r3, r3, #8
 8001416:	4936      	ldr	r1, [pc, #216]	; (80014f0 <HAL_RCC_OscConfig+0x298>)
 8001418:	4313      	orrs	r3, r2
 800141a:	604b      	str	r3, [r1, #4]
 800141c:	e01a      	b.n	8001454 <HAL_RCC_OscConfig+0x1fc>

      }
      else
      {
        /* Disable the Internal High Speed oscillator (MSI). */
        __HAL_RCC_MSI_DISABLE();
 800141e:	4b34      	ldr	r3, [pc, #208]	; (80014f0 <HAL_RCC_OscConfig+0x298>)
 8001420:	681b      	ldr	r3, [r3, #0]
 8001422:	4a33      	ldr	r2, [pc, #204]	; (80014f0 <HAL_RCC_OscConfig+0x298>)
 8001424:	f023 0301 	bic.w	r3, r3, #1
 8001428:	6013      	str	r3, [r2, #0]

        /* Get timeout */
        tickstart = HAL_GetTick();
 800142a:	f7ff fbb7 	bl	8000b9c <HAL_GetTick>
 800142e:	6138      	str	r0, [r7, #16]

        /* Wait till MSI is ready */
        while(READ_BIT(RCC->CR, RCC_CR_MSIRDY) != 0U)
 8001430:	e008      	b.n	8001444 <HAL_RCC_OscConfig+0x1ec>
        {
          if((HAL_GetTick() - tickstart) > MSI_TIMEOUT_VALUE)
 8001432:	f7ff fbb3 	bl	8000b9c <HAL_GetTick>
 8001436:	4602      	mov	r2, r0
 8001438:	693b      	ldr	r3, [r7, #16]
 800143a:	1ad3      	subs	r3, r2, r3
 800143c:	2b02      	cmp	r3, #2
 800143e:	d901      	bls.n	8001444 <HAL_RCC_OscConfig+0x1ec>
          {
            return HAL_TIMEOUT;
 8001440:	2303      	movs	r3, #3
 8001442:	e2e7      	b.n	8001a14 <HAL_RCC_OscConfig+0x7bc>
        while(READ_BIT(RCC->CR, RCC_CR_MSIRDY) != 0U)
 8001444:	4b2a      	ldr	r3, [pc, #168]	; (80014f0 <HAL_RCC_OscConfig+0x298>)
 8001446:	681b      	ldr	r3, [r3, #0]
 8001448:	f003 0302 	and.w	r3, r3, #2
 800144c:	2b00      	cmp	r3, #0
 800144e:	d1f0      	bne.n	8001432 <HAL_RCC_OscConfig+0x1da>
 8001450:	e000      	b.n	8001454 <HAL_RCC_OscConfig+0x1fc>
      if((READ_BIT(RCC->CR, RCC_CR_MSIRDY) != 0U) && (RCC_OscInitStruct->MSIState == RCC_MSI_OFF))
 8001452:	bf00      	nop
        }
      }
    }
  }
  /*------------------------------- HSE Configuration ------------------------*/
  if(((RCC_OscInitStruct->OscillatorType) & RCC_OSCILLATORTYPE_HSE) == RCC_OSCILLATORTYPE_HSE)
 8001454:	687b      	ldr	r3, [r7, #4]
 8001456:	681b      	ldr	r3, [r3, #0]
 8001458:	f003 0301 	and.w	r3, r3, #1
 800145c:	2b00      	cmp	r3, #0
 800145e:	d074      	beq.n	800154a <HAL_RCC_OscConfig+0x2f2>
  {
    /* Check the parameters */
    assert_param(IS_RCC_HSE(RCC_OscInitStruct->HSEState));

    /* When the HSE is used as system clock or clock source for PLL in these cases it is not allowed to be disabled */
    if((sysclk_source == RCC_CFGR_SWS_HSE) ||
 8001460:	69bb      	ldr	r3, [r7, #24]
 8001462:	2b08      	cmp	r3, #8
 8001464:	d005      	beq.n	8001472 <HAL_RCC_OscConfig+0x21a>
 8001466:	69bb      	ldr	r3, [r7, #24]
 8001468:	2b0c      	cmp	r3, #12
 800146a:	d10e      	bne.n	800148a <HAL_RCC_OscConfig+0x232>
       ((sysclk_source == RCC_CFGR_SWS_PLL) && (pll_config == RCC_PLLSOURCE_HSE)))
 800146c:	697b      	ldr	r3, [r7, #20]
 800146e:	2b03      	cmp	r3, #3
 8001470:	d10b      	bne.n	800148a <HAL_RCC_OscConfig+0x232>
    {
      if((READ_BIT(RCC->CR, RCC_CR_HSERDY) != 0U) && (RCC_OscInitStruct->HSEState == RCC_HSE_OFF))
 8001472:	4b1f      	ldr	r3, [pc, #124]	; (80014f0 <HAL_RCC_OscConfig+0x298>)
 8001474:	681b      	ldr	r3, [r3, #0]
 8001476:	f403 3300 	and.w	r3, r3, #131072	; 0x20000
 800147a:	2b00      	cmp	r3, #0
 800147c:	d064      	beq.n	8001548 <HAL_RCC_OscConfig+0x2f0>
 800147e:	687b      	ldr	r3, [r7, #4]
 8001480:	685b      	ldr	r3, [r3, #4]
 8001482:	2b00      	cmp	r3, #0
 8001484:	d160      	bne.n	8001548 <HAL_RCC_OscConfig+0x2f0>
      {
        return HAL_ERROR;
 8001486:	2301      	movs	r3, #1
 8001488:	e2c4      	b.n	8001a14 <HAL_RCC_OscConfig+0x7bc>
      }
    }
    else
    {
      /* Set the new HSE configuration ---------------------------------------*/
      __HAL_RCC_HSE_CONFIG(RCC_OscInitStruct->HSEState);
 800148a:	687b      	ldr	r3, [r7, #4]
 800148c:	685b      	ldr	r3, [r3, #4]
 800148e:	f5b3 3f80 	cmp.w	r3, #65536	; 0x10000
 8001492:	d106      	bne.n	80014a2 <HAL_RCC_OscConfig+0x24a>
 8001494:	4b16      	ldr	r3, [pc, #88]	; (80014f0 <HAL_RCC_OscConfig+0x298>)
 8001496:	681b      	ldr	r3, [r3, #0]
 8001498:	4a15      	ldr	r2, [pc, #84]	; (80014f0 <HAL_RCC_OscConfig+0x298>)
 800149a:	f443 3380 	orr.w	r3, r3, #65536	; 0x10000
 800149e:	6013      	str	r3, [r2, #0]
 80014a0:	e01d      	b.n	80014de <HAL_RCC_OscConfig+0x286>
 80014a2:	687b      	ldr	r3, [r7, #4]
 80014a4:	685b      	ldr	r3, [r3, #4]
 80014a6:	f5b3 2fa0 	cmp.w	r3, #327680	; 0x50000
 80014aa:	d10c      	bne.n	80014c6 <HAL_RCC_OscConfig+0x26e>
 80014ac:	4b10      	ldr	r3, [pc, #64]	; (80014f0 <HAL_RCC_OscConfig+0x298>)
 80014ae:	681b      	ldr	r3, [r3, #0]
 80014b0:	4a0f      	ldr	r2, [pc, #60]	; (80014f0 <HAL_RCC_OscConfig+0x298>)
 80014b2:	f443 2380 	orr.w	r3, r3, #262144	; 0x40000
 80014b6:	6013      	str	r3, [r2, #0]
 80014b8:	4b0d      	ldr	r3, [pc, #52]	; (80014f0 <HAL_RCC_OscConfig+0x298>)
 80014ba:	681b      	ldr	r3, [r3, #0]
 80014bc:	4a0c      	ldr	r2, [pc, #48]	; (80014f0 <HAL_RCC_OscConfig+0x298>)
 80014be:	f443 3380 	orr.w	r3, r3, #65536	; 0x10000
 80014c2:	6013      	str	r3, [r2, #0]
 80014c4:	e00b      	b.n	80014de <HAL_RCC_OscConfig+0x286>
 80014c6:	4b0a      	ldr	r3, [pc, #40]	; (80014f0 <HAL_RCC_OscConfig+0x298>)
 80014c8:	681b      	ldr	r3, [r3, #0]
 80014ca:	4a09      	ldr	r2, [pc, #36]	; (80014f0 <HAL_RCC_OscConfig+0x298>)
 80014cc:	f423 3380 	bic.w	r3, r3, #65536	; 0x10000
 80014d0:	6013      	str	r3, [r2, #0]
 80014d2:	4b07      	ldr	r3, [pc, #28]	; (80014f0 <HAL_RCC_OscConfig+0x298>)
 80014d4:	681b      	ldr	r3, [r3, #0]
 80014d6:	4a06      	ldr	r2, [pc, #24]	; (80014f0 <HAL_RCC_OscConfig+0x298>)
 80014d8:	f423 2380 	bic.w	r3, r3, #262144	; 0x40000
 80014dc:	6013      	str	r3, [r2, #0]

      /* Check the HSE State */
      if(RCC_OscInitStruct->HSEState != RCC_HSE_OFF)
 80014de:	687b      	ldr	r3, [r7, #4]
 80014e0:	685b      	ldr	r3, [r3, #4]
 80014e2:	2b00      	cmp	r3, #0
 80014e4:	d01c      	beq.n	8001520 <HAL_RCC_OscConfig+0x2c8>
      {
        /* Get Start Tick*/
        tickstart = HAL_GetTick();
 80014e6:	f7ff fb59 	bl	8000b9c <HAL_GetTick>
 80014ea:	6138      	str	r0, [r7, #16]

        /* Wait till HSE is ready */
        while(READ_BIT(RCC->CR, RCC_CR_HSERDY) == 0U)
 80014ec:	e011      	b.n	8001512 <HAL_RCC_OscConfig+0x2ba>
 80014ee:	bf00      	nop
 80014f0:	40021000 	.word	0x40021000
 80014f4:	08003758 	.word	0x08003758
 80014f8:	20000000 	.word	0x20000000
 80014fc:	20000004 	.word	0x20000004
        {
          if((HAL_GetTick() - tickstart) > HSE_TIMEOUT_VALUE)
 8001500:	f7ff fb4c 	bl	8000b9c <HAL_GetTick>
 8001504:	4602      	mov	r2, r0
 8001506:	693b      	ldr	r3, [r7, #16]
 8001508:	1ad3      	subs	r3, r2, r3
 800150a:	2b64      	cmp	r3, #100	; 0x64
 800150c:	d901      	bls.n	8001512 <HAL_RCC_OscConfig+0x2ba>
          {
            return HAL_TIMEOUT;
 800150e:	2303      	movs	r3, #3
 8001510:	e280      	b.n	8001a14 <HAL_RCC_OscConfig+0x7bc>
        while(READ_BIT(RCC->CR, RCC_CR_HSERDY) == 0U)
 8001512:	4baf      	ldr	r3, [pc, #700]	; (80017d0 <HAL_RCC_OscConfig+0x578>)
 8001514:	681b      	ldr	r3, [r3, #0]
 8001516:	f403 3300 	and.w	r3, r3, #131072	; 0x20000
 800151a:	2b00      	cmp	r3, #0
 800151c:	d0f0      	beq.n	8001500 <HAL_RCC_OscConfig+0x2a8>
 800151e:	e014      	b.n	800154a <HAL_RCC_OscConfig+0x2f2>
        }
      }
      else
      {
        /* Get Start Tick*/
        tickstart = HAL_GetTick();
 8001520:	f7ff fb3c 	bl	8000b9c <HAL_GetTick>
 8001524:	6138      	str	r0, [r7, #16]

        /* Wait till HSE is disabled */
        while(READ_BIT(RCC->CR, RCC_CR_HSERDY) != 0U)
 8001526:	e008      	b.n	800153a <HAL_RCC_OscConfig+0x2e2>
        {
          if((HAL_GetTick() - tickstart) > HSE_TIMEOUT_VALUE)
 8001528:	f7ff fb38 	bl	8000b9c <HAL_GetTick>
 800152c:	4602      	mov	r2, r0
 800152e:	693b      	ldr	r3, [r7, #16]
 8001530:	1ad3      	subs	r3, r2, r3
 8001532:	2b64      	cmp	r3, #100	; 0x64
 8001534:	d901      	bls.n	800153a <HAL_RCC_OscConfig+0x2e2>
          {
            return HAL_TIMEOUT;
 8001536:	2303      	movs	r3, #3
 8001538:	e26c      	b.n	8001a14 <HAL_RCC_OscConfig+0x7bc>
        while(READ_BIT(RCC->CR, RCC_CR_HSERDY) != 0U)
 800153a:	4ba5      	ldr	r3, [pc, #660]	; (80017d0 <HAL_RCC_OscConfig+0x578>)
 800153c:	681b      	ldr	r3, [r3, #0]
 800153e:	f403 3300 	and.w	r3, r3, #131072	; 0x20000
 8001542:	2b00      	cmp	r3, #0
 8001544:	d1f0      	bne.n	8001528 <HAL_RCC_OscConfig+0x2d0>
 8001546:	e000      	b.n	800154a <HAL_RCC_OscConfig+0x2f2>
      if((READ_BIT(RCC->CR, RCC_CR_HSERDY) != 0U) && (RCC_OscInitStruct->HSEState == RCC_HSE_OFF))
 8001548:	bf00      	nop
        }
      }
    }
  }
  /*----------------------------- HSI Configuration --------------------------*/
  if(((RCC_OscInitStruct->OscillatorType) & RCC_OSCILLATORTYPE_HSI) == RCC_OSCILLATORTYPE_HSI)
 800154a:	687b      	ldr	r3, [r7, #4]
 800154c:	681b      	ldr	r3, [r3, #0]
 800154e:	f003 0302 	and.w	r3, r3, #2
 8001552:	2b00      	cmp	r3, #0
 8001554:	d060      	beq.n	8001618 <HAL_RCC_OscConfig+0x3c0>
    /* Check the parameters */
    assert_param(IS_RCC_HSI(RCC_OscInitStruct->HSIState));
    assert_param(IS_RCC_HSI_CALIBRATION_VALUE(RCC_OscInitStruct->HSICalibrationValue));

    /* Check if HSI is used as system clock or as PLL source when PLL is selected as system clock */
    if((sysclk_source == RCC_CFGR_SWS_HSI) ||
 8001556:	69bb      	ldr	r3, [r7, #24]
 8001558:	2b04      	cmp	r3, #4
 800155a:	d005      	beq.n	8001568 <HAL_RCC_OscConfig+0x310>
 800155c:	69bb      	ldr	r3, [r7, #24]
 800155e:	2b0c      	cmp	r3, #12
 8001560:	d119      	bne.n	8001596 <HAL_RCC_OscConfig+0x33e>
       ((sysclk_source == RCC_CFGR_SWS_PLL) && (pll_config == RCC_PLLSOURCE_HSI)))
 8001562:	697b      	ldr	r3, [r7, #20]
 8001564:	2b02      	cmp	r3, #2
 8001566:	d116      	bne.n	8001596 <HAL_RCC_OscConfig+0x33e>
    {
      /* When HSI is used as system clock it will not be disabled */
      if((READ_BIT(RCC->CR, RCC_CR_HSIRDY) != 0U) && (RCC_OscInitStruct->HSIState == RCC_HSI_OFF))
 8001568:	4b99      	ldr	r3, [pc, #612]	; (80017d0 <HAL_RCC_OscConfig+0x578>)
 800156a:	681b      	ldr	r3, [r3, #0]
 800156c:	f403 6380 	and.w	r3, r3, #1024	; 0x400
 8001570:	2b00      	cmp	r3, #0
 8001572:	d005      	beq.n	8001580 <HAL_RCC_OscConfig+0x328>
 8001574:	687b      	ldr	r3, [r7, #4]
 8001576:	68db      	ldr	r3, [r3, #12]
 8001578:	2b00      	cmp	r3, #0
 800157a:	d101      	bne.n	8001580 <HAL_RCC_OscConfig+0x328>
      {
        return HAL_ERROR;
 800157c:	2301      	movs	r3, #1
 800157e:	e249      	b.n	8001a14 <HAL_RCC_OscConfig+0x7bc>
      }
      /* Otherwise, just the calibration is allowed */
      else
      {
        /* Adjusts the Internal High Speed oscillator (HSI) calibration value.*/
        __HAL_RCC_HSI_CALIBRATIONVALUE_ADJUST(RCC_OscInitStruct->HSICalibrationValue);
 8001580:	4b93      	ldr	r3, [pc, #588]	; (80017d0 <HAL_RCC_OscConfig+0x578>)
 8001582:	685b      	ldr	r3, [r3, #4]
 8001584:	f023 52f8 	bic.w	r2, r3, #520093696	; 0x1f000000
 8001588:	687b      	ldr	r3, [r7, #4]
 800158a:	691b      	ldr	r3, [r3, #16]
 800158c:	061b      	lsls	r3, r3, #24
 800158e:	4990      	ldr	r1, [pc, #576]	; (80017d0 <HAL_RCC_OscConfig+0x578>)
 8001590:	4313      	orrs	r3, r2
 8001592:	604b      	str	r3, [r1, #4]
      if((READ_BIT(RCC->CR, RCC_CR_HSIRDY) != 0U) && (RCC_OscInitStruct->HSIState == RCC_HSI_OFF))
 8001594:	e040      	b.n	8001618 <HAL_RCC_OscConfig+0x3c0>
      }
    }
    else
    {
      /* Check the HSI State */
      if(RCC_OscInitStruct->HSIState != RCC_HSI_OFF)
 8001596:	687b      	ldr	r3, [r7, #4]
 8001598:	68db      	ldr	r3, [r3, #12]
 800159a:	2b00      	cmp	r3, #0
 800159c:	d023      	beq.n	80015e6 <HAL_RCC_OscConfig+0x38e>
      {
        /* Enable the Internal High Speed oscillator (HSI). */
        __HAL_RCC_HSI_ENABLE();
 800159e:	4b8c      	ldr	r3, [pc, #560]	; (80017d0 <HAL_RCC_OscConfig+0x578>)
 80015a0:	681b      	ldr	r3, [r3, #0]
 80015a2:	4a8b      	ldr	r2, [pc, #556]	; (80017d0 <HAL_RCC_OscConfig+0x578>)
 80015a4:	f443 7380 	orr.w	r3, r3, #256	; 0x100
 80015a8:	6013      	str	r3, [r2, #0]

        /* Get Start Tick*/
        tickstart = HAL_GetTick();
 80015aa:	f7ff faf7 	bl	8000b9c <HAL_GetTick>
 80015ae:	6138      	str	r0, [r7, #16]

        /* Wait till HSI is ready */
        while(READ_BIT(RCC->CR, RCC_CR_HSIRDY) == 0U)
 80015b0:	e008      	b.n	80015c4 <HAL_RCC_OscConfig+0x36c>
        {
          if((HAL_GetTick() - tickstart) > HSI_TIMEOUT_VALUE)
 80015b2:	f7ff faf3 	bl	8000b9c <HAL_GetTick>
 80015b6:	4602      	mov	r2, r0
 80015b8:	693b      	ldr	r3, [r7, #16]
 80015ba:	1ad3      	subs	r3, r2, r3
 80015bc:	2b02      	cmp	r3, #2
 80015be:	d901      	bls.n	80015c4 <HAL_RCC_OscConfig+0x36c>
          {
            return HAL_TIMEOUT;
 80015c0:	2303      	movs	r3, #3
 80015c2:	e227      	b.n	8001a14 <HAL_RCC_OscConfig+0x7bc>
        while(READ_BIT(RCC->CR, RCC_CR_HSIRDY) == 0U)
 80015c4:	4b82      	ldr	r3, [pc, #520]	; (80017d0 <HAL_RCC_OscConfig+0x578>)
 80015c6:	681b      	ldr	r3, [r3, #0]
 80015c8:	f403 6380 	and.w	r3, r3, #1024	; 0x400
 80015cc:	2b00      	cmp	r3, #0
 80015ce:	d0f0      	beq.n	80015b2 <HAL_RCC_OscConfig+0x35a>
          }
        }

        /* Adjusts the Internal High Speed oscillator (HSI) calibration value.*/
        __HAL_RCC_HSI_CALIBRATIONVALUE_ADJUST(RCC_OscInitStruct->HSICalibrationValue);
 80015d0:	4b7f      	ldr	r3, [pc, #508]	; (80017d0 <HAL_RCC_OscConfig+0x578>)
 80015d2:	685b      	ldr	r3, [r3, #4]
 80015d4:	f023 52f8 	bic.w	r2, r3, #520093696	; 0x1f000000
 80015d8:	687b      	ldr	r3, [r7, #4]
 80015da:	691b      	ldr	r3, [r3, #16]
 80015dc:	061b      	lsls	r3, r3, #24
 80015de:	497c      	ldr	r1, [pc, #496]	; (80017d0 <HAL_RCC_OscConfig+0x578>)
 80015e0:	4313      	orrs	r3, r2
 80015e2:	604b      	str	r3, [r1, #4]
 80015e4:	e018      	b.n	8001618 <HAL_RCC_OscConfig+0x3c0>
      }
      else
      {
        /* Disable the Internal High Speed oscillator (HSI). */
        __HAL_RCC_HSI_DISABLE();
 80015e6:	4b7a      	ldr	r3, [pc, #488]	; (80017d0 <HAL_RCC_OscConfig+0x578>)
 80015e8:	681b      	ldr	r3, [r3, #0]
 80015ea:	4a79      	ldr	r2, [pc, #484]	; (80017d0 <HAL_RCC_OscConfig+0x578>)
 80015ec:	f423 7380 	bic.w	r3, r3, #256	; 0x100
 80015f0:	6013      	str	r3, [r2, #0]

        /* Get Start Tick*/
        tickstart = HAL_GetTick();
 80015f2:	f7ff fad3 	bl	8000b9c <HAL_GetTick>
 80015f6:	6138      	str	r0, [r7, #16]

        /* Wait till HSI is disabled */
        while(READ_BIT(RCC->CR, RCC_CR_HSIRDY) != 0U)
 80015f8:	e008      	b.n	800160c <HAL_RCC_OscConfig+0x3b4>
        {
          if((HAL_GetTick() - tickstart) > HSI_TIMEOUT_VALUE)
 80015fa:	f7ff facf 	bl	8000b9c <HAL_GetTick>
 80015fe:	4602      	mov	r2, r0
 8001600:	693b      	ldr	r3, [r7, #16]
 8001602:	1ad3      	subs	r3, r2, r3
 8001604:	2b02      	cmp	r3, #2
 8001606:	d901      	bls.n	800160c <HAL_RCC_OscConfig+0x3b4>
          {
            return HAL_TIMEOUT;
 8001608:	2303      	movs	r3, #3
 800160a:	e203      	b.n	8001a14 <HAL_RCC_OscConfig+0x7bc>
        while(READ_BIT(RCC->CR, RCC_CR_HSIRDY) != 0U)
 800160c:	4b70      	ldr	r3, [pc, #448]	; (80017d0 <HAL_RCC_OscConfig+0x578>)
 800160e:	681b      	ldr	r3, [r3, #0]
 8001610:	f403 6380 	and.w	r3, r3, #1024	; 0x400
 8001614:	2b00      	cmp	r3, #0
 8001616:	d1f0      	bne.n	80015fa <HAL_RCC_OscConfig+0x3a2>
        }
      }
    }
  }
  /*------------------------------ LSI Configuration -------------------------*/
  if(((RCC_OscInitStruct->OscillatorType) & RCC_OSCILLATORTYPE_LSI) == RCC_OSCILLATORTYPE_LSI)
 8001618:	687b      	ldr	r3, [r7, #4]
 800161a:	681b      	ldr	r3, [r3, #0]
 800161c:	f003 0308 	and.w	r3, r3, #8
 8001620:	2b00      	cmp	r3, #0
 8001622:	d03c      	beq.n	800169e <HAL_RCC_OscConfig+0x446>
  {
    /* Check the parameters */
    assert_param(IS_RCC_LSI(RCC_OscInitStruct->LSIState));

    /* Check the LSI State */
    if(RCC_OscInitStruct->LSIState != RCC_LSI_OFF)
 8001624:	687b      	ldr	r3, [r7, #4]
 8001626:	695b      	ldr	r3, [r3, #20]
 8001628:	2b00      	cmp	r3, #0
 800162a:	d01c      	beq.n	8001666 <HAL_RCC_OscConfig+0x40e>
        MODIFY_REG(RCC->CSR, RCC_CSR_LSIPREDIV, RCC_OscInitStruct->LSIDiv);
      }
#endif /* RCC_CSR_LSIPREDIV */

      /* Enable the Internal Low Speed oscillator (LSI). */
      __HAL_RCC_LSI_ENABLE();
 800162c:	4b68      	ldr	r3, [pc, #416]	; (80017d0 <HAL_RCC_OscConfig+0x578>)
 800162e:	f8d3 3094 	ldr.w	r3, [r3, #148]	; 0x94
 8001632:	4a67      	ldr	r2, [pc, #412]	; (80017d0 <HAL_RCC_OscConfig+0x578>)
 8001634:	f043 0301 	orr.w	r3, r3, #1
 8001638:	f8c2 3094 	str.w	r3, [r2, #148]	; 0x94

      /* Get Start Tick*/
      tickstart = HAL_GetTick();
 800163c:	f7ff faae 	bl	8000b9c <HAL_GetTick>
 8001640:	6138      	str	r0, [r7, #16]

      /* Wait till LSI is ready */
      while(READ_BIT(RCC->CSR, RCC_CSR_LSIRDY) == 0U)
 8001642:	e008      	b.n	8001656 <HAL_RCC_OscConfig+0x3fe>
      {
        if((HAL_GetTick() - tickstart) > LSI_TIMEOUT_VALUE)
 8001644:	f7ff faaa 	bl	8000b9c <HAL_GetTick>
 8001648:	4602      	mov	r2, r0
 800164a:	693b      	ldr	r3, [r7, #16]
 800164c:	1ad3      	subs	r3, r2, r3
 800164e:	2b02      	cmp	r3, #2
 8001650:	d901      	bls.n	8001656 <HAL_RCC_OscConfig+0x3fe>
        {
          return HAL_TIMEOUT;
 8001652:	2303      	movs	r3, #3
 8001654:	e1de      	b.n	8001a14 <HAL_RCC_OscConfig+0x7bc>
      while(READ_BIT(RCC->CSR, RCC_CSR_LSIRDY) == 0U)
 8001656:	4b5e      	ldr	r3, [pc, #376]	; (80017d0 <HAL_RCC_OscConfig+0x578>)
 8001658:	f8d3 3094 	ldr.w	r3, [r3, #148]	; 0x94
 800165c:	f003 0302 	and.w	r3, r3, #2
 8001660:	2b00      	cmp	r3, #0
 8001662:	d0ef      	beq.n	8001644 <HAL_RCC_OscConfig+0x3ec>
 8001664:	e01b      	b.n	800169e <HAL_RCC_OscConfig+0x446>
      }
    }
    else
    {
      /* Disable the Internal Low Speed oscillator (LSI). */
      __HAL_RCC_LSI_DISABLE();
 8001666:	4b5a      	ldr	r3, [pc, #360]	; (80017d0 <HAL_RCC_OscConfig+0x578>)
 8001668:	f8d3 3094 	ldr.w	r3, [r3, #148]	; 0x94
 800166c:	4a58      	ldr	r2, [pc, #352]	; (80017d0 <HAL_RCC_OscConfig+0x578>)
 800166e:	f023 0301 	bic.w	r3, r3, #1
 8001672:	f8c2 3094 	str.w	r3, [r2, #148]	; 0x94

      /* Get Start Tick*/
      tickstart = HAL_GetTick();
 8001676:	f7ff fa91 	bl	8000b9c <HAL_GetTick>
 800167a:	6138      	str	r0, [r7, #16]

      /* Wait till LSI is disabled */
      while(READ_BIT(RCC->CSR, RCC_CSR_LSIRDY) != 0U)
 800167c:	e008      	b.n	8001690 <HAL_RCC_OscConfig+0x438>
      {
        if((HAL_GetTick() - tickstart) > LSI_TIMEOUT_VALUE)
 800167e:	f7ff fa8d 	bl	8000b9c <HAL_GetTick>
 8001682:	4602      	mov	r2, r0
 8001684:	693b      	ldr	r3, [r7, #16]
 8001686:	1ad3      	subs	r3, r2, r3
 8001688:	2b02      	cmp	r3, #2
 800168a:	d901      	bls.n	8001690 <HAL_RCC_OscConfig+0x438>
        {
          return HAL_TIMEOUT;
 800168c:	2303      	movs	r3, #3
 800168e:	e1c1      	b.n	8001a14 <HAL_RCC_OscConfig+0x7bc>
      while(READ_BIT(RCC->CSR, RCC_CSR_LSIRDY) != 0U)
 8001690:	4b4f      	ldr	r3, [pc, #316]	; (80017d0 <HAL_RCC_OscConfig+0x578>)
 8001692:	f8d3 3094 	ldr.w	r3, [r3, #148]	; 0x94
 8001696:	f003 0302 	and.w	r3, r3, #2
 800169a:	2b00      	cmp	r3, #0
 800169c:	d1ef      	bne.n	800167e <HAL_RCC_OscConfig+0x426>
        }
      }
    }
  }
  /*------------------------------ LSE Configuration -------------------------*/
  if(((RCC_OscInitStruct->OscillatorType) & RCC_OSCILLATORTYPE_LSE) == RCC_OSCILLATORTYPE_LSE)
 800169e:	687b      	ldr	r3, [r7, #4]
 80016a0:	681b      	ldr	r3, [r3, #0]
 80016a2:	f003 0304 	and.w	r3, r3, #4
 80016a6:	2b00      	cmp	r3, #0
 80016a8:	f000 80a6 	beq.w	80017f8 <HAL_RCC_OscConfig+0x5a0>
  {
    FlagStatus       pwrclkchanged = RESET;
 80016ac:	2300      	movs	r3, #0
 80016ae:	77fb      	strb	r3, [r7, #31]
    /* Check the parameters */
    assert_param(IS_RCC_LSE(RCC_OscInitStruct->LSEState));

    /* Update LSE configuration in Backup Domain control register    */
    /* Requires to enable write access to Backup Domain of necessary */
    if(HAL_IS_BIT_CLR(RCC->APB1ENR1, RCC_APB1ENR1_PWREN))
 80016b0:	4b47      	ldr	r3, [pc, #284]	; (80017d0 <HAL_RCC_OscConfig+0x578>)
 80016b2:	6d9b      	ldr	r3, [r3, #88]	; 0x58
 80016b4:	f003 5380 	and.w	r3, r3, #268435456	; 0x10000000
 80016b8:	2b00      	cmp	r3, #0
 80016ba:	d10d      	bne.n	80016d8 <HAL_RCC_OscConfig+0x480>
    {
      __HAL_RCC_PWR_CLK_ENABLE();
 80016bc:	4b44      	ldr	r3, [pc, #272]	; (80017d0 <HAL_RCC_OscConfig+0x578>)
 80016be:	6d9b      	ldr	r3, [r3, #88]	; 0x58
 80016c0:	4a43      	ldr	r2, [pc, #268]	; (80017d0 <HAL_RCC_OscConfig+0x578>)
 80016c2:	f043 5380 	orr.w	r3, r3, #268435456	; 0x10000000
 80016c6:	6593      	str	r3, [r2, #88]	; 0x58
 80016c8:	4b41      	ldr	r3, [pc, #260]	; (80017d0 <HAL_RCC_OscConfig+0x578>)
 80016ca:	6d9b      	ldr	r3, [r3, #88]	; 0x58
 80016cc:	f003 5380 	and.w	r3, r3, #268435456	; 0x10000000
 80016d0:	60bb      	str	r3, [r7, #8]
 80016d2:	68bb      	ldr	r3, [r7, #8]
      pwrclkchanged = SET;
 80016d4:	2301      	movs	r3, #1
 80016d6:	77fb      	strb	r3, [r7, #31]
    }

    if(HAL_IS_BIT_CLR(PWR->CR1, PWR_CR1_DBP))
 80016d8:	4b3e      	ldr	r3, [pc, #248]	; (80017d4 <HAL_RCC_OscConfig+0x57c>)
 80016da:	681b      	ldr	r3, [r3, #0]
 80016dc:	f403 7380 	and.w	r3, r3, #256	; 0x100
 80016e0:	2b00      	cmp	r3, #0
 80016e2:	d118      	bne.n	8001716 <HAL_RCC_OscConfig+0x4be>
    {
      /* Enable write access to Backup domain */
      SET_BIT(PWR->CR1, PWR_CR1_DBP);
 80016e4:	4b3b      	ldr	r3, [pc, #236]	; (80017d4 <HAL_RCC_OscConfig+0x57c>)
 80016e6:	681b      	ldr	r3, [r3, #0]
 80016e8:	4a3a      	ldr	r2, [pc, #232]	; (80017d4 <HAL_RCC_OscConfig+0x57c>)
 80016ea:	f443 7380 	orr.w	r3, r3, #256	; 0x100
 80016ee:	6013      	str	r3, [r2, #0]

      /* Wait for Backup domain Write protection disable */
      tickstart = HAL_GetTick();
 80016f0:	f7ff fa54 	bl	8000b9c <HAL_GetTick>
 80016f4:	6138      	str	r0, [r7, #16]

      while(HAL_IS_BIT_CLR(PWR->CR1, PWR_CR1_DBP))
 80016f6:	e008      	b.n	800170a <HAL_RCC_OscConfig+0x4b2>
      {
        if((HAL_GetTick() - tickstart) > RCC_DBP_TIMEOUT_VALUE)
 80016f8:	f7ff fa50 	bl	8000b9c <HAL_GetTick>
 80016fc:	4602      	mov	r2, r0
 80016fe:	693b      	ldr	r3, [r7, #16]
 8001700:	1ad3      	subs	r3, r2, r3
 8001702:	2b02      	cmp	r3, #2
 8001704:	d901      	bls.n	800170a <HAL_RCC_OscConfig+0x4b2>
        {
          return HAL_TIMEOUT;
 8001706:	2303      	movs	r3, #3
 8001708:	e184      	b.n	8001a14 <HAL_RCC_OscConfig+0x7bc>
      while(HAL_IS_BIT_CLR(PWR->CR1, PWR_CR1_DBP))
 800170a:	4b32      	ldr	r3, [pc, #200]	; (80017d4 <HAL_RCC_OscConfig+0x57c>)
 800170c:	681b      	ldr	r3, [r3, #0]
 800170e:	f403 7380 	and.w	r3, r3, #256	; 0x100
 8001712:	2b00      	cmp	r3, #0
 8001714:	d0f0      	beq.n	80016f8 <HAL_RCC_OscConfig+0x4a0>
    {
      CLEAR_BIT(RCC->BDCR, RCC_BDCR_LSEON);
      CLEAR_BIT(RCC->BDCR, RCC_BDCR_LSEBYP);
    }
#else
    __HAL_RCC_LSE_CONFIG(RCC_OscInitStruct->LSEState);
 8001716:	687b      	ldr	r3, [r7, #4]
 8001718:	689b      	ldr	r3, [r3, #8]
 800171a:	2b01      	cmp	r3, #1
 800171c:	d108      	bne.n	8001730 <HAL_RCC_OscConfig+0x4d8>
 800171e:	4b2c      	ldr	r3, [pc, #176]	; (80017d0 <HAL_RCC_OscConfig+0x578>)
 8001720:	f8d3 3090 	ldr.w	r3, [r3, #144]	; 0x90
 8001724:	4a2a      	ldr	r2, [pc, #168]	; (80017d0 <HAL_RCC_OscConfig+0x578>)
 8001726:	f043 0301 	orr.w	r3, r3, #1
 800172a:	f8c2 3090 	str.w	r3, [r2, #144]	; 0x90
 800172e:	e024      	b.n	800177a <HAL_RCC_OscConfig+0x522>
 8001730:	687b      	ldr	r3, [r7, #4]
 8001732:	689b      	ldr	r3, [r3, #8]
 8001734:	2b05      	cmp	r3, #5
 8001736:	d110      	bne.n	800175a <HAL_RCC_OscConfig+0x502>
 8001738:	4b25      	ldr	r3, [pc, #148]	; (80017d0 <HAL_RCC_OscConfig+0x578>)
 800173a:	f8d3 3090 	ldr.w	r3, [r3, #144]	; 0x90
 800173e:	4a24      	ldr	r2, [pc, #144]	; (80017d0 <HAL_RCC_OscConfig+0x578>)
 8001740:	f043 0304 	orr.w	r3, r3, #4
 8001744:	f8c2 3090 	str.w	r3, [r2, #144]	; 0x90
 8001748:	4b21      	ldr	r3, [pc, #132]	; (80017d0 <HAL_RCC_OscConfig+0x578>)
 800174a:	f8d3 3090 	ldr.w	r3, [r3, #144]	; 0x90
 800174e:	4a20      	ldr	r2, [pc, #128]	; (80017d0 <HAL_RCC_OscConfig+0x578>)
 8001750:	f043 0301 	orr.w	r3, r3, #1
 8001754:	f8c2 3090 	str.w	r3, [r2, #144]	; 0x90
 8001758:	e00f      	b.n	800177a <HAL_RCC_OscConfig+0x522>
 800175a:	4b1d      	ldr	r3, [pc, #116]	; (80017d0 <HAL_RCC_OscConfig+0x578>)
 800175c:	f8d3 3090 	ldr.w	r3, [r3, #144]	; 0x90
 8001760:	4a1b      	ldr	r2, [pc, #108]	; (80017d0 <HAL_RCC_OscConfig+0x578>)
 8001762:	f023 0301 	bic.w	r3, r3, #1
 8001766:	f8c2 3090 	str.w	r3, [r2, #144]	; 0x90
 800176a:	4b19      	ldr	r3, [pc, #100]	; (80017d0 <HAL_RCC_OscConfig+0x578>)
 800176c:	f8d3 3090 	ldr.w	r3, [r3, #144]	; 0x90
 8001770:	4a17      	ldr	r2, [pc, #92]	; (80017d0 <HAL_RCC_OscConfig+0x578>)
 8001772:	f023 0304 	bic.w	r3, r3, #4
 8001776:	f8c2 3090 	str.w	r3, [r2, #144]	; 0x90
#endif /* RCC_BDCR_LSESYSDIS */

    /* Check the LSE State */
    if(RCC_OscInitStruct->LSEState != RCC_LSE_OFF)
 800177a:	687b      	ldr	r3, [r7, #4]
 800177c:	689b      	ldr	r3, [r3, #8]
 800177e:	2b00      	cmp	r3, #0
 8001780:	d016      	beq.n	80017b0 <HAL_RCC_OscConfig+0x558>
    {
      /* Get Start Tick*/
      tickstart = HAL_GetTick();
 8001782:	f7ff fa0b 	bl	8000b9c <HAL_GetTick>
 8001786:	6138      	str	r0, [r7, #16]

      /* Wait till LSE is ready */
      while(READ_BIT(RCC->BDCR, RCC_BDCR_LSERDY) == 0U)
 8001788:	e00a      	b.n	80017a0 <HAL_RCC_OscConfig+0x548>
      {
        if((HAL_GetTick() - tickstart) > RCC_LSE_TIMEOUT_VALUE)
 800178a:	f7ff fa07 	bl	8000b9c <HAL_GetTick>
 800178e:	4602      	mov	r2, r0
 8001790:	693b      	ldr	r3, [r7, #16]
 8001792:	1ad3      	subs	r3, r2, r3
 8001794:	f241 3288 	movw	r2, #5000	; 0x1388
 8001798:	4293      	cmp	r3, r2
 800179a:	d901      	bls.n	80017a0 <HAL_RCC_OscConfig+0x548>
        {
          return HAL_TIMEOUT;
 800179c:	2303      	movs	r3, #3
 800179e:	e139      	b.n	8001a14 <HAL_RCC_OscConfig+0x7bc>
      while(READ_BIT(RCC->BDCR, RCC_BDCR_LSERDY) == 0U)
 80017a0:	4b0b      	ldr	r3, [pc, #44]	; (80017d0 <HAL_RCC_OscConfig+0x578>)
 80017a2:	f8d3 3090 	ldr.w	r3, [r3, #144]	; 0x90
 80017a6:	f003 0302 	and.w	r3, r3, #2
 80017aa:	2b00      	cmp	r3, #0
 80017ac:	d0ed      	beq.n	800178a <HAL_RCC_OscConfig+0x532>
 80017ae:	e01a      	b.n	80017e6 <HAL_RCC_OscConfig+0x58e>
      }
    }
    else
    {
      /* Get Start Tick*/
      tickstart = HAL_GetTick();
 80017b0:	f7ff f9f4 	bl	8000b9c <HAL_GetTick>
 80017b4:	6138      	str	r0, [r7, #16]

      /* Wait till LSE is disabled */
      while(READ_BIT(RCC->BDCR, RCC_BDCR_LSERDY) != 0U)
 80017b6:	e00f      	b.n	80017d8 <HAL_RCC_OscConfig+0x580>
      {
        if((HAL_GetTick() - tickstart) > RCC_LSE_TIMEOUT_VALUE)
 80017b8:	f7ff f9f0 	bl	8000b9c <HAL_GetTick>
 80017bc:	4602      	mov	r2, r0
 80017be:	693b      	ldr	r3, [r7, #16]
 80017c0:	1ad3      	subs	r3, r2, r3
 80017c2:	f241 3288 	movw	r2, #5000	; 0x1388
 80017c6:	4293      	cmp	r3, r2
 80017c8:	d906      	bls.n	80017d8 <HAL_RCC_OscConfig+0x580>
        {
          return HAL_TIMEOUT;
 80017ca:	2303      	movs	r3, #3
 80017cc:	e122      	b.n	8001a14 <HAL_RCC_OscConfig+0x7bc>
 80017ce:	bf00      	nop
 80017d0:	40021000 	.word	0x40021000
 80017d4:	40007000 	.word	0x40007000
      while(READ_BIT(RCC->BDCR, RCC_BDCR_LSERDY) != 0U)
 80017d8:	4b90      	ldr	r3, [pc, #576]	; (8001a1c <HAL_RCC_OscConfig+0x7c4>)
 80017da:	f8d3 3090 	ldr.w	r3, [r3, #144]	; 0x90
 80017de:	f003 0302 	and.w	r3, r3, #2
 80017e2:	2b00      	cmp	r3, #0
 80017e4:	d1e8      	bne.n	80017b8 <HAL_RCC_OscConfig+0x560>
      CLEAR_BIT(RCC->BDCR, RCC_BDCR_LSESYSDIS);
#endif /* RCC_BDCR_LSESYSDIS */
    }

    /* Restore clock configuration if changed */
    if(pwrclkchanged == SET)
 80017e6:	7ffb      	ldrb	r3, [r7, #31]
 80017e8:	2b01      	cmp	r3, #1
 80017ea:	d105      	bne.n	80017f8 <HAL_RCC_OscConfig+0x5a0>
    {
      __HAL_RCC_PWR_CLK_DISABLE();
 80017ec:	4b8b      	ldr	r3, [pc, #556]	; (8001a1c <HAL_RCC_OscConfig+0x7c4>)
 80017ee:	6d9b      	ldr	r3, [r3, #88]	; 0x58
 80017f0:	4a8a      	ldr	r2, [pc, #552]	; (8001a1c <HAL_RCC_OscConfig+0x7c4>)
 80017f2:	f023 5380 	bic.w	r3, r3, #268435456	; 0x10000000
 80017f6:	6593      	str	r3, [r2, #88]	; 0x58
#endif /* RCC_HSI48_SUPPORT */
  /*-------------------------------- PLL Configuration -----------------------*/
  /* Check the parameters */
  assert_param(IS_RCC_PLL(RCC_OscInitStruct->PLL.PLLState));

  if(RCC_OscInitStruct->PLL.PLLState != RCC_PLL_NONE)
 80017f8:	687b      	ldr	r3, [r7, #4]
 80017fa:	6a9b      	ldr	r3, [r3, #40]	; 0x28
 80017fc:	2b00      	cmp	r3, #0
 80017fe:	f000 8108 	beq.w	8001a12 <HAL_RCC_OscConfig+0x7ba>
  {
    /* PLL On ? */
    if(RCC_OscInitStruct->PLL.PLLState == RCC_PLL_ON)
 8001802:	687b      	ldr	r3, [r7, #4]
 8001804:	6a9b      	ldr	r3, [r3, #40]	; 0x28
 8001806:	2b02      	cmp	r3, #2
 8001808:	f040 80d0 	bne.w	80019ac <HAL_RCC_OscConfig+0x754>
#endif /* RCC_PLLP_SUPPORT */
      assert_param(IS_RCC_PLLQ_VALUE(RCC_OscInitStruct->PLL.PLLQ));
      assert_param(IS_RCC_PLLR_VALUE(RCC_OscInitStruct->PLL.PLLR));

      /* Do nothing if PLL configuration is the unchanged */
      pll_config = RCC->PLLCFGR;
 800180c:	4b83      	ldr	r3, [pc, #524]	; (8001a1c <HAL_RCC_OscConfig+0x7c4>)
 800180e:	68db      	ldr	r3, [r3, #12]
 8001810:	617b      	str	r3, [r7, #20]
      if((READ_BIT(pll_config, RCC_PLLCFGR_PLLSRC)  != RCC_OscInitStruct->PLL.PLLSource) ||
 8001812:	697b      	ldr	r3, [r7, #20]
 8001814:	f003 0203 	and.w	r2, r3, #3
 8001818:	687b      	ldr	r3, [r7, #4]
 800181a:	6adb      	ldr	r3, [r3, #44]	; 0x2c
 800181c:	429a      	cmp	r2, r3
 800181e:	d130      	bne.n	8001882 <HAL_RCC_OscConfig+0x62a>
         (READ_BIT(pll_config, RCC_PLLCFGR_PLLM)    != ((RCC_OscInitStruct->PLL.PLLM - 1U) << RCC_PLLCFGR_PLLM_Pos)) ||
 8001820:	697b      	ldr	r3, [r7, #20]
 8001822:	f003 0270 	and.w	r2, r3, #112	; 0x70
 8001826:	687b      	ldr	r3, [r7, #4]
 8001828:	6b1b      	ldr	r3, [r3, #48]	; 0x30
 800182a:	3b01      	subs	r3, #1
 800182c:	011b      	lsls	r3, r3, #4
      if((READ_BIT(pll_config, RCC_PLLCFGR_PLLSRC)  != RCC_OscInitStruct->PLL.PLLSource) ||
 800182e:	429a      	cmp	r2, r3
 8001830:	d127      	bne.n	8001882 <HAL_RCC_OscConfig+0x62a>
         (READ_BIT(pll_config, RCC_PLLCFGR_PLLN)    != (RCC_OscInitStruct->PLL.PLLN << RCC_PLLCFGR_PLLN_Pos)) ||
 8001832:	697b      	ldr	r3, [r7, #20]
 8001834:	f403 42fe 	and.w	r2, r3, #32512	; 0x7f00
 8001838:	687b      	ldr	r3, [r7, #4]
 800183a:	6b5b      	ldr	r3, [r3, #52]	; 0x34
 800183c:	021b      	lsls	r3, r3, #8
         (READ_BIT(pll_config, RCC_PLLCFGR_PLLM)    != ((RCC_OscInitStruct->PLL.PLLM - 1U) << RCC_PLLCFGR_PLLM_Pos)) ||
 800183e:	429a      	cmp	r2, r3
 8001840:	d11f      	bne.n	8001882 <HAL_RCC_OscConfig+0x62a>
#if defined(RCC_PLLP_SUPPORT)
#if defined(RCC_PLLP_DIV_2_31_SUPPORT)
         (READ_BIT(pll_config, RCC_PLLCFGR_PLLPDIV) != (RCC_OscInitStruct->PLL.PLLP << RCC_PLLCFGR_PLLPDIV_Pos)) ||
#else
         (READ_BIT(pll_config, RCC_PLLCFGR_PLLP)    != ((RCC_OscInitStruct->PLL.PLLP == RCC_PLLP_DIV7) ? 0U : 1U)) ||
 8001842:	697b      	ldr	r3, [r7, #20]
 8001844:	f403 3300 	and.w	r3, r3, #131072	; 0x20000
 8001848:	687a      	ldr	r2, [r7, #4]
 800184a:	6b92      	ldr	r2, [r2, #56]	; 0x38
 800184c:	2a07      	cmp	r2, #7
 800184e:	bf14      	ite	ne
 8001850:	2201      	movne	r2, #1
 8001852:	2200      	moveq	r2, #0
 8001854:	b2d2      	uxtb	r2, r2
         (READ_BIT(pll_config, RCC_PLLCFGR_PLLN)    != (RCC_OscInitStruct->PLL.PLLN << RCC_PLLCFGR_PLLN_Pos)) ||
 8001856:	4293      	cmp	r3, r2
 8001858:	d113      	bne.n	8001882 <HAL_RCC_OscConfig+0x62a>
#endif
#endif
         (READ_BIT(pll_config, RCC_PLLCFGR_PLLQ)    != ((((RCC_OscInitStruct->PLL.PLLQ) >> 1U) - 1U) << RCC_PLLCFGR_PLLQ_Pos)) ||
 800185a:	697b      	ldr	r3, [r7, #20]
 800185c:	f403 02c0 	and.w	r2, r3, #6291456	; 0x600000
 8001860:	687b      	ldr	r3, [r7, #4]
 8001862:	6bdb      	ldr	r3, [r3, #60]	; 0x3c
 8001864:	085b      	lsrs	r3, r3, #1
 8001866:	3b01      	subs	r3, #1
 8001868:	055b      	lsls	r3, r3, #21
         (READ_BIT(pll_config, RCC_PLLCFGR_PLLP)    != ((RCC_OscInitStruct->PLL.PLLP == RCC_PLLP_DIV7) ? 0U : 1U)) ||
 800186a:	429a      	cmp	r2, r3
 800186c:	d109      	bne.n	8001882 <HAL_RCC_OscConfig+0x62a>
         (READ_BIT(pll_config, RCC_PLLCFGR_PLLR)    != ((((RCC_OscInitStruct->PLL.PLLR) >> 1U) - 1U) << RCC_PLLCFGR_PLLR_Pos)))
 800186e:	697b      	ldr	r3, [r7, #20]
 8001870:	f003 62c0 	and.w	r2, r3, #100663296	; 0x6000000
 8001874:	687b      	ldr	r3, [r7, #4]
 8001876:	6c1b      	ldr	r3, [r3, #64]	; 0x40
 8001878:	085b      	lsrs	r3, r3, #1
 800187a:	3b01      	subs	r3, #1
 800187c:	065b      	lsls	r3, r3, #25
         (READ_BIT(pll_config, RCC_PLLCFGR_PLLQ)    != ((((RCC_OscInitStruct->PLL.PLLQ) >> 1U) - 1U) << RCC_PLLCFGR_PLLQ_Pos)) ||
 800187e:	429a      	cmp	r2, r3
 8001880:	d06e      	beq.n	8001960 <HAL_RCC_OscConfig+0x708>
      {
        /* Check if the PLL is used as system clock or not */
        if(sysclk_source != RCC_CFGR_SWS_PLL)
 8001882:	69bb      	ldr	r3, [r7, #24]
 8001884:	2b0c      	cmp	r3, #12
 8001886:	d069      	beq.n	800195c <HAL_RCC_OscConfig+0x704>
        {
#if defined(RCC_PLLSAI1_SUPPORT) || defined(RCC_PLLSAI2_SUPPORT)
          /* Check if main PLL can be updated */
          /* Not possible if the source is shared by other enabled PLLSAIx */
          if((READ_BIT(RCC->CR, RCC_CR_PLLSAI1ON) != 0U)
 8001888:	4b64      	ldr	r3, [pc, #400]	; (8001a1c <HAL_RCC_OscConfig+0x7c4>)
 800188a:	681b      	ldr	r3, [r3, #0]
 800188c:	f003 6380 	and.w	r3, r3, #67108864	; 0x4000000
 8001890:	2b00      	cmp	r3, #0
 8001892:	d105      	bne.n	80018a0 <HAL_RCC_OscConfig+0x648>
#if defined(RCC_PLLSAI2_SUPPORT)
             || (READ_BIT(RCC->CR, RCC_CR_PLLSAI2ON) != 0U)
 8001894:	4b61      	ldr	r3, [pc, #388]	; (8001a1c <HAL_RCC_OscConfig+0x7c4>)
 8001896:	681b      	ldr	r3, [r3, #0]
 8001898:	f003 5380 	and.w	r3, r3, #268435456	; 0x10000000
 800189c:	2b00      	cmp	r3, #0
 800189e:	d001      	beq.n	80018a4 <HAL_RCC_OscConfig+0x64c>
#endif
            )
          {
            return HAL_ERROR;
 80018a0:	2301      	movs	r3, #1
 80018a2:	e0b7      	b.n	8001a14 <HAL_RCC_OscConfig+0x7bc>
          }
          else
#endif /* RCC_PLLSAI1_SUPPORT || RCC_PLLSAI2_SUPPORT */
          {
            /* Disable the main PLL. */
            __HAL_RCC_PLL_DISABLE();
 80018a4:	4b5d      	ldr	r3, [pc, #372]	; (8001a1c <HAL_RCC_OscConfig+0x7c4>)
 80018a6:	681b      	ldr	r3, [r3, #0]
 80018a8:	4a5c      	ldr	r2, [pc, #368]	; (8001a1c <HAL_RCC_OscConfig+0x7c4>)
 80018aa:	f023 7380 	bic.w	r3, r3, #16777216	; 0x1000000
 80018ae:	6013      	str	r3, [r2, #0]

            /* Get Start Tick*/
            tickstart = HAL_GetTick();
 80018b0:	f7ff f974 	bl	8000b9c <HAL_GetTick>
 80018b4:	6138      	str	r0, [r7, #16]

            /* Wait till PLL is ready */
            while(READ_BIT(RCC->CR, RCC_CR_PLLRDY) != 0U)
 80018b6:	e008      	b.n	80018ca <HAL_RCC_OscConfig+0x672>
            {
              if((HAL_GetTick() - tickstart) > PLL_TIMEOUT_VALUE)
 80018b8:	f7ff f970 	bl	8000b9c <HAL_GetTick>
 80018bc:	4602      	mov	r2, r0
 80018be:	693b      	ldr	r3, [r7, #16]
 80018c0:	1ad3      	subs	r3, r2, r3
 80018c2:	2b02      	cmp	r3, #2
 80018c4:	d901      	bls.n	80018ca <HAL_RCC_OscConfig+0x672>
              {
                return HAL_TIMEOUT;
 80018c6:	2303      	movs	r3, #3
 80018c8:	e0a4      	b.n	8001a14 <HAL_RCC_OscConfig+0x7bc>
            while(READ_BIT(RCC->CR, RCC_CR_PLLRDY) != 0U)
 80018ca:	4b54      	ldr	r3, [pc, #336]	; (8001a1c <HAL_RCC_OscConfig+0x7c4>)
 80018cc:	681b      	ldr	r3, [r3, #0]
 80018ce:	f003 7300 	and.w	r3, r3, #33554432	; 0x2000000
 80018d2:	2b00      	cmp	r3, #0
 80018d4:	d1f0      	bne.n	80018b8 <HAL_RCC_OscConfig+0x660>
              }
            }

            /* Configure the main PLL clock source, multiplication and division factors. */
            __HAL_RCC_PLL_CONFIG(RCC_OscInitStruct->PLL.PLLSource,
 80018d6:	4b51      	ldr	r3, [pc, #324]	; (8001a1c <HAL_RCC_OscConfig+0x7c4>)
 80018d8:	68da      	ldr	r2, [r3, #12]
 80018da:	4b51      	ldr	r3, [pc, #324]	; (8001a20 <HAL_RCC_OscConfig+0x7c8>)
 80018dc:	4013      	ands	r3, r2
 80018de:	687a      	ldr	r2, [r7, #4]
 80018e0:	6ad1      	ldr	r1, [r2, #44]	; 0x2c
 80018e2:	687a      	ldr	r2, [r7, #4]
 80018e4:	6b12      	ldr	r2, [r2, #48]	; 0x30
 80018e6:	3a01      	subs	r2, #1
 80018e8:	0112      	lsls	r2, r2, #4
 80018ea:	4311      	orrs	r1, r2
 80018ec:	687a      	ldr	r2, [r7, #4]
 80018ee:	6b52      	ldr	r2, [r2, #52]	; 0x34
 80018f0:	0212      	lsls	r2, r2, #8
 80018f2:	4311      	orrs	r1, r2
 80018f4:	687a      	ldr	r2, [r7, #4]
 80018f6:	6bd2      	ldr	r2, [r2, #60]	; 0x3c
 80018f8:	0852      	lsrs	r2, r2, #1
 80018fa:	3a01      	subs	r2, #1
 80018fc:	0552      	lsls	r2, r2, #21
 80018fe:	4311      	orrs	r1, r2
 8001900:	687a      	ldr	r2, [r7, #4]
 8001902:	6c12      	ldr	r2, [r2, #64]	; 0x40
 8001904:	0852      	lsrs	r2, r2, #1
 8001906:	3a01      	subs	r2, #1
 8001908:	0652      	lsls	r2, r2, #25
 800190a:	4311      	orrs	r1, r2
 800190c:	687a      	ldr	r2, [r7, #4]
 800190e:	6b92      	ldr	r2, [r2, #56]	; 0x38
 8001910:	0912      	lsrs	r2, r2, #4
 8001912:	0452      	lsls	r2, r2, #17
 8001914:	430a      	orrs	r2, r1
 8001916:	4941      	ldr	r1, [pc, #260]	; (8001a1c <HAL_RCC_OscConfig+0x7c4>)
 8001918:	4313      	orrs	r3, r2
 800191a:	60cb      	str	r3, [r1, #12]
#endif
                                 RCC_OscInitStruct->PLL.PLLQ,
                                 RCC_OscInitStruct->PLL.PLLR);

            /* Enable the main PLL. */
            __HAL_RCC_PLL_ENABLE();
 800191c:	4b3f      	ldr	r3, [pc, #252]	; (8001a1c <HAL_RCC_OscConfig+0x7c4>)
 800191e:	681b      	ldr	r3, [r3, #0]
 8001920:	4a3e      	ldr	r2, [pc, #248]	; (8001a1c <HAL_RCC_OscConfig+0x7c4>)
 8001922:	f043 7380 	orr.w	r3, r3, #16777216	; 0x1000000
 8001926:	6013      	str	r3, [r2, #0]

            /* Enable PLL System Clock output. */
            __HAL_RCC_PLLCLKOUT_ENABLE(RCC_PLL_SYSCLK);
 8001928:	4b3c      	ldr	r3, [pc, #240]	; (8001a1c <HAL_RCC_OscConfig+0x7c4>)
 800192a:	68db      	ldr	r3, [r3, #12]
 800192c:	4a3b      	ldr	r2, [pc, #236]	; (8001a1c <HAL_RCC_OscConfig+0x7c4>)
 800192e:	f043 7380 	orr.w	r3, r3, #16777216	; 0x1000000
 8001932:	60d3      	str	r3, [r2, #12]

            /* Get Start Tick*/
            tickstart = HAL_GetTick();
 8001934:	f7ff f932 	bl	8000b9c <HAL_GetTick>
 8001938:	6138      	str	r0, [r7, #16]

            /* Wait till PLL is ready */
            while(READ_BIT(RCC->CR, RCC_CR_PLLRDY) == 0U)
 800193a:	e008      	b.n	800194e <HAL_RCC_OscConfig+0x6f6>
            {
              if((HAL_GetTick() - tickstart) > PLL_TIMEOUT_VALUE)
 800193c:	f7ff f92e 	bl	8000b9c <HAL_GetTick>
 8001940:	4602      	mov	r2, r0
 8001942:	693b      	ldr	r3, [r7, #16]
 8001944:	1ad3      	subs	r3, r2, r3
 8001946:	2b02      	cmp	r3, #2
 8001948:	d901      	bls.n	800194e <HAL_RCC_OscConfig+0x6f6>
              {
                return HAL_TIMEOUT;
 800194a:	2303      	movs	r3, #3
 800194c:	e062      	b.n	8001a14 <HAL_RCC_OscConfig+0x7bc>
            while(READ_BIT(RCC->CR, RCC_CR_PLLRDY) == 0U)
 800194e:	4b33      	ldr	r3, [pc, #204]	; (8001a1c <HAL_RCC_OscConfig+0x7c4>)
 8001950:	681b      	ldr	r3, [r3, #0]
 8001952:	f003 7300 	and.w	r3, r3, #33554432	; 0x2000000
 8001956:	2b00      	cmp	r3, #0
 8001958:	d0f0      	beq.n	800193c <HAL_RCC_OscConfig+0x6e4>
        if(sysclk_source != RCC_CFGR_SWS_PLL)
 800195a:	e05a      	b.n	8001a12 <HAL_RCC_OscConfig+0x7ba>
          }
        }
        else
        {
          /* PLL is already used as System core clock */
          return HAL_ERROR;
 800195c:	2301      	movs	r3, #1
 800195e:	e059      	b.n	8001a14 <HAL_RCC_OscConfig+0x7bc>
      }
      else
      {
        /* PLL configuration is unchanged */
        /* Re-enable PLL if it was disabled (ie. low power mode) */
        if(READ_BIT(RCC->CR, RCC_CR_PLLRDY) == 0U)
 8001960:	4b2e      	ldr	r3, [pc, #184]	; (8001a1c <HAL_RCC_OscConfig+0x7c4>)
 8001962:	681b      	ldr	r3, [r3, #0]
 8001964:	f003 7300 	and.w	r3, r3, #33554432	; 0x2000000
 8001968:	2b00      	cmp	r3, #0
 800196a:	d152      	bne.n	8001a12 <HAL_RCC_OscConfig+0x7ba>
        {
          /* Enable the main PLL. */
          __HAL_RCC_PLL_ENABLE();
 800196c:	4b2b      	ldr	r3, [pc, #172]	; (8001a1c <HAL_RCC_OscConfig+0x7c4>)
 800196e:	681b      	ldr	r3, [r3, #0]
 8001970:	4a2a      	ldr	r2, [pc, #168]	; (8001a1c <HAL_RCC_OscConfig+0x7c4>)
 8001972:	f043 7380 	orr.w	r3, r3, #16777216	; 0x1000000
 8001976:	6013      	str	r3, [r2, #0]

          /* Enable PLL System Clock output. */
          __HAL_RCC_PLLCLKOUT_ENABLE(RCC_PLL_SYSCLK);
 8001978:	4b28      	ldr	r3, [pc, #160]	; (8001a1c <HAL_RCC_OscConfig+0x7c4>)
 800197a:	68db      	ldr	r3, [r3, #12]
 800197c:	4a27      	ldr	r2, [pc, #156]	; (8001a1c <HAL_RCC_OscConfig+0x7c4>)
 800197e:	f043 7380 	orr.w	r3, r3, #16777216	; 0x1000000
 8001982:	60d3      	str	r3, [r2, #12]

          /* Get Start Tick*/
          tickstart = HAL_GetTick();
 8001984:	f7ff f90a 	bl	8000b9c <HAL_GetTick>
 8001988:	6138      	str	r0, [r7, #16]

          /* Wait till PLL is ready */
          while(READ_BIT(RCC->CR, RCC_CR_PLLRDY) == 0U)
 800198a:	e008      	b.n	800199e <HAL_RCC_OscConfig+0x746>
          {
            if((HAL_GetTick() - tickstart) > PLL_TIMEOUT_VALUE)
 800198c:	f7ff f906 	bl	8000b9c <HAL_GetTick>
 8001990:	4602      	mov	r2, r0
 8001992:	693b      	ldr	r3, [r7, #16]
 8001994:	1ad3      	subs	r3, r2, r3
 8001996:	2b02      	cmp	r3, #2
 8001998:	d901      	bls.n	800199e <HAL_RCC_OscConfig+0x746>
            {
              return HAL_TIMEOUT;
 800199a:	2303      	movs	r3, #3
 800199c:	e03a      	b.n	8001a14 <HAL_RCC_OscConfig+0x7bc>
          while(READ_BIT(RCC->CR, RCC_CR_PLLRDY) == 0U)
 800199e:	4b1f      	ldr	r3, [pc, #124]	; (8001a1c <HAL_RCC_OscConfig+0x7c4>)
 80019a0:	681b      	ldr	r3, [r3, #0]
 80019a2:	f003 7300 	and.w	r3, r3, #33554432	; 0x2000000
 80019a6:	2b00      	cmp	r3, #0
 80019a8:	d0f0      	beq.n	800198c <HAL_RCC_OscConfig+0x734>
 80019aa:	e032      	b.n	8001a12 <HAL_RCC_OscConfig+0x7ba>
      }
    }
    else
    {
      /* Check that PLL is not used as system clock or not */
      if(sysclk_source != RCC_CFGR_SWS_PLL)
 80019ac:	69bb      	ldr	r3, [r7, #24]
 80019ae:	2b0c      	cmp	r3, #12
 80019b0:	d02d      	beq.n	8001a0e <HAL_RCC_OscConfig+0x7b6>
      {
        /* Disable the main PLL. */
        __HAL_RCC_PLL_DISABLE();
 80019b2:	4b1a      	ldr	r3, [pc, #104]	; (8001a1c <HAL_RCC_OscConfig+0x7c4>)
 80019b4:	681b      	ldr	r3, [r3, #0]
 80019b6:	4a19      	ldr	r2, [pc, #100]	; (8001a1c <HAL_RCC_OscConfig+0x7c4>)
 80019b8:	f023 7380 	bic.w	r3, r3, #16777216	; 0x1000000
 80019bc:	6013      	str	r3, [r2, #0]

        /* Disable all PLL outputs to save power if no PLLs on */
#if defined(RCC_PLLSAI1_SUPPORT) && defined(RCC_CR_PLLSAI2RDY)
        if(READ_BIT(RCC->CR, (RCC_CR_PLLSAI1RDY | RCC_CR_PLLSAI2RDY)) == 0U)
 80019be:	4b17      	ldr	r3, [pc, #92]	; (8001a1c <HAL_RCC_OscConfig+0x7c4>)
 80019c0:	681b      	ldr	r3, [r3, #0]
 80019c2:	f003 5320 	and.w	r3, r3, #671088640	; 0x28000000
 80019c6:	2b00      	cmp	r3, #0
 80019c8:	d105      	bne.n	80019d6 <HAL_RCC_OscConfig+0x77e>
        {
          MODIFY_REG(RCC->PLLCFGR, RCC_PLLCFGR_PLLSRC, RCC_PLLSOURCE_NONE);
 80019ca:	4b14      	ldr	r3, [pc, #80]	; (8001a1c <HAL_RCC_OscConfig+0x7c4>)
 80019cc:	68db      	ldr	r3, [r3, #12]
 80019ce:	4a13      	ldr	r2, [pc, #76]	; (8001a1c <HAL_RCC_OscConfig+0x7c4>)
 80019d0:	f023 0303 	bic.w	r3, r3, #3
 80019d4:	60d3      	str	r3, [r2, #12]
#else
        MODIFY_REG(RCC->PLLCFGR, RCC_PLLCFGR_PLLSRC, RCC_PLLSOURCE_NONE);
#endif /* RCC_PLLSAI1_SUPPORT && RCC_CR_PLLSAI2RDY */

#if defined(RCC_PLLSAI2_SUPPORT)
        __HAL_RCC_PLLCLKOUT_DISABLE(RCC_PLL_SYSCLK | RCC_PLL_48M1CLK | RCC_PLL_SAI3CLK);
 80019d6:	4b11      	ldr	r3, [pc, #68]	; (8001a1c <HAL_RCC_OscConfig+0x7c4>)
 80019d8:	68db      	ldr	r3, [r3, #12]
 80019da:	4a10      	ldr	r2, [pc, #64]	; (8001a1c <HAL_RCC_OscConfig+0x7c4>)
 80019dc:	f023 7388 	bic.w	r3, r3, #17825792	; 0x1100000
 80019e0:	f423 3380 	bic.w	r3, r3, #65536	; 0x10000
 80019e4:	60d3      	str	r3, [r2, #12]
#else
        __HAL_RCC_PLLCLKOUT_DISABLE(RCC_PLL_SYSCLK | RCC_PLL_48M1CLK);
#endif /* RCC_PLLSAI2_SUPPORT */

        /* Get Start Tick*/
        tickstart = HAL_GetTick();
 80019e6:	f7ff f8d9 	bl	8000b9c <HAL_GetTick>
 80019ea:	6138      	str	r0, [r7, #16]

        /* Wait till PLL is disabled */
        while(READ_BIT(RCC->CR, RCC_CR_PLLRDY) != 0U)
 80019ec:	e008      	b.n	8001a00 <HAL_RCC_OscConfig+0x7a8>
        {
          if((HAL_GetTick() - tickstart) > PLL_TIMEOUT_VALUE)
 80019ee:	f7ff f8d5 	bl	8000b9c <HAL_GetTick>
 80019f2:	4602      	mov	r2, r0
 80019f4:	693b      	ldr	r3, [r7, #16]
 80019f6:	1ad3      	subs	r3, r2, r3
 80019f8:	2b02      	cmp	r3, #2
 80019fa:	d901      	bls.n	8001a00 <HAL_RCC_OscConfig+0x7a8>
          {
            return HAL_TIMEOUT;
 80019fc:	2303      	movs	r3, #3
 80019fe:	e009      	b.n	8001a14 <HAL_RCC_OscConfig+0x7bc>
        while(READ_BIT(RCC->CR, RCC_CR_PLLRDY) != 0U)
 8001a00:	4b06      	ldr	r3, [pc, #24]	; (8001a1c <HAL_RCC_OscConfig+0x7c4>)
 8001a02:	681b      	ldr	r3, [r3, #0]
 8001a04:	f003 7300 	and.w	r3, r3, #33554432	; 0x2000000
 8001a08:	2b00      	cmp	r3, #0
 8001a0a:	d1f0      	bne.n	80019ee <HAL_RCC_OscConfig+0x796>
 8001a0c:	e001      	b.n	8001a12 <HAL_RCC_OscConfig+0x7ba>
        }
      }
      else
      {
        /* PLL is already used as System core clock */
        return HAL_ERROR;
 8001a0e:	2301      	movs	r3, #1
 8001a10:	e000      	b.n	8001a14 <HAL_RCC_OscConfig+0x7bc>
      }
    }
  }
  return HAL_OK;
 8001a12:	2300      	movs	r3, #0
}
 8001a14:	4618      	mov	r0, r3
 8001a16:	3720      	adds	r7, #32
 8001a18:	46bd      	mov	sp, r7
 8001a1a:	bd80      	pop	{r7, pc}
 8001a1c:	40021000 	.word	0x40021000
 8001a20:	f99d808c 	.word	0xf99d808c

08001a24 <HAL_RCC_ClockConfig>:
  *         HPRE[3:0] bits to ensure that HCLK not exceed the maximum allowed frequency
  *         (for more details refer to section above "Initialization/de-initialization functions")
  * @retval None
  */
HAL_StatusTypeDef HAL_RCC_ClockConfig(RCC_ClkInitTypeDef  *RCC_ClkInitStruct, uint32_t FLatency)
{
 8001a24:	b580      	push	{r7, lr}
 8001a26:	b084      	sub	sp, #16
 8001a28:	af00      	add	r7, sp, #0
 8001a2a:	6078      	str	r0, [r7, #4]
 8001a2c:	6039      	str	r1, [r7, #0]
  uint32_t hpre = RCC_SYSCLK_DIV1;
#endif
  HAL_StatusTypeDef status;

  /* Check Null pointer */
  if(RCC_ClkInitStruct == NULL)
 8001a2e:	687b      	ldr	r3, [r7, #4]
 8001a30:	2b00      	cmp	r3, #0
 8001a32:	d101      	bne.n	8001a38 <HAL_RCC_ClockConfig+0x14>
  {
    return HAL_ERROR;
 8001a34:	2301      	movs	r3, #1
 8001a36:	e0c8      	b.n	8001bca <HAL_RCC_ClockConfig+0x1a6>
  /* To correctly read data from FLASH memory, the number of wait states (LATENCY)
    must be correctly programmed according to the frequency of the CPU clock
    (HCLK) and the supply voltage of the device. */

  /* Increasing the number of wait states because of higher CPU frequency */
  if(FLatency > __HAL_FLASH_GET_LATENCY())
 8001a38:	4b66      	ldr	r3, [pc, #408]	; (8001bd4 <HAL_RCC_ClockConfig+0x1b0>)
 8001a3a:	681b      	ldr	r3, [r3, #0]
 8001a3c:	f003 0307 	and.w	r3, r3, #7
 8001a40:	683a      	ldr	r2, [r7, #0]
 8001a42:	429a      	cmp	r2, r3
 8001a44:	d910      	bls.n	8001a68 <HAL_RCC_ClockConfig+0x44>
  {
    /* Program the new number of wait states to the LATENCY bits in the FLASH_ACR register */
    __HAL_FLASH_SET_LATENCY(FLatency);
 8001a46:	4b63      	ldr	r3, [pc, #396]	; (8001bd4 <HAL_RCC_ClockConfig+0x1b0>)
 8001a48:	681b      	ldr	r3, [r3, #0]
 8001a4a:	f023 0207 	bic.w	r2, r3, #7
 8001a4e:	4961      	ldr	r1, [pc, #388]	; (8001bd4 <HAL_RCC_ClockConfig+0x1b0>)
 8001a50:	683b      	ldr	r3, [r7, #0]
 8001a52:	4313      	orrs	r3, r2
 8001a54:	600b      	str	r3, [r1, #0]

    /* Check that the new number of wait states is taken into account to access the Flash
    memory by reading the FLASH_ACR register */
    if(__HAL_FLASH_GET_LATENCY() != FLatency)
 8001a56:	4b5f      	ldr	r3, [pc, #380]	; (8001bd4 <HAL_RCC_ClockConfig+0x1b0>)
 8001a58:	681b      	ldr	r3, [r3, #0]
 8001a5a:	f003 0307 	and.w	r3, r3, #7
 8001a5e:	683a      	ldr	r2, [r7, #0]
 8001a60:	429a      	cmp	r2, r3
 8001a62:	d001      	beq.n	8001a68 <HAL_RCC_ClockConfig+0x44>
    {
      return HAL_ERROR;
 8001a64:	2301      	movs	r3, #1
 8001a66:	e0b0      	b.n	8001bca <HAL_RCC_ClockConfig+0x1a6>
    }
  }

  /*------------------------- SYSCLK Configuration ---------------------------*/
  if(((RCC_ClkInitStruct->ClockType) & RCC_CLOCKTYPE_SYSCLK) == RCC_CLOCKTYPE_SYSCLK)
 8001a68:	687b      	ldr	r3, [r7, #4]
 8001a6a:	681b      	ldr	r3, [r3, #0]
 8001a6c:	f003 0301 	and.w	r3, r3, #1
 8001a70:	2b00      	cmp	r3, #0
 8001a72:	d04c      	beq.n	8001b0e <HAL_RCC_ClockConfig+0xea>
  {
    assert_param(IS_RCC_SYSCLKSOURCE(RCC_ClkInitStruct->SYSCLKSource));

    /* PLL is selected as System Clock Source */
    if(RCC_ClkInitStruct->SYSCLKSource == RCC_SYSCLKSOURCE_PLLCLK)
 8001a74:	687b      	ldr	r3, [r7, #4]
 8001a76:	685b      	ldr	r3, [r3, #4]
 8001a78:	2b03      	cmp	r3, #3
 8001a7a:	d107      	bne.n	8001a8c <HAL_RCC_ClockConfig+0x68>
    {
      /* Check the PLL ready flag */
      if(READ_BIT(RCC->CR, RCC_CR_PLLRDY) == 0U)
 8001a7c:	4b56      	ldr	r3, [pc, #344]	; (8001bd8 <HAL_RCC_ClockConfig+0x1b4>)
 8001a7e:	681b      	ldr	r3, [r3, #0]
 8001a80:	f003 7300 	and.w	r3, r3, #33554432	; 0x2000000
 8001a84:	2b00      	cmp	r3, #0
 8001a86:	d121      	bne.n	8001acc <HAL_RCC_ClockConfig+0xa8>
      {
        return HAL_ERROR;
 8001a88:	2301      	movs	r3, #1
 8001a8a:	e09e      	b.n	8001bca <HAL_RCC_ClockConfig+0x1a6>
#endif
    }
    else
    {
      /* HSE is selected as System Clock Source */
      if(RCC_ClkInitStruct->SYSCLKSource == RCC_SYSCLKSOURCE_HSE)
 8001a8c:	687b      	ldr	r3, [r7, #4]
 8001a8e:	685b      	ldr	r3, [r3, #4]
 8001a90:	2b02      	cmp	r3, #2
 8001a92:	d107      	bne.n	8001aa4 <HAL_RCC_ClockConfig+0x80>
      {
        /* Check the HSE ready flag */
        if(READ_BIT(RCC->CR, RCC_CR_HSERDY) == 0U)
 8001a94:	4b50      	ldr	r3, [pc, #320]	; (8001bd8 <HAL_RCC_ClockConfig+0x1b4>)
 8001a96:	681b      	ldr	r3, [r3, #0]
 8001a98:	f403 3300 	and.w	r3, r3, #131072	; 0x20000
 8001a9c:	2b00      	cmp	r3, #0
 8001a9e:	d115      	bne.n	8001acc <HAL_RCC_ClockConfig+0xa8>
        {
          return HAL_ERROR;
 8001aa0:	2301      	movs	r3, #1
 8001aa2:	e092      	b.n	8001bca <HAL_RCC_ClockConfig+0x1a6>
        }
      }
      /* MSI is selected as System Clock Source */
      else if(RCC_ClkInitStruct->SYSCLKSource == RCC_SYSCLKSOURCE_MSI)
 8001aa4:	687b      	ldr	r3, [r7, #4]
 8001aa6:	685b      	ldr	r3, [r3, #4]
 8001aa8:	2b00      	cmp	r3, #0
 8001aaa:	d107      	bne.n	8001abc <HAL_RCC_ClockConfig+0x98>
      {
        /* Check the MSI ready flag */
        if(READ_BIT(RCC->CR, RCC_CR_MSIRDY) == 0U)
 8001aac:	4b4a      	ldr	r3, [pc, #296]	; (8001bd8 <HAL_RCC_ClockConfig+0x1b4>)
 8001aae:	681b      	ldr	r3, [r3, #0]
 8001ab0:	f003 0302 	and.w	r3, r3, #2
 8001ab4:	2b00      	cmp	r3, #0
 8001ab6:	d109      	bne.n	8001acc <HAL_RCC_ClockConfig+0xa8>
        {
          return HAL_ERROR;
 8001ab8:	2301      	movs	r3, #1
 8001aba:	e086      	b.n	8001bca <HAL_RCC_ClockConfig+0x1a6>
      }
      /* HSI is selected as System Clock Source */
      else
      {
        /* Check the HSI ready flag */
        if(READ_BIT(RCC->CR, RCC_CR_HSIRDY) == 0U)
 8001abc:	4b46      	ldr	r3, [pc, #280]	; (8001bd8 <HAL_RCC_ClockConfig+0x1b4>)
 8001abe:	681b      	ldr	r3, [r3, #0]
 8001ac0:	f403 6380 	and.w	r3, r3, #1024	; 0x400
 8001ac4:	2b00      	cmp	r3, #0
 8001ac6:	d101      	bne.n	8001acc <HAL_RCC_ClockConfig+0xa8>
        {
          return HAL_ERROR;
 8001ac8:	2301      	movs	r3, #1
 8001aca:	e07e      	b.n	8001bca <HAL_RCC_ClockConfig+0x1a6>
      }
#endif

    }

    MODIFY_REG(RCC->CFGR, RCC_CFGR_SW, RCC_ClkInitStruct->SYSCLKSource);
 8001acc:	4b42      	ldr	r3, [pc, #264]	; (8001bd8 <HAL_RCC_ClockConfig+0x1b4>)
 8001ace:	689b      	ldr	r3, [r3, #8]
 8001ad0:	f023 0203 	bic.w	r2, r3, #3
 8001ad4:	687b      	ldr	r3, [r7, #4]
 8001ad6:	685b      	ldr	r3, [r3, #4]
 8001ad8:	493f      	ldr	r1, [pc, #252]	; (8001bd8 <HAL_RCC_ClockConfig+0x1b4>)
 8001ada:	4313      	orrs	r3, r2
 8001adc:	608b      	str	r3, [r1, #8]

    /* Get Start Tick*/
    tickstart = HAL_GetTick();
 8001ade:	f7ff f85d 	bl	8000b9c <HAL_GetTick>
 8001ae2:	60f8      	str	r0, [r7, #12]

    while(__HAL_RCC_GET_SYSCLK_SOURCE() != (RCC_ClkInitStruct->SYSCLKSource << RCC_CFGR_SWS_Pos))
 8001ae4:	e00a      	b.n	8001afc <HAL_RCC_ClockConfig+0xd8>
    {
      if((HAL_GetTick() - tickstart) > CLOCKSWITCH_TIMEOUT_VALUE)
 8001ae6:	f7ff f859 	bl	8000b9c <HAL_GetTick>
 8001aea:	4602      	mov	r2, r0
 8001aec:	68fb      	ldr	r3, [r7, #12]
 8001aee:	1ad3      	subs	r3, r2, r3
 8001af0:	f241 3288 	movw	r2, #5000	; 0x1388
 8001af4:	4293      	cmp	r3, r2
 8001af6:	d901      	bls.n	8001afc <HAL_RCC_ClockConfig+0xd8>
      {
        return HAL_TIMEOUT;
 8001af8:	2303      	movs	r3, #3
 8001afa:	e066      	b.n	8001bca <HAL_RCC_ClockConfig+0x1a6>
    while(__HAL_RCC_GET_SYSCLK_SOURCE() != (RCC_ClkInitStruct->SYSCLKSource << RCC_CFGR_SWS_Pos))
 8001afc:	4b36      	ldr	r3, [pc, #216]	; (8001bd8 <HAL_RCC_ClockConfig+0x1b4>)
 8001afe:	689b      	ldr	r3, [r3, #8]
 8001b00:	f003 020c 	and.w	r2, r3, #12
 8001b04:	687b      	ldr	r3, [r7, #4]
 8001b06:	685b      	ldr	r3, [r3, #4]
 8001b08:	009b      	lsls	r3, r3, #2
 8001b0a:	429a      	cmp	r2, r3
 8001b0c:	d1eb      	bne.n	8001ae6 <HAL_RCC_ClockConfig+0xc2>
      }
    }
  }

  /*-------------------------- HCLK Configuration --------------------------*/
  if(((RCC_ClkInitStruct->ClockType) & RCC_CLOCKTYPE_HCLK) == RCC_CLOCKTYPE_HCLK)
 8001b0e:	687b      	ldr	r3, [r7, #4]
 8001b10:	681b      	ldr	r3, [r3, #0]
 8001b12:	f003 0302 	and.w	r3, r3, #2
 8001b16:	2b00      	cmp	r3, #0
 8001b18:	d008      	beq.n	8001b2c <HAL_RCC_ClockConfig+0x108>
  {
    assert_param(IS_RCC_HCLK(RCC_ClkInitStruct->AHBCLKDivider));
    MODIFY_REG(RCC->CFGR, RCC_CFGR_HPRE, RCC_ClkInitStruct->AHBCLKDivider);
 8001b1a:	4b2f      	ldr	r3, [pc, #188]	; (8001bd8 <HAL_RCC_ClockConfig+0x1b4>)
 8001b1c:	689b      	ldr	r3, [r3, #8]
 8001b1e:	f023 02f0 	bic.w	r2, r3, #240	; 0xf0
 8001b22:	687b      	ldr	r3, [r7, #4]
 8001b24:	689b      	ldr	r3, [r3, #8]
 8001b26:	492c      	ldr	r1, [pc, #176]	; (8001bd8 <HAL_RCC_ClockConfig+0x1b4>)
 8001b28:	4313      	orrs	r3, r2
 8001b2a:	608b      	str	r3, [r1, #8]
    }
  }
#endif

  /* Decreasing the number of wait states because of lower CPU frequency */
  if(FLatency < __HAL_FLASH_GET_LATENCY())
 8001b2c:	4b29      	ldr	r3, [pc, #164]	; (8001bd4 <HAL_RCC_ClockConfig+0x1b0>)
 8001b2e:	681b      	ldr	r3, [r3, #0]
 8001b30:	f003 0307 	and.w	r3, r3, #7
 8001b34:	683a      	ldr	r2, [r7, #0]
 8001b36:	429a      	cmp	r2, r3
 8001b38:	d210      	bcs.n	8001b5c <HAL_RCC_ClockConfig+0x138>
  {
    /* Program the new number of wait states to the LATENCY bits in the FLASH_ACR register */
    __HAL_FLASH_SET_LATENCY(FLatency);
 8001b3a:	4b26      	ldr	r3, [pc, #152]	; (8001bd4 <HAL_RCC_ClockConfig+0x1b0>)
 8001b3c:	681b      	ldr	r3, [r3, #0]
 8001b3e:	f023 0207 	bic.w	r2, r3, #7
 8001b42:	4924      	ldr	r1, [pc, #144]	; (8001bd4 <HAL_RCC_ClockConfig+0x1b0>)
 8001b44:	683b      	ldr	r3, [r7, #0]
 8001b46:	4313      	orrs	r3, r2
 8001b48:	600b      	str	r3, [r1, #0]

    /* Check that the new number of wait states is taken into account to access the Flash
    memory by reading the FLASH_ACR register */
    if(__HAL_FLASH_GET_LATENCY() != FLatency)
 8001b4a:	4b22      	ldr	r3, [pc, #136]	; (8001bd4 <HAL_RCC_ClockConfig+0x1b0>)
 8001b4c:	681b      	ldr	r3, [r3, #0]
 8001b4e:	f003 0307 	and.w	r3, r3, #7
 8001b52:	683a      	ldr	r2, [r7, #0]
 8001b54:	429a      	cmp	r2, r3
 8001b56:	d001      	beq.n	8001b5c <HAL_RCC_ClockConfig+0x138>
    {
      return HAL_ERROR;
 8001b58:	2301      	movs	r3, #1
 8001b5a:	e036      	b.n	8001bca <HAL_RCC_ClockConfig+0x1a6>
    }
  }

  /*-------------------------- PCLK1 Configuration ---------------------------*/
  if(((RCC_ClkInitStruct->ClockType) & RCC_CLOCKTYPE_PCLK1) == RCC_CLOCKTYPE_PCLK1)
 8001b5c:	687b      	ldr	r3, [r7, #4]
 8001b5e:	681b      	ldr	r3, [r3, #0]
 8001b60:	f003 0304 	and.w	r3, r3, #4
 8001b64:	2b00      	cmp	r3, #0
 8001b66:	d008      	beq.n	8001b7a <HAL_RCC_ClockConfig+0x156>
  {
    assert_param(IS_RCC_PCLK(RCC_ClkInitStruct->APB1CLKDivider));
    MODIFY_REG(RCC->CFGR, RCC_CFGR_PPRE1, RCC_ClkInitStruct->APB1CLKDivider);
 8001b68:	4b1b      	ldr	r3, [pc, #108]	; (8001bd8 <HAL_RCC_ClockConfig+0x1b4>)
 8001b6a:	689b      	ldr	r3, [r3, #8]
 8001b6c:	f423 62e0 	bic.w	r2, r3, #1792	; 0x700
 8001b70:	687b      	ldr	r3, [r7, #4]
 8001b72:	68db      	ldr	r3, [r3, #12]
 8001b74:	4918      	ldr	r1, [pc, #96]	; (8001bd8 <HAL_RCC_ClockConfig+0x1b4>)
 8001b76:	4313      	orrs	r3, r2
 8001b78:	608b      	str	r3, [r1, #8]
  }

  /*-------------------------- PCLK2 Configuration ---------------------------*/
  if(((RCC_ClkInitStruct->ClockType) & RCC_CLOCKTYPE_PCLK2) == RCC_CLOCKTYPE_PCLK2)
 8001b7a:	687b      	ldr	r3, [r7, #4]
 8001b7c:	681b      	ldr	r3, [r3, #0]
 8001b7e:	f003 0308 	and.w	r3, r3, #8
 8001b82:	2b00      	cmp	r3, #0
 8001b84:	d009      	beq.n	8001b9a <HAL_RCC_ClockConfig+0x176>
  {
    assert_param(IS_RCC_PCLK(RCC_ClkInitStruct->APB2CLKDivider));
    MODIFY_REG(RCC->CFGR, RCC_CFGR_PPRE2, ((RCC_ClkInitStruct->APB2CLKDivider) << 3U));
 8001b86:	4b14      	ldr	r3, [pc, #80]	; (8001bd8 <HAL_RCC_ClockConfig+0x1b4>)
 8001b88:	689b      	ldr	r3, [r3, #8]
 8001b8a:	f423 5260 	bic.w	r2, r3, #14336	; 0x3800
 8001b8e:	687b      	ldr	r3, [r7, #4]
 8001b90:	691b      	ldr	r3, [r3, #16]
 8001b92:	00db      	lsls	r3, r3, #3
 8001b94:	4910      	ldr	r1, [pc, #64]	; (8001bd8 <HAL_RCC_ClockConfig+0x1b4>)
 8001b96:	4313      	orrs	r3, r2
 8001b98:	608b      	str	r3, [r1, #8]
  }

  /* Update the SystemCoreClock global variable */
  SystemCoreClock = HAL_RCC_GetSysClockFreq() >> (AHBPrescTable[READ_BIT(RCC->CFGR, RCC_CFGR_HPRE) >> RCC_CFGR_HPRE_Pos] & 0x1FU);
 8001b9a:	f000 f825 	bl	8001be8 <HAL_RCC_GetSysClockFreq>
 8001b9e:	4602      	mov	r2, r0
 8001ba0:	4b0d      	ldr	r3, [pc, #52]	; (8001bd8 <HAL_RCC_ClockConfig+0x1b4>)
 8001ba2:	689b      	ldr	r3, [r3, #8]
 8001ba4:	091b      	lsrs	r3, r3, #4
 8001ba6:	f003 030f 	and.w	r3, r3, #15
 8001baa:	490c      	ldr	r1, [pc, #48]	; (8001bdc <HAL_RCC_ClockConfig+0x1b8>)
 8001bac:	5ccb      	ldrb	r3, [r1, r3]
 8001bae:	f003 031f 	and.w	r3, r3, #31
 8001bb2:	fa22 f303 	lsr.w	r3, r2, r3
 8001bb6:	4a0a      	ldr	r2, [pc, #40]	; (8001be0 <HAL_RCC_ClockConfig+0x1bc>)
 8001bb8:	6013      	str	r3, [r2, #0]

  /* Configure the source of time base considering new system clocks settings*/
  status = HAL_InitTick(uwTickPrio);
 8001bba:	4b0a      	ldr	r3, [pc, #40]	; (8001be4 <HAL_RCC_ClockConfig+0x1c0>)
 8001bbc:	681b      	ldr	r3, [r3, #0]
 8001bbe:	4618      	mov	r0, r3
 8001bc0:	f7fe ff9c 	bl	8000afc <HAL_InitTick>
 8001bc4:	4603      	mov	r3, r0
 8001bc6:	72fb      	strb	r3, [r7, #11]

  return status;
 8001bc8:	7afb      	ldrb	r3, [r7, #11]
}
 8001bca:	4618      	mov	r0, r3
 8001bcc:	3710      	adds	r7, #16
 8001bce:	46bd      	mov	sp, r7
 8001bd0:	bd80      	pop	{r7, pc}
 8001bd2:	bf00      	nop
 8001bd4:	40022000 	.word	0x40022000
 8001bd8:	40021000 	.word	0x40021000
 8001bdc:	08003758 	.word	0x08003758
 8001be0:	20000000 	.word	0x20000000
 8001be4:	20000004 	.word	0x20000004

08001be8 <HAL_RCC_GetSysClockFreq>:
  *
  *
  * @retval SYSCLK frequency
  */
uint32_t HAL_RCC_GetSysClockFreq(void)
{
 8001be8:	b480      	push	{r7}
 8001bea:	b089      	sub	sp, #36	; 0x24
 8001bec:	af00      	add	r7, sp, #0
  uint32_t msirange = 0U, sysclockfreq = 0U;
 8001bee:	2300      	movs	r3, #0
 8001bf0:	61fb      	str	r3, [r7, #28]
 8001bf2:	2300      	movs	r3, #0
 8001bf4:	61bb      	str	r3, [r7, #24]
  uint32_t pllvco, pllsource, pllr, pllm;    /* no init needed */
  uint32_t sysclk_source, pll_oscsource;

  sysclk_source = __HAL_RCC_GET_SYSCLK_SOURCE();
 8001bf6:	4b3e      	ldr	r3, [pc, #248]	; (8001cf0 <HAL_RCC_GetSysClockFreq+0x108>)
 8001bf8:	689b      	ldr	r3, [r3, #8]
 8001bfa:	f003 030c 	and.w	r3, r3, #12
 8001bfe:	613b      	str	r3, [r7, #16]
  pll_oscsource = __HAL_RCC_GET_PLL_OSCSOURCE();
 8001c00:	4b3b      	ldr	r3, [pc, #236]	; (8001cf0 <HAL_RCC_GetSysClockFreq+0x108>)
 8001c02:	68db      	ldr	r3, [r3, #12]
 8001c04:	f003 0303 	and.w	r3, r3, #3
 8001c08:	60fb      	str	r3, [r7, #12]

  if((sysclk_source == RCC_CFGR_SWS_MSI) ||
 8001c0a:	693b      	ldr	r3, [r7, #16]
 8001c0c:	2b00      	cmp	r3, #0
 8001c0e:	d005      	beq.n	8001c1c <HAL_RCC_GetSysClockFreq+0x34>
 8001c10:	693b      	ldr	r3, [r7, #16]
 8001c12:	2b0c      	cmp	r3, #12
 8001c14:	d121      	bne.n	8001c5a <HAL_RCC_GetSysClockFreq+0x72>
     ((sysclk_source == RCC_CFGR_SWS_PLL) && (pll_oscsource == RCC_PLLSOURCE_MSI)))
 8001c16:	68fb      	ldr	r3, [r7, #12]
 8001c18:	2b01      	cmp	r3, #1
 8001c1a:	d11e      	bne.n	8001c5a <HAL_RCC_GetSysClockFreq+0x72>
  {
    /* MSI or PLL with MSI source used as system clock source */

    /* Get SYSCLK source */
    if(READ_BIT(RCC->CR, RCC_CR_MSIRGSEL) == 0U)
 8001c1c:	4b34      	ldr	r3, [pc, #208]	; (8001cf0 <HAL_RCC_GetSysClockFreq+0x108>)
 8001c1e:	681b      	ldr	r3, [r3, #0]
 8001c20:	f003 0308 	and.w	r3, r3, #8
 8001c24:	2b00      	cmp	r3, #0
 8001c26:	d107      	bne.n	8001c38 <HAL_RCC_GetSysClockFreq+0x50>
    { /* MSISRANGE from RCC_CSR applies */
      msirange = READ_BIT(RCC->CSR, RCC_CSR_MSISRANGE) >> RCC_CSR_MSISRANGE_Pos;
 8001c28:	4b31      	ldr	r3, [pc, #196]	; (8001cf0 <HAL_RCC_GetSysClockFreq+0x108>)
 8001c2a:	f8d3 3094 	ldr.w	r3, [r3, #148]	; 0x94
 8001c2e:	0a1b      	lsrs	r3, r3, #8
 8001c30:	f003 030f 	and.w	r3, r3, #15
 8001c34:	61fb      	str	r3, [r7, #28]
 8001c36:	e005      	b.n	8001c44 <HAL_RCC_GetSysClockFreq+0x5c>
    }
    else
    { /* MSIRANGE from RCC_CR applies */
      msirange = READ_BIT(RCC->CR, RCC_CR_MSIRANGE) >> RCC_CR_MSIRANGE_Pos;
 8001c38:	4b2d      	ldr	r3, [pc, #180]	; (8001cf0 <HAL_RCC_GetSysClockFreq+0x108>)
 8001c3a:	681b      	ldr	r3, [r3, #0]
 8001c3c:	091b      	lsrs	r3, r3, #4
 8001c3e:	f003 030f 	and.w	r3, r3, #15
 8001c42:	61fb      	str	r3, [r7, #28]
    }
    /*MSI frequency range in HZ*/
    msirange = MSIRangeTable[msirange];
 8001c44:	4a2b      	ldr	r2, [pc, #172]	; (8001cf4 <HAL_RCC_GetSysClockFreq+0x10c>)
 8001c46:	69fb      	ldr	r3, [r7, #28]
 8001c48:	f852 3023 	ldr.w	r3, [r2, r3, lsl #2]
 8001c4c:	61fb      	str	r3, [r7, #28]

    if(sysclk_source == RCC_CFGR_SWS_MSI)
 8001c4e:	693b      	ldr	r3, [r7, #16]
 8001c50:	2b00      	cmp	r3, #0
 8001c52:	d10d      	bne.n	8001c70 <HAL_RCC_GetSysClockFreq+0x88>
    {
      /* MSI used as system clock source */
      sysclockfreq = msirange;
 8001c54:	69fb      	ldr	r3, [r7, #28]
 8001c56:	61bb      	str	r3, [r7, #24]
    if(sysclk_source == RCC_CFGR_SWS_MSI)
 8001c58:	e00a      	b.n	8001c70 <HAL_RCC_GetSysClockFreq+0x88>
    }
  }
  else if(sysclk_source == RCC_CFGR_SWS_HSI)
 8001c5a:	693b      	ldr	r3, [r7, #16]
 8001c5c:	2b04      	cmp	r3, #4
 8001c5e:	d102      	bne.n	8001c66 <HAL_RCC_GetSysClockFreq+0x7e>
  {
    /* HSI used as system clock source */
    sysclockfreq = HSI_VALUE;
 8001c60:	4b25      	ldr	r3, [pc, #148]	; (8001cf8 <HAL_RCC_GetSysClockFreq+0x110>)
 8001c62:	61bb      	str	r3, [r7, #24]
 8001c64:	e004      	b.n	8001c70 <HAL_RCC_GetSysClockFreq+0x88>
  }
  else if(sysclk_source == RCC_CFGR_SWS_HSE)
 8001c66:	693b      	ldr	r3, [r7, #16]
 8001c68:	2b08      	cmp	r3, #8
 8001c6a:	d101      	bne.n	8001c70 <HAL_RCC_GetSysClockFreq+0x88>
  {
    /* HSE used as system clock source */
    sysclockfreq = HSE_VALUE;
 8001c6c:	4b23      	ldr	r3, [pc, #140]	; (8001cfc <HAL_RCC_GetSysClockFreq+0x114>)
 8001c6e:	61bb      	str	r3, [r7, #24]
  else
  {
    /* unexpected case: sysclockfreq at 0 */
  }

  if(sysclk_source == RCC_CFGR_SWS_PLL)
 8001c70:	693b      	ldr	r3, [r7, #16]
 8001c72:	2b0c      	cmp	r3, #12
 8001c74:	d134      	bne.n	8001ce0 <HAL_RCC_GetSysClockFreq+0xf8>
    /* PLL used as system clock  source */

    /* PLL_VCO = (HSE_VALUE or HSI_VALUE or MSI_VALUE) * PLLN / PLLM
    SYSCLK = PLL_VCO / PLLR
    */
    pllsource = READ_BIT(RCC->PLLCFGR, RCC_PLLCFGR_PLLSRC);
 8001c76:	4b1e      	ldr	r3, [pc, #120]	; (8001cf0 <HAL_RCC_GetSysClockFreq+0x108>)
 8001c78:	68db      	ldr	r3, [r3, #12]
 8001c7a:	f003 0303 	and.w	r3, r3, #3
 8001c7e:	60bb      	str	r3, [r7, #8]

    switch (pllsource)
 8001c80:	68bb      	ldr	r3, [r7, #8]
 8001c82:	2b02      	cmp	r3, #2
 8001c84:	d003      	beq.n	8001c8e <HAL_RCC_GetSysClockFreq+0xa6>
 8001c86:	68bb      	ldr	r3, [r7, #8]
 8001c88:	2b03      	cmp	r3, #3
 8001c8a:	d003      	beq.n	8001c94 <HAL_RCC_GetSysClockFreq+0xac>
 8001c8c:	e005      	b.n	8001c9a <HAL_RCC_GetSysClockFreq+0xb2>
    {
    case RCC_PLLSOURCE_HSI:  /* HSI used as PLL clock source */
      pllvco = HSI_VALUE;
 8001c8e:	4b1a      	ldr	r3, [pc, #104]	; (8001cf8 <HAL_RCC_GetSysClockFreq+0x110>)
 8001c90:	617b      	str	r3, [r7, #20]
      break;
 8001c92:	e005      	b.n	8001ca0 <HAL_RCC_GetSysClockFreq+0xb8>

    case RCC_PLLSOURCE_HSE:  /* HSE used as PLL clock source */
      pllvco = HSE_VALUE;
 8001c94:	4b19      	ldr	r3, [pc, #100]	; (8001cfc <HAL_RCC_GetSysClockFreq+0x114>)
 8001c96:	617b      	str	r3, [r7, #20]
      break;
 8001c98:	e002      	b.n	8001ca0 <HAL_RCC_GetSysClockFreq+0xb8>

    case RCC_PLLSOURCE_MSI:  /* MSI used as PLL clock source */
    default:
      pllvco = msirange;
 8001c9a:	69fb      	ldr	r3, [r7, #28]
 8001c9c:	617b      	str	r3, [r7, #20]
      break;
 8001c9e:	bf00      	nop
    }
    pllm = (READ_BIT(RCC->PLLCFGR, RCC_PLLCFGR_PLLM) >> RCC_PLLCFGR_PLLM_Pos) + 1U ;
 8001ca0:	4b13      	ldr	r3, [pc, #76]	; (8001cf0 <HAL_RCC_GetSysClockFreq+0x108>)
 8001ca2:	68db      	ldr	r3, [r3, #12]
 8001ca4:	091b      	lsrs	r3, r3, #4
 8001ca6:	f003 0307 	and.w	r3, r3, #7
 8001caa:	3301      	adds	r3, #1
 8001cac:	607b      	str	r3, [r7, #4]
    pllvco = (pllvco * (READ_BIT(RCC->PLLCFGR, RCC_PLLCFGR_PLLN) >> RCC_PLLCFGR_PLLN_Pos)) / pllm;
 8001cae:	4b10      	ldr	r3, [pc, #64]	; (8001cf0 <HAL_RCC_GetSysClockFreq+0x108>)
 8001cb0:	68db      	ldr	r3, [r3, #12]
 8001cb2:	0a1b      	lsrs	r3, r3, #8
 8001cb4:	f003 037f 	and.w	r3, r3, #127	; 0x7f
 8001cb8:	697a      	ldr	r2, [r7, #20]
 8001cba:	fb02 f203 	mul.w	r2, r2, r3
 8001cbe:	687b      	ldr	r3, [r7, #4]
 8001cc0:	fbb2 f3f3 	udiv	r3, r2, r3
 8001cc4:	617b      	str	r3, [r7, #20]
    pllr = ((READ_BIT(RCC->PLLCFGR, RCC_PLLCFGR_PLLR) >> RCC_PLLCFGR_PLLR_Pos) + 1U ) * 2U;
 8001cc6:	4b0a      	ldr	r3, [pc, #40]	; (8001cf0 <HAL_RCC_GetSysClockFreq+0x108>)
 8001cc8:	68db      	ldr	r3, [r3, #12]
 8001cca:	0e5b      	lsrs	r3, r3, #25
 8001ccc:	f003 0303 	and.w	r3, r3, #3
 8001cd0:	3301      	adds	r3, #1
 8001cd2:	005b      	lsls	r3, r3, #1
 8001cd4:	603b      	str	r3, [r7, #0]
    sysclockfreq = pllvco / pllr;
 8001cd6:	697a      	ldr	r2, [r7, #20]
 8001cd8:	683b      	ldr	r3, [r7, #0]
 8001cda:	fbb2 f3f3 	udiv	r3, r2, r3
 8001cde:	61bb      	str	r3, [r7, #24]
  }

  return sysclockfreq;
 8001ce0:	69bb      	ldr	r3, [r7, #24]
}
 8001ce2:	4618      	mov	r0, r3
 8001ce4:	3724      	adds	r7, #36	; 0x24
 8001ce6:	46bd      	mov	sp, r7
 8001ce8:	f85d 7b04 	ldr.w	r7, [sp], #4
 8001cec:	4770      	bx	lr
 8001cee:	bf00      	nop
 8001cf0:	40021000 	.word	0x40021000
 8001cf4:	08003770 	.word	0x08003770
 8001cf8:	00f42400 	.word	0x00f42400
 8001cfc:	007a1200 	.word	0x007a1200

08001d00 <HAL_RCC_GetHCLKFreq>:
  *
  * @note   The SystemCoreClock CMSIS variable is used to store System Clock Frequency.
  * @retval HCLK frequency in Hz
  */
uint32_t HAL_RCC_GetHCLKFreq(void)
{
 8001d00:	b480      	push	{r7}
 8001d02:	af00      	add	r7, sp, #0
  return SystemCoreClock;
 8001d04:	4b03      	ldr	r3, [pc, #12]	; (8001d14 <HAL_RCC_GetHCLKFreq+0x14>)
 8001d06:	681b      	ldr	r3, [r3, #0]
}
 8001d08:	4618      	mov	r0, r3
 8001d0a:	46bd      	mov	sp, r7
 8001d0c:	f85d 7b04 	ldr.w	r7, [sp], #4
 8001d10:	4770      	bx	lr
 8001d12:	bf00      	nop
 8001d14:	20000000 	.word	0x20000000

08001d18 <HAL_RCC_GetPCLK1Freq>:
  * @note   Each time PCLK1 changes, this function must be called to update the
  *         right PCLK1 value. Otherwise, any configuration based on this function will be incorrect.
  * @retval PCLK1 frequency in Hz
  */
uint32_t HAL_RCC_GetPCLK1Freq(void)
{
 8001d18:	b580      	push	{r7, lr}
 8001d1a:	af00      	add	r7, sp, #0
  /* Get HCLK source and Compute PCLK1 frequency ---------------------------*/
  return (HAL_RCC_GetHCLKFreq() >> (APBPrescTable[READ_BIT(RCC->CFGR, RCC_CFGR_PPRE1) >> RCC_CFGR_PPRE1_Pos] & 0x1FU));
 8001d1c:	f7ff fff0 	bl	8001d00 <HAL_RCC_GetHCLKFreq>
 8001d20:	4602      	mov	r2, r0
 8001d22:	4b06      	ldr	r3, [pc, #24]	; (8001d3c <HAL_RCC_GetPCLK1Freq+0x24>)
 8001d24:	689b      	ldr	r3, [r3, #8]
 8001d26:	0a1b      	lsrs	r3, r3, #8
 8001d28:	f003 0307 	and.w	r3, r3, #7
 8001d2c:	4904      	ldr	r1, [pc, #16]	; (8001d40 <HAL_RCC_GetPCLK1Freq+0x28>)
 8001d2e:	5ccb      	ldrb	r3, [r1, r3]
 8001d30:	f003 031f 	and.w	r3, r3, #31
 8001d34:	fa22 f303 	lsr.w	r3, r2, r3
}
 8001d38:	4618      	mov	r0, r3
 8001d3a:	bd80      	pop	{r7, pc}
 8001d3c:	40021000 	.word	0x40021000
 8001d40:	08003768 	.word	0x08003768

08001d44 <HAL_RCC_GetPCLK2Freq>:
  * @note   Each time PCLK2 changes, this function must be called to update the
  *         right PCLK2 value. Otherwise, any configuration based on this function will be incorrect.
  * @retval PCLK2 frequency in Hz
  */
uint32_t HAL_RCC_GetPCLK2Freq(void)
{
 8001d44:	b580      	push	{r7, lr}
 8001d46:	af00      	add	r7, sp, #0
  /* Get HCLK source and Compute PCLK2 frequency ---------------------------*/
  return (HAL_RCC_GetHCLKFreq()>> (APBPrescTable[READ_BIT(RCC->CFGR, RCC_CFGR_PPRE2) >> RCC_CFGR_PPRE2_Pos] & 0x1FU));
 8001d48:	f7ff ffda 	bl	8001d00 <HAL_RCC_GetHCLKFreq>
 8001d4c:	4602      	mov	r2, r0
 8001d4e:	4b06      	ldr	r3, [pc, #24]	; (8001d68 <HAL_RCC_GetPCLK2Freq+0x24>)
 8001d50:	689b      	ldr	r3, [r3, #8]
 8001d52:	0adb      	lsrs	r3, r3, #11
 8001d54:	f003 0307 	and.w	r3, r3, #7
 8001d58:	4904      	ldr	r1, [pc, #16]	; (8001d6c <HAL_RCC_GetPCLK2Freq+0x28>)
 8001d5a:	5ccb      	ldrb	r3, [r1, r3]
 8001d5c:	f003 031f 	and.w	r3, r3, #31
 8001d60:	fa22 f303 	lsr.w	r3, r2, r3
}
 8001d64:	4618      	mov	r0, r3
 8001d66:	bd80      	pop	{r7, pc}
 8001d68:	40021000 	.word	0x40021000
 8001d6c:	08003768 	.word	0x08003768

08001d70 <RCC_SetFlashLatencyFromMSIRange>:
            voltage range.
  * @param  msirange  MSI range value from RCC_MSIRANGE_0 to RCC_MSIRANGE_11
  * @retval HAL status
  */
static HAL_StatusTypeDef RCC_SetFlashLatencyFromMSIRange(uint32_t msirange)
{
 8001d70:	b580      	push	{r7, lr}
 8001d72:	b086      	sub	sp, #24
 8001d74:	af00      	add	r7, sp, #0
 8001d76:	6078      	str	r0, [r7, #4]
  uint32_t vos;
  uint32_t latency = FLASH_LATENCY_0;  /* default value 0WS */
 8001d78:	2300      	movs	r3, #0
 8001d7a:	613b      	str	r3, [r7, #16]

  if(__HAL_RCC_PWR_IS_CLK_ENABLED())
 8001d7c:	4b2a      	ldr	r3, [pc, #168]	; (8001e28 <RCC_SetFlashLatencyFromMSIRange+0xb8>)
 8001d7e:	6d9b      	ldr	r3, [r3, #88]	; 0x58
 8001d80:	f003 5380 	and.w	r3, r3, #268435456	; 0x10000000
 8001d84:	2b00      	cmp	r3, #0
 8001d86:	d003      	beq.n	8001d90 <RCC_SetFlashLatencyFromMSIRange+0x20>
  {
    vos = HAL_PWREx_GetVoltageRange();
 8001d88:	f7ff fa02 	bl	8001190 <HAL_PWREx_GetVoltageRange>
 8001d8c:	6178      	str	r0, [r7, #20]
 8001d8e:	e014      	b.n	8001dba <RCC_SetFlashLatencyFromMSIRange+0x4a>
  }
  else
  {
    __HAL_RCC_PWR_CLK_ENABLE();
 8001d90:	4b25      	ldr	r3, [pc, #148]	; (8001e28 <RCC_SetFlashLatencyFromMSIRange+0xb8>)
 8001d92:	6d9b      	ldr	r3, [r3, #88]	; 0x58
 8001d94:	4a24      	ldr	r2, [pc, #144]	; (8001e28 <RCC_SetFlashLatencyFromMSIRange+0xb8>)
 8001d96:	f043 5380 	orr.w	r3, r3, #268435456	; 0x10000000
 8001d9a:	6593      	str	r3, [r2, #88]	; 0x58
 8001d9c:	4b22      	ldr	r3, [pc, #136]	; (8001e28 <RCC_SetFlashLatencyFromMSIRange+0xb8>)
 8001d9e:	6d9b      	ldr	r3, [r3, #88]	; 0x58
 8001da0:	f003 5380 	and.w	r3, r3, #268435456	; 0x10000000
 8001da4:	60fb      	str	r3, [r7, #12]
 8001da6:	68fb      	ldr	r3, [r7, #12]
    vos = HAL_PWREx_GetVoltageRange();
 8001da8:	f7ff f9f2 	bl	8001190 <HAL_PWREx_GetVoltageRange>
 8001dac:	6178      	str	r0, [r7, #20]
    __HAL_RCC_PWR_CLK_DISABLE();
 8001dae:	4b1e      	ldr	r3, [pc, #120]	; (8001e28 <RCC_SetFlashLatencyFromMSIRange+0xb8>)
 8001db0:	6d9b      	ldr	r3, [r3, #88]	; 0x58
 8001db2:	4a1d      	ldr	r2, [pc, #116]	; (8001e28 <RCC_SetFlashLatencyFromMSIRange+0xb8>)
 8001db4:	f023 5380 	bic.w	r3, r3, #268435456	; 0x10000000
 8001db8:	6593      	str	r3, [r2, #88]	; 0x58
  }

  if(vos == PWR_REGULATOR_VOLTAGE_SCALE1)
 8001dba:	697b      	ldr	r3, [r7, #20]
 8001dbc:	f5b3 7f00 	cmp.w	r3, #512	; 0x200
 8001dc0:	d10b      	bne.n	8001dda <RCC_SetFlashLatencyFromMSIRange+0x6a>
  {
    if(msirange > RCC_MSIRANGE_8)
 8001dc2:	687b      	ldr	r3, [r7, #4]
 8001dc4:	2b80      	cmp	r3, #128	; 0x80
 8001dc6:	d919      	bls.n	8001dfc <RCC_SetFlashLatencyFromMSIRange+0x8c>
    {
      /* MSI > 16Mhz */
      if(msirange > RCC_MSIRANGE_10)
 8001dc8:	687b      	ldr	r3, [r7, #4]
 8001dca:	2ba0      	cmp	r3, #160	; 0xa0
 8001dcc:	d902      	bls.n	8001dd4 <RCC_SetFlashLatencyFromMSIRange+0x64>
      {
        /* MSI 48Mhz */
        latency = FLASH_LATENCY_2; /* 2WS */
 8001dce:	2302      	movs	r3, #2
 8001dd0:	613b      	str	r3, [r7, #16]
 8001dd2:	e013      	b.n	8001dfc <RCC_SetFlashLatencyFromMSIRange+0x8c>
      }
      else
      {
        /* MSI 24Mhz or 32Mhz */
        latency = FLASH_LATENCY_1; /* 1WS */
 8001dd4:	2301      	movs	r3, #1
 8001dd6:	613b      	str	r3, [r7, #16]
 8001dd8:	e010      	b.n	8001dfc <RCC_SetFlashLatencyFromMSIRange+0x8c>
        latency = FLASH_LATENCY_1; /* 1WS */
      }
      /* else MSI < 8Mhz default FLASH_LATENCY_0 0WS */
    }
#else
    if(msirange > RCC_MSIRANGE_8)
 8001dda:	687b      	ldr	r3, [r7, #4]
 8001ddc:	2b80      	cmp	r3, #128	; 0x80
 8001dde:	d902      	bls.n	8001de6 <RCC_SetFlashLatencyFromMSIRange+0x76>
    {
      /* MSI > 16Mhz */
      latency = FLASH_LATENCY_3; /* 3WS */
 8001de0:	2303      	movs	r3, #3
 8001de2:	613b      	str	r3, [r7, #16]
 8001de4:	e00a      	b.n	8001dfc <RCC_SetFlashLatencyFromMSIRange+0x8c>
    }
    else
    {
      if(msirange == RCC_MSIRANGE_8)
 8001de6:	687b      	ldr	r3, [r7, #4]
 8001de8:	2b80      	cmp	r3, #128	; 0x80
 8001dea:	d102      	bne.n	8001df2 <RCC_SetFlashLatencyFromMSIRange+0x82>
      {
        /* MSI 16Mhz */
        latency = FLASH_LATENCY_2; /* 2WS */
 8001dec:	2302      	movs	r3, #2
 8001dee:	613b      	str	r3, [r7, #16]
 8001df0:	e004      	b.n	8001dfc <RCC_SetFlashLatencyFromMSIRange+0x8c>
      }
      else if(msirange == RCC_MSIRANGE_7)
 8001df2:	687b      	ldr	r3, [r7, #4]
 8001df4:	2b70      	cmp	r3, #112	; 0x70
 8001df6:	d101      	bne.n	8001dfc <RCC_SetFlashLatencyFromMSIRange+0x8c>
      {
        /* MSI 8Mhz */
        latency = FLASH_LATENCY_1; /* 1WS */
 8001df8:	2301      	movs	r3, #1
 8001dfa:	613b      	str	r3, [r7, #16]
      /* else MSI < 8Mhz default FLASH_LATENCY_0 0WS */
    }
#endif
  }

  __HAL_FLASH_SET_LATENCY(latency);
 8001dfc:	4b0b      	ldr	r3, [pc, #44]	; (8001e2c <RCC_SetFlashLatencyFromMSIRange+0xbc>)
 8001dfe:	681b      	ldr	r3, [r3, #0]
 8001e00:	f023 0207 	bic.w	r2, r3, #7
 8001e04:	4909      	ldr	r1, [pc, #36]	; (8001e2c <RCC_SetFlashLatencyFromMSIRange+0xbc>)
 8001e06:	693b      	ldr	r3, [r7, #16]
 8001e08:	4313      	orrs	r3, r2
 8001e0a:	600b      	str	r3, [r1, #0]

  /* Check that the new number of wait states is taken into account to access the Flash
     memory by reading the FLASH_ACR register */
  if(__HAL_FLASH_GET_LATENCY() != latency)
 8001e0c:	4b07      	ldr	r3, [pc, #28]	; (8001e2c <RCC_SetFlashLatencyFromMSIRange+0xbc>)
 8001e0e:	681b      	ldr	r3, [r3, #0]
 8001e10:	f003 0307 	and.w	r3, r3, #7
 8001e14:	693a      	ldr	r2, [r7, #16]
 8001e16:	429a      	cmp	r2, r3
 8001e18:	d001      	beq.n	8001e1e <RCC_SetFlashLatencyFromMSIRange+0xae>
  {
    return HAL_ERROR;
 8001e1a:	2301      	movs	r3, #1
 8001e1c:	e000      	b.n	8001e20 <RCC_SetFlashLatencyFromMSIRange+0xb0>
  }

  return HAL_OK;
 8001e1e:	2300      	movs	r3, #0
}
 8001e20:	4618      	mov	r0, r3
 8001e22:	3718      	adds	r7, #24
 8001e24:	46bd      	mov	sp, r7
 8001e26:	bd80      	pop	{r7, pc}
 8001e28:	40021000 	.word	0x40021000
 8001e2c:	40022000 	.word	0x40022000

08001e30 <HAL_RCCEx_PeriphCLKConfig>:
  *         the RTC clock source: in this case the access to Backup domain is enabled.
  *
  * @retval HAL status
  */
HAL_StatusTypeDef HAL_RCCEx_PeriphCLKConfig(RCC_PeriphCLKInitTypeDef  *PeriphClkInit)
{
 8001e30:	b580      	push	{r7, lr}
 8001e32:	b086      	sub	sp, #24
 8001e34:	af00      	add	r7, sp, #0
 8001e36:	6078      	str	r0, [r7, #4]
  uint32_t tmpregister, tickstart;     /* no init needed */
  HAL_StatusTypeDef ret = HAL_OK;      /* Intermediate status */
 8001e38:	2300      	movs	r3, #0
 8001e3a:	74fb      	strb	r3, [r7, #19]
  HAL_StatusTypeDef status = HAL_OK;   /* Final status */
 8001e3c:	2300      	movs	r3, #0
 8001e3e:	74bb      	strb	r3, [r7, #18]
  assert_param(IS_RCC_PERIPHCLOCK(PeriphClkInit->PeriphClockSelection));

#if defined(SAI1)

  /*-------------------------- SAI1 clock source configuration ---------------------*/
  if((((PeriphClkInit->PeriphClockSelection) & RCC_PERIPHCLK_SAI1) == RCC_PERIPHCLK_SAI1))
 8001e40:	687b      	ldr	r3, [r7, #4]
 8001e42:	681b      	ldr	r3, [r3, #0]
 8001e44:	f403 6300 	and.w	r3, r3, #2048	; 0x800
 8001e48:	2b00      	cmp	r3, #0
 8001e4a:	d041      	beq.n	8001ed0 <HAL_RCCEx_PeriphCLKConfig+0xa0>
  {
    /* Check the parameters */
    assert_param(IS_RCC_SAI1CLK(PeriphClkInit->Sai1ClockSelection));

    switch(PeriphClkInit->Sai1ClockSelection)
 8001e4c:	687b      	ldr	r3, [r7, #4]
 8001e4e:	6e5b      	ldr	r3, [r3, #100]	; 0x64
 8001e50:	f5b3 0f40 	cmp.w	r3, #12582912	; 0xc00000
 8001e54:	d02a      	beq.n	8001eac <HAL_RCCEx_PeriphCLKConfig+0x7c>
 8001e56:	f5b3 0f40 	cmp.w	r3, #12582912	; 0xc00000
 8001e5a:	d824      	bhi.n	8001ea6 <HAL_RCCEx_PeriphCLKConfig+0x76>
 8001e5c:	f5b3 0f00 	cmp.w	r3, #8388608	; 0x800000
 8001e60:	d008      	beq.n	8001e74 <HAL_RCCEx_PeriphCLKConfig+0x44>
 8001e62:	f5b3 0f00 	cmp.w	r3, #8388608	; 0x800000
 8001e66:	d81e      	bhi.n	8001ea6 <HAL_RCCEx_PeriphCLKConfig+0x76>
 8001e68:	2b00      	cmp	r3, #0
 8001e6a:	d00a      	beq.n	8001e82 <HAL_RCCEx_PeriphCLKConfig+0x52>
 8001e6c:	f5b3 0f80 	cmp.w	r3, #4194304	; 0x400000
 8001e70:	d010      	beq.n	8001e94 <HAL_RCCEx_PeriphCLKConfig+0x64>
 8001e72:	e018      	b.n	8001ea6 <HAL_RCCEx_PeriphCLKConfig+0x76>
    {
    case RCC_SAI1CLKSOURCE_PLL:      /* PLL is used as clock source for SAI1*/
      /* Enable SAI Clock output generated from System PLL . */
#if defined(RCC_PLLSAI2_SUPPORT)
      __HAL_RCC_PLLCLKOUT_ENABLE(RCC_PLL_SAI3CLK);
 8001e74:	4b86      	ldr	r3, [pc, #536]	; (8002090 <HAL_RCCEx_PeriphCLKConfig+0x260>)
 8001e76:	68db      	ldr	r3, [r3, #12]
 8001e78:	4a85      	ldr	r2, [pc, #532]	; (8002090 <HAL_RCCEx_PeriphCLKConfig+0x260>)
 8001e7a:	f443 3380 	orr.w	r3, r3, #65536	; 0x10000
 8001e7e:	60d3      	str	r3, [r2, #12]
#else
